:020000040800F2
:1000000088320020050200080D0200080F020008D7
:100010001102000813020008150200080000000089
:100020000000000000000000000000006501000862
:100030001902000800000000A50100081D0F0008BB
:100040001F0200081F0200081F0200080000000035
:10005000000000001F020008891200082913000890
:100060001F020008000000001F0200081F02000815
:100070001F020008000000001F0200087D11000898
:100080001F0200082D060008000000001F020008E3
:100090001F02000800000000000000000000000037
:1000A0000000000000000000000000001F02000827
:1000B0001F0200081F0200081F0200081F0200089C
:1000C00000F002F800F03FF80AA090E8000C82442B
:1000D0008344AAF10107DA4501D100F034F8AFF208
:1000E000090EBAE80F0013F0010F18BFFB1A43F016
:1000F00001031847FC3D00002C3E0000103A24BFCD
:1001000078C878C1FAD8520724BF30C830C144BF7C
:1001100004680C60704700000023002400250026BE
:10012000103A28BF78C1FBD8520728BF30C148BF5A
:100130000B607047632900F04781002070471FB5AE
:100140001FBD10B510BD00F0AAF91146FFF7F7FF6B
:1001500001F02CFC00F0C8F903B4FFF7F2FF03BC78
:1001600000F0CCF91F4B19680868B0E8F00F80F375
:100170000988BFF36F8F4FF0000080F311884EF0B5
:100180000D0E70470000000005480068006880F30D
:10019000088862B6BFF34F8FBFF36F8F00DF00BFD9
:1001A00008ED00E0EFF30980BFF36F8F0D4B1A6885
:1001B00020E9F00F106008B54FF0BF0080F3118800
:1001C00003F06CFB4FF0000080F31188BDE808409D
:1001D00019680868B0E8F00F80F30988BFF36F8FE3
:1001E000704700BF30020020EFF311804FF0BF01D5
:1001F00081F31188704780F311887047EFF3058011
:10020000704700000948804709480047FEE7FEE7BD
:10021000FEE7FEE7FEE7FEE7FEE7FEE7FEE7FEE7B6
:1002200004480549054A064B70470000DD0F0008E9
:10023000C1000008882C002088320020882E002071
:10024000882E00200FB4044910B503AA029800F0CC
:10025000C7F810BC5DF814FBD00100202DE9F04177
:100260000E460446002020622046E168884730B3ED
:10027000252805D0D4E901219047206A401CF2E7E7
:10028000E168204600278847050018D0A5F1410005
:10029000192802D820354FF40067324629462046F7
:1002A0002760FFF747FF40B1012804D0F61D26F074
:1002B00007060836D8E7361DD6E72846DAE7206A6B
:1002C000BDE8F08170B50C460546012A05D02878B6
:1002D000800600D5EA69002302E0012305E05B1CEB
:1002E000934202D2E05C0028F9D1A869E618C01A4E
:1002F000A861286A184428622846AFF3008004E009
:10030000D5E9012114F8010B9047B442F8D32846EF
:10031000AFF3008070BD40EA010310B59B070FD119
:10032000042A0DD310C808C9121F9C42F8D020BA65
:1003300019BA884201D9012010BD4FF0FF3010BD1D
:100340001AB1D30703D0521C07E0002010BD10F8EB
:10035000013B11F8014B1B1B07D110F8013B11F8B1
:10036000014B1B1B01D1921EF1D1184610BD02F0AA
:10037000FF0343EA032242EA024200F045B8704715
:100380007047704701694A1C02610878704700B5E0
:100390008FB0CDE901310021059105497944CDE9BE
:1003A000031011466846FFF759FF0FB000BD00006B
:1003B000E5FFFFFF10B5436913B1AFF3008001E023
:1003C000FFF780FF012010BD127800F124010A70B0
:1003D00000224A700122EDE711684FF0FF32E9E791
:1003E000074B70B50D467B44FFF7D1FF0446284606
:1003F00000F02AF810B14FF0FF3070BD204670BDFC
:100400009F1500004FF000020429C0F0128010F088
:10041000030C00F01F80CCF1040CBCF1020F18BFDC
:1004200000F8012BA8BF20F8022BA1EB0C0100F073
:1004300011B85FEAC17C24BF00F8012B00F8012B42
:1004400048BF00F8012B7047007B00F08000704728
:100450004FF0000200B5134694469646203922BF5D
:10046000A0E80C50A0E80C50B1F12001BFF4F7AFA8
:10047000090728BFA0E80C5048BF0CC05DF804EB8A
:10048000890028BF40F8042B08BF704748BF20F8F8
:10049000022B11F0804F18BF00F8012B70477546F2
:1004A00000F028F8AE4605006946534620F00700E4
:1004B000854618B020B5FFF7B3FEBDE820404FF0E9
:1004C00000064FF000074FF000084FF0000B21F03E
:1004D0000701AC46ACE8C009ACE8C009ACE8C0090B
:1004E000ACE8C0098D4670470446AFF30080204653
:1004F000FFF732FE00487047282C002001491820E1
:10050000ABBEFEE726000200704740F2150CC2F2B7
:10051000000C604740F2690CC2F2000C604740F2E8
:10052000B50CC2F2000C604740F23D1CC2F2000C58
:10053000604700000348006A20F00100014908629A
:1005400070470000008008400146054A106811B15C
:1005500040F0010001E020F00100014A1060704706
:100560000080084001488069704700000080084012
:100570000A46054B196A12B141EA800101E021EAFD
:100580008001014B196270470080084010B5144B80
:100590001A68144B1A40D0E9003423448468234479
:1005A000C46803EB041344692344C4692344446AC4
:1005B000234490F8284003EB44631A44084B5968DD
:1005C00021F40031038C01EB4341054B1A60596063
:1005D000038B034C2361438BA3600369A36210BDAB
:1005E000008008400300FFF10146044A106820F42F
:1005F000F87000EB011010607047000000800840A8
:1006000000200949086048608860086108468069E0
:10061000002008628862C86048610846C0690020FE
:100620004862C862704700000080084070B500252D
:100630000024FFF797FF0446C4F30445C4F30B04FA
:10064000052D12D006DC022D0CD0032D0BD0042D6D
:1006500055D109E0062D28D0072D27D01F2D4ED1CA
:10066000082500BF00BF00BF00BF3748007848B171
:1006700035480078401E34490870344800682044EA
:10068000324908603048007870B9304800688C21E1
:10069000B0FBF1F02D490860084600682C4941F88C
:1006A00025000020294908602AE000BF264800787C
:1006B000A0B125480078401E2349087008460078FC
:1006C0008C280BDA23480068844201D92148046051
:1006D00021480068844201D21F4804601A4800780B
:1006E00060B91C4800681C490968441A3C2C01D3B5
:1006F0003C3C00E00024164840F8254000E000BFE4
:1007000000BF11480078F0B98C200F490870002014
:10071000104908604FF6FF700F490860072D02D09E
:10072000082D0BD103E01F20FFF75EFF0AE0022037
:10073000FFF75AFF01200949087003E0681CFFF722
:1007400053FF00BF00BF70BD06020020080200205A
:10075000B80200200C02002010020020F801002046
:1007600010B50479836803EB0473C46823440469F7
:10077000234444691919048B036803EB4453194457
:10078000044A054B1A43054B1B6893430B44034C27
:10079000236010BD00001EF00000E1010080084051
:1007A0000021016041608160C1600161416181613E
:1007B00070470021016041608160C1600161416159
:1007C00001834183C161016241628162704700001F
:1007D000002022E01249098B01228240114059B1C8
:1007E000104951F82010B1B10E4951F82010491E9E
:1007F0000C4A42F820100EE00A4951F820100A4A2B
:1008000032F81020914206DA064951F82010491CAE
:10081000044A42F82010411CC8B21028DADB7047A5
:10082000700200201C030020A83E0008002019E0F0
:100830000E49C98A014101F0010159B10C4951F831
:10084000201069B10A4951F82010491E084A42F89F
:10085000201005E0074931F81010054A42F8201031
:10086000411CC8B21028E3DB704700007002002072
:10087000DC020020883E000800F01F0201219140A8
:10088000024A430942F823107047000080E100E06B
:1008900000F01F02012191404209920002F1E02282
:1008A000C2F80011704700002DE9FE4F4768D0F8EC
:1008B00008C0D0F80C80D0F81090D0F814A0CDF873
:1008C00008A0D0F818A0CDF804A0D0F81CA0CDF84E
:1008D00000A00022012303254FF001160C885FE0E1
:1008E00004F0010ABAF1000F55D027EA030A91F883
:1008F00002B00BFA02FB4AEA0B0791F808A04FEA94
:10090000420B0AFA0BFA2CEA050B4AEA0B0C28EA0E
:10091000030A91F80AB00BFA02FB4AEA0B0829EA2B
:10092000060A91F803B002F1100E0BFA0EFB4AEA28
:100930000B0A91F804B00BFA02FB4AEA0B09DDF846
:1009400008A02AEA060A91F805B00BFA0EFB4AEA5B
:100950000B0A91F806B00BFA02FB4AEA0B0ACDF833
:1009600008A091F809A04FEA420B0AFA0BFADDF849
:1009700004B02BEA050B4AEA0B0ACDF804A0DDF817
:1009800000A02AEA030A91F807B00BFA02FB4AEA30
:100990000B0ACDF800A05B00AD007600521C640885
:1009A000002C9DD1DFF8C4A0504502D14FF01F0AA2
:1009B00001E04FF0000A27EA0A0AC0F804A0DFF8B5
:1009C000ACA0504502D14FF01F0A01E04FF0000AE1
:1009D0002CEA0A0AC0F808A0DFF890A0504502D11E
:1009E0004FF01F0A01E04FF0000A28EA0A0AC0F897
:1009F0000CA0DFF878A0504502D14FF01F0A01E0AB
:100A00004FF0000A29EA0A0AC0F810A0DFF85CA03B
:100A1000504502D14FF01F0B01E04FF0000BDDF805
:100A200008A02AEA0B0AC0F814A0DFF840A050453D
:100A300002D14FF01F0B01E04FF0000BDDF804A0D6
:100A40002AEA0B0AC0F818A0DFF820A0504502D10E
:100A50004FF01F0B01E04FF0000BDDF800A02AEA79
:100A60000B0AC0F81CA0BDE8FE8F000000000B4080
:100A7000024613680B400BB1012000E000207047D4
:100A80000268054B984201D11F2300E000230B436D
:100A90009A4302607047000000000B400268054B5B
:100AA000984201D11F2300E000239A430A430260C9
:100AB0007047000000000B404FF6FF7101800021DD
:100AC0008170C170017141718171C1710172417296
:100AD00081727047014908607047000088004042F9
:100AE00010B502460C4BD86820F003001043D860C4
:100AF000586820F4706040EA01205860074B1B687A
:100B000043B10123054C241D23600023034C883C82
:100B1000C4F88C3010BD0000000002408800404244
:100B200038B50020009000BF212000F05FF9054695
:100B30000098401C00900098B0F5C06F01D2002DC5
:100B4000F2D0212000F052F908B1012400E0002485
:100B5000204638BD014908607047000088014042C6
:100B60000146034AD06820F440700843D0607047C3
:100B7000000002402DE9FC4F0146DFF864B2DBF8CB
:100B80000CB00BF0020BBBF1000F01D0954B00E055
:100B9000954BDFF84CB2DBF80CB00BF0010BBBF15E
:100BA000000F00D05B081C46DFF834B2DBF80CB055
:100BB0000BF0020BBBF1000F0DD0DFF824B2DBF815
:100BC00004B0CBF3032B0BF1010BCDF800B0DDF833
:100BD00000B004FB0BF4DFF808B2DBF80CB0CBF389
:100BE000012BBBF1000F06D0BBF1010F08D0BBF108
:100BF000020F28D122E0DFF8F0B1C1F800B027E001
:100C0000DFF8DCB1DBF80CB04FF0080E0EEA1B1B6E
:100C1000BBF1000F01D1A0460DE0DFF8C4B1DBF855
:100C20000CB0CBF3021B0BF1010B4FF0010E0EFACF
:100C30000BFEB4FBFEF8C1F8008009E04FF4004B56
:100C4000C1F800B004E049F6404BC1F800B000BF65
:100C500000BFDFF88CB1DBF810B00BF0020BBBF17A
:100C6000000F01D05F4D00E05F4DDFF874B1DBF89D
:100C700010B00BF0010BBBF1000F00D06D082F4638
:100C8000DFF85CB1DBF810B00BF0040BBBF1000F28
:100C90000DD0DFF84CB1DBF804B0CBF3031B0BF144
:100CA000010BCDF800B0DDF800B007FB0BF7B9463B
:100CB000DFF82CB1DBF810B00BF0100BBBF1000F1C
:100CC00001D04FEA5909C1F80490DFF814B1DBF8FC
:100CD00018B04FEA1B1000F0080BBBF1000F02D157
:100CE000DFF804C10BE000F0070B0BF1010B4FF034
:100CF000010E0EFA0BF0DFF8F0B0BBFBF0FCC1F810
:100D00000CC0DFF8DCB0DBF8180000F0080BBBF11A
:100D1000000F04D1DFF8CCB0CDF804B00DE000F046
:100D2000070B0BF1010B4FF0010E0EFA0BF0DFF881
:100D3000B4B0BBFBF0FBCDF804B0DDF804B0C1F8F3
:100D400010B0DFF89CB0DBF814B00BF0030BBBF174
:100D5000000F06D0BBF1010F05D0BBF1020F06D189
:100D600003E01E4605E02E4603E0264601E03E462F
:100D700000BF00BFDFF868B0DBF814B0CBF3011B95
:100D8000BBF1000F06D0BBF1010F06D0BBF1020F83
:100D900008D105E04FF4004206E049F6404203E086
:100DA000324601E0624600BF00BFDFF834B0DBF836
:100DB00014B04FEA1B2000F0080BBBF1000F01D16B
:100DC000924609E000F0070B0BF1010B4FF0010E0A
:100DD0000EFA0BF0B2FBF0FAC1F808A0BDE8FC8FE8
:100DE000000002400024F40000127A0010B5014611
:100DF00001F0E003202B02D1074B1A6801E0074BFA
:100E0000DA6B01F01F040123A34013400BB1012052
:100E100000E0002010BD00000000024000800D40F6
:100E20000D49896821F003010B4A9160012802D025
:100E300002280ED106E00849896841F00101064AFE
:100E4000916007E00449896841F00301024A91601A
:100E500000E000BF00BF70470000024038B500202E
:100E6000009000BF2220FFF7C1FF05460098401CFC
:100E700000900098B0F5C06F01D2002DF2D0222072
:100E8000FFF7B4FF08B1012400E00024204638BD7C
:100E90000149086070470000D807B04329B1064AED
:100EA000D2690243044BDA6104E0034AD269824307
:100EB000014BDA61704700000000024010B50024C9
:100EC0000020114988820883104908700E48407C30
:100ED00000F001000C49487401210D48FFF7D0FDD6
:100EE00080210B48FFF7CCFD1C20074981F8280022
:100EF00007E0084830F81400074941F82400601C56
:100F0000C4B2102CF5DB10BD70020020FC010020E3
:100F100000800C40A83E00081C03002010B5FFF71D
:100F200063F902F00BFD0649086002F0A9FD18B153
:100F30004FF08050034908600020FFF75CF910BDB6
:100F40002C02002004ED00E030B5204CE46804F0F1
:100F50000204022C01D11E4800E01E481B4CE4682C
:100F600004F0010404B140080146184CE46804F0A0
:100F70000404042C05D1154C6468C4F30324631CD9
:100F80005943124CE468C4F3012424B1012C06D067
:100F9000022C13D10DE00F4C0F4D2C6013E00B4CC5
:100FA000E468C4F30314641CB1FBF4F20A4C22603D
:100FB00009E04FF40044084D2C6004E049F6404439
:100FC000054D2C6000BF00BF30BD00000000024096
:100FD0000024F40000127A002402002000B50D481D
:100FE0000D49C8610846C0680020C86008464068CE
:100FF0000020486008468068002088600846006934
:10100000002008610846406900204861FFF79CFF06
:1010100000BD000010000008000002400246104B16
:10102000586A104B9A4205D120F0FF00084340F067
:10103000807012E00C4B9A4206D120F47F4040EAC7
:10104000012040F0007008E0084B9A4205D120F4DE
:101050007F0040EA014040F08060014B58627047D9
:1010600000000240000007400080074000000840E8
:1010700070B54D88CE8835440E8935444E89354447
:101080008E8905EB8615CE8935440E8AAC198D887C
:101090000DB104F500540A8800F1200545F82240FE
:1010A0004D8ACE8AAB198D8A05B11B1D00F16005F2
:1010B00045F8223070BD0021018041808180C180CF
:1010C000018141818181C181018241828182C1820C
:1010D00070470A46C16812B141F0010101E021F0F8
:1010E0000101C160704730B50C8804604C884460D1
:1010F0008C888460CC880D892C444D892C448D8942
:101100002C44CD896319C3604C8A0D8A04EB051405
:101110008D8A2C44CD8A6219026530BD0021C160E0
:10112000016041608160016241628162C16201636C
:1011300041638163C163016641668166C166016185
:1011400041618161C161016741678167C167016474
:1011500041648164C164016541658165C165704711
:101160000146086880B2704710B51346826D0BB116
:101170000A4300E08A43826510BD000010B500BF3D
:101180000020354908600846406D20F0020048659F
:101190000F2001218140314A430942F8231000BF4A
:1011A0002F48FFF7DDFF2F490860084600686421DB
:1011B00048439021B0FBF1F42B490C8000202849D2
:1011C00008602A4800682A4908600020274908600A
:1011D00028480078012825DD0020264908700120D4
:1011E0002549087002212548FFF742FC20B11E481E
:1011F000406A401C1C4948621B48808A00F4004039
:10120000A8B1194890F8280038B1174890F828007C
:10121000401E154981F8280009E080211848FFF791
:101220003DFC04E013480078401C12490870154842
:10123000007830B11248006880F001001049086061
:1012400008E00948C08900F0010018B901210C48E4
:10125000FFF716FC10BD00000080074080E200E0B0
:1012600000000840E8010020700200200000074054
:10127000F001002016020020F901002000800B4040
:1012800000800C40FC01002010B5002426E0174827
:1012900000F028F9C4B216480078F8B9154800786B
:1012A00028B9552C1AD101201249087016E01248AD
:1012B0001249097840F8214010480078062808DBD8
:1012C00000200E4908700B49087001200849087079
:1012D00004E00A480078401C0849087010210348BF
:1012E00000F097F80028D2D010BD000000000340A5
:1012F000FD010020140200209C02002015020020A5
:1013000010B504462146074800F0F0F800BF202140
:10131000044800F07EF80028F9D1024800F0E2F815
:1013200010BD00000000034010B50A4800F0DAF8D4
:1013300009490A4A12788854084600780B2808D1CF
:1013400006480078092804DA04480078401C03495C
:10135000087010BD008003405C030020FF010020E6
:1013600010B504462146094800F0C0F800BF20210E
:10137000064800F04EF80028F9D1044800F0B2F811
:101380001021024800F022F810BD00000080034048
:1013900002460B4B986A0B4B9A4205D140F0807085
:1013A00020F0FF00084308E0074B9A4205D140F0C7
:1013B000007020F47F4040EA0120014B98627047A2
:1013C000000002400000034000800340426C0A43DA
:1013D0004264704721B1026B42F00102026304E0F3
:1013E000026B4FF6FE731A400263704700210163DF
:1013F000C16241609021816100210162416281628C
:10140000022141630021816381644FF440710163D3
:101410007047024693690B400BB1012000E00020A9
:1014200070471AB1836B0B43836302E0836B8B437A
:10143000836370472DE9F04F87B004460D4601A83D
:10144000FFF798FB019F2448866A2448844206D10E
:1014500006F0070101208840B7FBF0F708E02048BC
:10146000844205D1C6F3022101208840B7FBF0F782
:1014700028688008B7FBF0F94FEA991809F03F0A8D
:10148000B8000AEB8811B0FBF1FB2868ABEB000059
:10149000C0012968B0FBF1F006900698022803D934
:1014A000002007B0BDE8F08FC4F82480C4F828A05D
:1014B000E66AA888E98808432989084369890843B6
:1014C0000643E662266B4FF680708643A889064382
:1014D00026630120E5E70000000002400000034011
:1014E000008003400146086880B27047C1F30802DB
:1014F0000260704770B502460D46002100230024AB
:10150000FF21FF2309E0107880EA01040748005D0D
:1015100080EA03010648035D521C2800A5F101067C
:10152000B5B2F0D143EA012070BD0000883C00084C
:10153000883D000870B5002600BF00BF2B48C0687A
:1015400005112B2068434FF6FF7101EAC0046420A7
:1015500094FBF0F084B2642C00DD642424494C73C5
:101560000846407B322816DC2248C06A20B1402160
:101570002148FFF793FA03E040211F48FFF780FA64
:101580001B48C08A40F040001949C8820846C08AFA
:1015900040F40060C8821648407B632803DB40218A
:1015A0001548FFF76DFA1348806960B91048C08A82
:1015B00020F404600E49C8821048C08A0D49C862F0
:1015C0000E48808988610A48407B0A2806DC084862
:1015D000008B40F080000649088305E00448008B3A
:1015E00020F080000249088370BD0000B80200208E
:1015F00070020020DC02002000800E40883E0008BF
:101600000E48C08900F04000B8B10C4800883C2169
:1016100090FBF1F00A49086008460068302801D2C2
:101620003020086006480068342802D93420044974
:101630000860034800880149488070477002002014
:101640001C02002000BF00BF1C4A9269101100EB71
:10165000800251003222B1FBF2F1194A1278504354
:10166000000A0844174B18811A46D28902F040023A
:101670001AB31A461289202A09DD1A461289232A2A
:1016800005DC1A46128B42F008021A8315E00D4A57
:10169000128B22F008020B4B1A831A461289232A56
:1016A00005DD1A46128B42F020021A8305E0054A36
:1016B000128B22F02002034B1A837047B8020020DD
:1016C0000002002070020020C8201949096844F671
:1016D0003822914201D90F2016E01549096843F6D6
:1016E000F042914201D964200EE01149096843F2A9
:1016F000B062914201D9962006E00D49096843F293
:10170000D402914200D9C8200A490874097CC8292A
:1017100006DA0849098B41F48051064A118305E035
:101720000449098B21F48051024A1183704700005B
:10173000F00100207002002010B51E480088962895
:1017400003DD08211C48FFF79BF91A480088B0F513
:10175000486F0BDD1748C08900F0600030B11548B4
:10176000008B40F001001349088305E01148008B0D
:1017700020F001000F4908830E48C08900F0600086
:1017800088B10C480088C82806DA0A48008B40F067
:101790000200084908830CE00648008B20F0020094
:1017A0000449088305E00348008B20F0020001494A
:1017B000088310BD7002002000800E4000201B49ED
:1017C000896888B2FD2810DDA0F1FD0188B200EB28
:1017D000C00101EB00114FF6FF7202EA810040F2F6
:1017E000C73190FBF1F188B200E00020632803DBF1
:1017F00063210F4A917201E00D4A90720C490988E9
:10180000B1F57A7F0ADD0A49897A042906DA08499E
:10181000098B41F01001064A118305E00449098B48
:1018200021F01001024A118370470000B802002025
:101830007002002000201249096AC1F307105F28D6
:1018400009DD0102A1F5BE41C839642291FBF2F124
:101850000C4A117302E000210A4A11730949097BFD
:10186000552906DD0749098B41F48071054A11832A
:1018700005E00449098B21F48071024A1183704705
:10188000B80200207002002000201949496908119F
:1018900095280BD9BE214843A0F5DC40F4386421DB
:1018A000B0FBF1F0962802D9962000E00020114A02
:1018B000D0721146C97A812902DD01210E4A1170C8
:1018C0000C49098840F2DC52914210DD0949C97A7D
:1018D000862906DD0749098B41F04001054A11833D
:1018E00005E00449098B21F04001024A1183704749
:1018F000B802002070020020FC01002005480069A9
:10190000001164214843222190FBF1F00249C88074
:1019100070470000B80200207002002000BF00BF26
:10192000164AD269D010642200FB02F14322B1FBB7
:10193000F2F1134A52785043000A0844114B988040
:101940001A469288B2F5AF7F04DD1A469288B2F546
:10195000D27F0BDD0B4AD28902F0400232B1094A34
:10196000128B42F00402074B1A8305E0054A128BE2
:1019700022F00402034B1A8370470000B8020020D3
:101980000002002070020020074A126802F08072F4
:1019900042B100BF4FF060421268002AFAD04FF007
:1019A0006043187070470000FCED00E01FB54FF673
:1019B000FF7400BF601E0400FCD172B600F082F913
:1019C00000F0F0FC1C20294981F82800FFF776FA86
:1019D00000200323CDE9003002900346802224A199
:1019E0000390264801F0CCFF00200323CDE900300E
:1019F00002900346802222A10390244801F0C0FFF8
:101A000000200323CDE90030029003464FF480729A
:101A10001FA10390214801F0B3FF00200323CDE96B
:101A200000300290034680221DA103901F4801F060
:101A3000A7FF00200323CDE9003002900346802257
:101A40001BA103901B4801F09BFF00200323CDE95D
:101A5000003002900346802217A10390184801F03D
:101A60008FFF62B601F0EEFE00BFFEE770020020BD
:101A7000536574526567576F726B000071310008CF
:101A80005365744572726F7200000000512F000898
:101A90004C696E6B50555F53797300009D290008A7
:101AA0004C696E6B524E5F5379730000E12C000855
:101AB0004B657900ED2600084144435F636C6B0081
:101AC0003926000810B504460E48006844600E48E8
:101AD0000068844207D20B480168091D0B48006862
:101AE00001F0DAF90CE007480168091D08480068B0
:101AF00001F0D2F907480068844201D20548046029
:101B000010BD0000300200204402002038020020F6
:101B1000340200206002002070B505460E464420C5
:101B200000F0A4FB044694B11EB9A80000F09EFB8F
:101B300000E030462063206B20B9204601F0F2F926
:101B4000002404E0A900A522206BFEF710FC20462B
:101B500070BD000070B523E001F098FE13480068E6
:101B600008B9012000E00020054602F019F8BDB9CF
:101B700001F0B8F90D48C068C468201D00F048FDA8
:101B80000B480068401E0A4908600A480068401E69
:101B90000849086001F0B6F9204600F00DF800BFD2
:101BA000044800680028D7D170BD00000004002060
:101BB000400200203C02002010B50446206B01F0DA
:101BC000B1F9204601F0AEF910BD00BFFFF7C2FF2A
:101BD000FCE72DE9F04704460F4616469946DDF826
:101BE0002080002507E0795D04F134004155785DDF
:101BF00000B902E06D1C082DF5D300BF00213B2089
:101C00000155032E00D30226E662201D01F041F9A2
:101C100004F1180001F03DF92461C6F10300A06150
:101C20006462BDE8F087000010B5002407E004EB13
:101C300084010F4A02EB810001F01EF9641C032CA1
:101C4000F5D30C4801F018F90B4801F015F90B48D1
:101C500001F012F90A4801F00FF90A4801F00CF9F5
:101C600004480949086004480849086010BD00009C
:101C700088030020C4030020D8030020EC030020C8
:101C80000004002014040020340200203802002048
:101C90000A490968096809B9012100E0002121B158
:101CA0004FF0FF31064A116006E004490968C9682F
:101CB000C8684168024A1160704700003402002081
:101CC0006002002000B5A5B011A8FEF769FD06A8C6
:101CD000FEF76FFD6846FFF7EEF90120FFF7A0F869
:101CE00000BFFFF7BBF80028FBD003210220FEF75E
:101CF000F7FE0120FEF7EEFE00BFFEF711FF002801
:101D0000FBD04FF48070FEF72BFF0120FEF722FF7F
:101D10000020FFF7BDF801210820FFF7BFF80121DF
:101D2000FE48FFF7BBF801214804FFF7B7F8FEF7BC
:101D300067FC002012904FF4003013904000149084
:101D40004000159000201690179011A8FEF708FD8E
:101D50000020069008200790002008900B90022099
:101D6000099000200D900E904FF400400F90072036
:101D7000109006A8FEF70AFCFEF7DCFB0121042008
:101D8000FEF7F6FB1120FEF783FD0120FEF7DCFBDA
:101D900001218803FFF782F8E148FFF7BFF900212E
:101DA000DF48FFF73BF90020ADF86000ADF86200B6
:101DB0004FF6FF70ADF864008020ADF8660000209B
:101DC000ADF868004FF48060ADF86A000020ADF80F
:101DD0006C00ADF86E00ADF87000ADF87200ADF8B3
:101DE0007400ADF8760018A9CD48FFF77CF9012101
:101DF000CB48FFF76EF90121C803FFF74FF8C94838
:101E0000FFF78CF90021C748FFF708F90020ADF86B
:101E1000600042F21070ADF862004FF47A60ADF8E5
:101E200064000020ADF86600ADF86800ADF86A0007
:101E3000ADF86C00ADF86E00ADF87000ADF8720052
:101E4000ADF87400ADF8760018A9B648FFF74BF965
:101E50000F20FEF71DFD01220221B248FFF784F991
:101E60000121B048FFF735F901210804FFF716F802
:101E7000AD48FFF753F90021AB48FFF7CFF800203A
:101E8000ADF80E006946A848FFF7F2F80020ADF85B
:101E90006000ADF862004FF6FF70ADF8640080207E
:101EA000ADF866000020ADF868004FF48060ADF832
:101EB0006A000020ADF86C00ADF86E00ADF870005F
:101EC000ADF87200ADF87400ADF8760018A9964828
:101ED000FFF709F901219448FFF7FBF822A8FEF764
:101EE000EBFD01214020FEF7D9FFC020ADF88800AE
:101EF00003208DF8900001208DF892008DF891005C
:101F000022A98A48FEF7D0FC0420ADF88800012001
:101F10008DF88A0000208DF88E008DF8900022A99F
:101F20008248FEF7C1FC04218048FEF7A9FD00218C
:101F30007F48FFF72DFA7E48FFF758FA0620FEF794
:101F40009BFC4FF4E1301E906020ADF87C0008202F
:101F5000ADF87E000020ADF88000ADF882004FF4AF
:101F60004070ADF884001EA97148FFF763FA06209F
:101F7000FEF78EFC012210216D48FFF752FA012175
:101F80006B48FFF727FA22A8FEF796FD0121802073
:101F9000FEF784FF0320ADF8880002208DF8900042
:101FA00001208DF892008DF8910022A96148FEF77A
:101FB0007BFC00216048FFF7EBF95F48FFF716FA5A
:101FC0000720FEF759FC4FF416501E906020ADF824
:101FD0007C000820ADF87E000020ADF88000ADF850
:101FE00082004FF44070ADF884001EA95248FFF7FC
:101FF00021FA0720FEF74CFC012210214E48FFF782
:1020000010FA01214C48FFF7E5F922A8FEF754FD2C
:102010003920ADF8880000208DF88E0001208DF861
:102020008A0000208DF8900001208DF892008DF834
:10203000910022A93D48FEF737FC39213B48FEF7C5
:102040001FFD0220ADF8880000208DF88E008DF86D
:102050008A0002208DF8900001208DF892008DF802
:10206000910022A93148FEF71FFC4FF4E860ADF85B
:10207000880000208DF88E0001208DF88A00002055
:102080008DF8900001208DF892008DF8910022A922
:102090002A48FEF709FC4FF4E8612848FEF7F0FCF7
:1020A0002020ADF8880000208DF88E008DF88A0081
:1020B0008DF8900001208DF892008DF8910022A9F2
:1020C0001E48FEF7F1FB8020ADF8880000208DF857
:1020D0008E008DF88A0003208DF8900001208DF885
:1020E00092008DF8910022A91448FEF7DDFB012033
:1020F000ADF8880000208DF88E008DF88A008DF8EC
:10210000900001208DF892008DF8910022A90C48D2
:10211000FEF7CAFB0620ADF8880013E00000E023BC
:1021200000000740008007400000084000800A408F
:102130000000034000000C400080034000000B4002
:1021400000800B4000208DF88E0001208DF88A0061
:1021500000208DF8900001208DF892008DF89100FC
:1021600022A93C48FEF7A0FB06213A48FEF788FC6E
:10217000FC20ADF8880000208DF88E008DF88A00D4
:102180008DF890008DF892008DF8910022A93248C8
:10219000FEF78AFB8320ADF8880000208DF88E00C2
:1021A00001208DF88A0000208DF8900001208DF824
:1021B00092008DF8910022A92848FEF775FB832133
:1021C0002648FEF75DFC4820ADF8880000208DF819
:1021D0008E008DF88A008DF8900001208DF8920015
:1021E0008DF8910022A91D48FEF75EFB0420ADF892
:1021F000880000208DF88E008DF88A0003208DF86D
:10220000900001208DF892008DF8910022A91348CA
:10221000FEF74AFB7F20ADF8880000208DF88E0085
:1022200001208DF88A0000208DF8900001208DF8A3
:1022300092008DF8910022A90948FEF735FB6B2129
:102240000748FEF71DFC14210548FEF727FC25B0C2
:1022500000BD000000800B4000000C4000800C40DE
:1022600000800E40FDF7C0FF00BFFEE770B50446DA
:10227000002504F0070020B104F00700C0F10800B9
:10228000044401F003FB1248006820B9114820F013
:1022900007000F49086010480068204442F2F871B6
:1022A000884210D20C48006820440B4909688842D3
:1022B00009D90748006808490968451806480068B0
:1022C00020440549086001F06BFC284670BD000001
:1022D0006C0200203004002068020020001F4FF034
:1022E00080730360001F0160001F034B03601438FC
:1022F00002602038704700006522000810B50146D2
:102300000023002206E0244850F823001044C2B203
:10231000581CC3B2072BF6DB02F15500C2B2002AEB
:1023200038D1D1B91C480068012833D11A48406817
:102330001A4C608020464088174CA46840EA04206C
:10234000164C60801448C0682070134800696070A3
:10235000114840692071012010BD01291AD10E4891
:102360000068022816D10C4840680D4C6080204659
:102370004088094CA46840EA0420094C6080064863
:10238000C06820700448006960700348406920718B
:102390000120E1E70020DFE79C020020D8010020B7
:1023A000DE01002070B50024002572B6002419E07B
:1023B00004F100600121FEF7A8F81149085508460C
:1023C000005D1049095D884205DB0D48005D0E493E
:1023D000095D884204DD0D48005D09490855012565
:1023E000601CC4B2062CE3DB01210948FEF792F819
:1023F0000849086262B60DB100F00EF870BD000029
:1024000000020020CE3E0008C83E0008D43E00086E
:10241000080000087002002010B5002472B60121E7
:10242000C806FEF77CF81748047840784FF47F41DF
:1024300001EA0020044313488078090201EA0040C1
:1024400004431048C078090201EA006004432246B0
:102450000121C806FEF768F80A48047940794FF46C
:102460007F4101EA00200443224601210648FEF78D
:102470005BF80648026A01210348001DFEF754F884
:1024800062B610BD000200200400000870020020A7
:102490002DE9F041064600270025002400F022FD2A
:1024A0005648046A5648844200D90446FF205549DC
:1024B000087046F0FE0048705048008888704F4809
:1024C00000880012C8704D48408808714B48408809
:1024D00000124871494880888871484880880012F5
:1024E000C8714648C08808724448C08800124872C3
:1024F000424800898872414800890012C8723F48EA
:10250000807A08733D48C07A48733C48007B8873E2
:102510003A48407BC8733948C08908743748C08935
:10252000001248743548007C88743448407CC87474
:102530003248408A08753148408A001248752F4851
:10254000808A88752D48808A0012C8752B48C08AF9
:1025500008762A48C08A001248762848008B887678
:102560002648008B0012C8760C77200A4877200C8A
:102570008877200EC87720212248FEF7BBFF074648
:10258000002210212048FEF74CFF04211F48FEF7CF
:1025900085FA002505E01B49485DFEF7B1FE681C81
:1025A000C5B2202DF7DBF8B2FEF7AAFE72B63812DC
:1025B000FEF7A6FE00BF08211348FEF72AFF0028F9
:1025C000F9D104211148FEF75BFA62B602E00E4829
:1025D000FEF788FF10210C48FEF71BFF0028F6D0FD
:1025E00010210948FEF7F2FE012210210648FEF7ED
:1025F00018FF00F087FC0120BDE8F0817002002088
:102600009F860100660300200000034000800A400E
:1026100001460A6988684B68986048688B6858600A
:102620005068884201D188685060002008611068B5
:10263000401E1060106870470025002400BF1E482F
:1026400000780028FBD0FFF7F5F8FFF7B7F8FFF7A1
:102650001BF9FFF763F9FEF7F5FFFEF76BFFFFF7D6
:102660006BF8FFF731F8FEF7CBFFFFF747F9134898
:10267000008912498988484300EB400040F2C2615A
:1026800090FBF1F50D48406AB0F5E16F0FD304EB14
:1026900055040A48006AA04206D20848006A20444D
:1026A00006490862FFF7B8FE00200449486200208E
:1026B00001490870C3E70000F80100207002002003
:1026C0001B22114603A0FDF7BDFD05A0FDF7BAFDD5
:1026D00000BFFEE725635B313B316625635B4A0043
:1026E000537461636B206F766572000000240027CD
:1026F0000025002600BF4021A148FEF7C1F935B1F1
:10270000012D39D0022D6CD0032D34D198E0402119
:102710009B48FEF7C3F901219A48FEF7BFF9022052
:1027200001F066F801219848FEF7A2F910B144F0D3
:10273000010402E04FF6FE70044008219348FEF7C2
:1027400097F910B144F0020402E04FF6FD70044026
:1027500040218E48FEF78CF910B144F0040402E0E9
:102760004FF6FB70044040218548FEF789F90121AE
:102770008448FEF785F992E040218148FEF78EF902
:1027800008218048FEF78AF9022001F031F8012182
:102790007D48FEF76DF910B144F0080402E04FF6F1
:1027A000F770044008217948FEF762F910B144F04F
:1027B000100402E04FF6EF70044040217348FEF72A
:1027C00057F910B144F0200402E04FF6DF700440E6
:1027D00040216B48FEF754F908216A48FEF750F98A
:1027E0005DE04FF480716648FEF758F9052000F06F
:1027F000FFFF01216448FEF73BF910B144F04004AB
:1028000002E04FF6BF70044008216048FEF730F93F
:1028100010B944F0800402E04FF67F70044040217C
:102820005A48FEF725F910B144F4807402E04FF6DF
:10283000FF6004404FF480715148FEF721F92EE00B
:102840004FF400714E48FEF729F9052000F0D0FF43
:1028500001214D48FEF70CF910B944F4007402E070
:102860004FF6FF50044008214848FEF701F910B91F
:1028700044F4806402E04FF6FF30044040214348B6
:10288000FEF7F6F810B144F4006402E04FF2FF7076
:1028900004404FF400713A48FEF7F2F800BF00BF61
:1028A000032D02DA681C85B200E00025A7424ED154
:1028B00037484482408A00F0C00020B9354840883B
:1028C00000F4C07030B13248008B40F40040304911
:1028D000088305E02E48008B20F400402C49088333
:1028E0002B48408A00F4807030B12948008B40F4B6
:1028F00000502749088305E02548008B20F400504C
:10290000234908832248408A00F4007030B12048EF
:10291000008B40F480701E49088305E01C48008B42
:1029200020F480701A4908831948408A00F48060B6
:1029300030B11748008B40F480401549088307E008
:102940001348008B20F480401149088300E027469B
:10295000322000F04DFF1048408800F0200020B9E0
:102960000C48408800F0200040B1701CC6B2282EF0
:102970007FF7C1AE0026FEF7A1FABCE60026BAE654
:1029800000000B4000800A4000800B4000800C409B
:1029900070020020DE010020D8010020002400BFCA
:1029A0000024DAE00020FFF773FD0A2000F020FF8A
:1029B000C348007800287DD00020C1490870FFF787
:1029C0009DFC0028F7D0BF48C08940F48070BD4905
:1029D000C881BD48408800F0080048B10846C07A68
:1029E000282805DA0846C08940F00200C8810EE0B8
:1029F0002021B648FEF744F8B248C08920F0020012
:102A0000B049C8810846C08A20F48050C882AE48C8
:102A1000408800F00100B0B1AA480088B0F5FA7F04
:102A20000BDDA848C08900F48070A649C88108461B
:102A3000C08940F04000C88105E0A248C08940F04C
:102A40000100A049C881A048408800F08000C0B1C2
:102A50009C48008878BB9B48C08900F4027050BB3A
:102A60009848407C40F00100964948740846C08967
:102A700040F40070C8810846C08A20F4C040C88273
:102A800022E09048C08900F40270A0B18D48407CDB
:102A900020F001008B4948740846C08920F4427038
:102AA000C88102218948FDF7EBFF01218748FDF726
:102AB000E7FF01E04FE007E010218548FDF7E0FF68
:102AC00004218448FDF7DCFF7F48408800F00200C5
:102AD000D8B17C48C08900F0C00058B17948C0899D
:102AE00000F480707749C8810846C08940F08000B2
:102AF000C8810AE07348C08900F480707149C881B8
:102B00000846C08940F01000C8816F48408800F036
:102B1000400078B16B48C08900F0400050B169486E
:102B2000808A49F22F01084040B902216948FDF727
:102B3000B5FF03E002216748FDF7A2FF6248007875
:102B4000404200F07F005F49C8835F48407800F052
:102B50007F00888304E0601CC4B20A2CFFF622AF19
:102B600000BF092C05DD5748C08920F48070554905
:102B7000C8810024A0E00120FFF78AFC0A2000F0B1
:102B800037FE4F48007800287DD000204C4908705F
:102B90000120FFF7B3FB002875D04A48C08900F434
:102BA0008070002870D120214848FDF769FF4A480D
:102BB000408800F0040028B14FF480614748FDF7D9
:102BC0006DFF04E04FF480614448FDF759FF42482F
:102BD000408800F0080018B101203A49887602E0E8
:102BE0000020384988763C48408800F00100B0B1A8
:102BF00034480088B0F5FA7F0BDD3248C08900F018
:102C000040003049C8810846C08940F04000C88172
:102C100005E02C48C08940F001002A49C8812E48AF
:102C2000408800F00200D8B12648C08900F0C000FA
:102C300058B12448C08900F080002249C881084664
:102C4000C08940F08000C8810AE01E48C08900F0B9
:102C500010001C49C8810846C08940F01000C88196
:102C60001D48408800F0400090B11648C08900F02F
:102C7000400068B11348808A49F22F01084058B9D2
:102C80000221144801E015E013E0FDF707FF03E01F
:102C900002211048FDF7F4FE0F48007800F07F0095
:102CA000C0F180000749C8830B48407800F07F00DE
:102CB000888304E0601CC4B2052CFFF65CAF6FE6AD
:102CC000FD01002070020020D801002000800E408D
:102CD00000800A4000800B40DE01002000000B4015
:102CE0000EB500BF00250026002401208DF800004D
:102CF00000BF0026B2E04FF4FA7000F079FD5948A9
:102D0000007803280DDD0020564908705648008BD6
:102D100020F40070544908835448408A544948625A
:102D200010E05148008840F68C2188420ADD4E4868
:102D3000C08900F0400028B14B48008B40F400707F
:102D4000494908834848808BC0F18000642148438A
:102D50004FF4887190FBF1F726B1012E27D0022E97
:102D600078D149E006208DF8010000208DF802009E
:102D70008DF803008DF8040007F1B500C0B28DF89E
:102D8000050006216846FEF7B5FB054628128DF8BA
:102D90000600E8B28DF80700002405E01DF80400E5
:102DA000FEF7DEFA601CC4B2082CF7DB53E0062005
:102DB0008DF8010000208DF8020001208DF803003D
:102DC00000208DF80400C8208DF805000621684613
:102DD000FEF790FB054628128DF80600E8B28DF844
:102DE0000700002405E01DF80400FEF7B9FA601C96
:102DF000C4B2082CF7DB2EE00F208DF80100002074
:102E00008DF8020002208DF8030000208DF80400E8
:102E100004208DF8050001208DF806001548006893
:102E2000C0B28DF8070008216846FEF763FB05462F
:102E300028128DF80800E8B28DF80900002405E09A
:102E40001DF80400FEF78CFA601CC4B20A2CF7DBF4
:102E500001E0FFE700BF00BF701CC6B2032EBFF643
:102E600048AF48E7FF01002070020020A83E00089C
:102E70001C030020F401002000F1080141604FF024
:102E8000FF31816000F10801C16001610021016032
:102E9000704700210161704710B502460B685C1C49
:102EA0000CB9106907E002F1080000E040684468CE
:102EB00024689C42FAD944684C604C68A1608860E0
:102EC00041600A611468641C146010BD42684A6065
:102ED00093688B60936859609160086103685B1C1C
:102EE0000360704710B5FDF77FF905480068401C86
:102EF00003490860BFF34F8FBFF36F8F10BD000011
:102F00002802002010B506480068401E04490860E9
:102F10000846006810B90020FDF76DF910BD0000EB
:102F20002802002070474FF6FF104FF0E021486163
:102F300007200861704700004FF080500349086087
:102F4000BFF34F8FBFF36F8F7047000004ED00E0B9
:102F5000FDF7B4FF00BF4FF47A7000F049FCFDF7B5
:102F600065FCFDF735FC0024F1E07B4850F82400B7
:102F7000002873D17948C08900F010000028F8D1EA
:102F80007648C07A142869DD7448808A0121A140FE
:102F90000843724988820846407C40F00200487429
:102FA000102C73D2DFE804F00820273C404F5B73FD
:102FB000777BCFCF7C8E92A66848C08920F04000F6
:102FC0006649C8810846C08940F08000C88108462B
:102FD000C08A40F08000C88202216148FDF750FDA0
:102FE000012060490870AFE05C48C08920F04000D3
:102FF0005A49C881A8E05948807E80B95748C0899D
:1030000000F0400058B155488088B0F5A17F03DA40
:1030100002215348FDF734FD01205249087093E026
:103020000120504908708FE04C48C08900F480703E
:103030004A49C8810846C08940F01000C881012073
:103040004849087080E00120464908704348807E66
:1030500018B902214248FDF713FD75E075E03F48BD
:10306000807E78B93D48C08900F480703B49C881B2
:103070000846C08940F08000C8810846C08A40F0F8
:103080008000C8820120374908705DE05BE00120C4
:103090003449087058E001203249087054E053E088
:1030A0002E48407C40F008002C49487401202D49EE
:1030B00008702A48007C0F2803DC02212848FDF70D
:1030C000DFFC41E00120274908703DE0012025494F
:1030D00008702248C08900F480702049C8810846E1
:1030E000C08940F08000C8810846C08A40F0800056
:1030F000C88229E002211A48FDF7C2FC1748C0899E
:1031000000F480701549C8810846C08940F010005D
:10311000C88102211448FDF7B3FC01211248FDF7D4
:10312000AFFC10211148FDF7ABFC04210C48FDF762
:10313000A7FC0A48407C40F004000849487401207C
:103140000849087000E000BF00BF601CC4B2102C2A
:10315000BFF601AF09E700001C0300207002002049
:1031600000800B40FC01002000800E4000800A40DF
:103170000025002400BFFE48007800F0010070B177
:103180000020FB4908700421FA48FDF779FC4FF450
:103190007A7000F02DFB0421F648FDF77FFCF4481F
:1031A000007800F0020068B10020F1490870102199
:1031B000F048FDF765FCC82000F01AFB1021ED482F
:1031C000FDF76CFCEA48007800F0040070B10020C4
:1031D000E74908701021E748FDF752FC4FF4FA6008
:1031E00000F006FB1021E348FDF758FCE0480078AA
:1031F00000F0080010B10020DD490870DC480078BC
:1032000000F0400010B10020D9490870DA48C089A8
:1032100000F00100002856D0D748008864284CDA16
:103220000121D648FDF73AFC1021D248FDF728FCD1
:1032300040F6B83000F0DCFA0121D048FDF720FC60
:1032400040F6B83000F0D4FA1021CA48FDF726FC49
:103250000A2000F0CDFA0221C848FDF71FFC042126
:10326000C448FDF70DFC4FF4FA7000F0C1FA0421D8
:10327000C048FDF713FCC048C08A40F40070BE4946
:10328000C8820846C08920F00100C8810846C0896C
:1032900000F01000B8B90846C08940F00400C881A9
:1032A0000025B748408AB7494862B348008850B9FA
:1032B0000821B048FDF7F2FB05E0AF48C08920F0D7
:1032C0000100AD49C881AC48C08900F0020088B156
:1032D000A948C08A40F48050A749C882A948006B19
:1032E00020B92021A348FDF7CBFB03E02021A14812
:1032F000FDF7D4FBA048C08900F0040000287CD072
:10330000032D7BDA9C480088C82844DD08219948B1
:10331000FDF7B6FB04209C4908609748C07A462810
:103320000BDA9548C08920F007009349C881084608
:10333000C08940F02000C88126E00FE004218D48BC
:10334000FDF79EFB4FF4C87000F052FA0421894843
:10335000FDF7A4FB4FF4FA6000F04AFA86480088B3
:10336000B0F52F6F05DA8448C08900F0040000280A
:10337000E4D18148C08920F007007F49C881084610
:10338000C08940F04000C8817B48C08A40F20621D5
:1033900088437949C8827B48406AB8B90821754892
:1033A000FDF76EFB7448C08A20F400707249C88231
:1033B0000846C08A40F00400C8827148408A7149BA
:1033C00048626F4880888860681CC5B26D48806814
:1033D00098B96B4880886B4988606748008818B93D
:1033E00008216448FDF75AFB6348C08A40F4007026
:1033F0006149C8820846C08A01E028E007E020F061
:103400000400C8825E48408A5E4948621FE0082185
:103410005848FDF735FB5A4880885A498860584813
:10342000408A48625448C08A40F206218843524983
:10343000C8820846808A40F0020088820846C08917
:1034400000F48070C88101214C48FDF727FB4A48F1
:10345000C08900F0080058B14748C07A462807DD07
:1034600001214448FDF70CFB04214848FDF708FB07
:103470004148C08900F0100000285AD03E48C08959
:103480004FF6EF6188433C49C88102213948FDF776
:10349000F7FA01213748FDF7F3FA10213C48FDF710
:1034A000EFFA04213948FDF7EBFA02213748FDF71E
:1034B000E7FA08203449086008212E48FDF7E0FAB1
:1034C00010212C48FDF7DCFA4FF47A6000F090F9F7
:1034D00010212848FDF7E2FA4FF47A7000F088F9DD
:1034E00002212648FDF7CCFA4FF4FA5000F080F99B
:1034F000002421480088B0F5C87F09DA00201E4961
:103500000883C8820846C08900F48070C88110E032
:103510001948C08900F480701749C8810020C8820A
:103520000846008B40F40060088301211348FDF732
:10353000B5FA1148C08900F0200058B30E48C07A8F
:1035400046283ADD0FE004210A48FDF799FA4FF4C6
:10355000C87000F04DF904210648FDF79FFA4FF4BA
:10356000FA6000F045F904480088B0F52F6F12E0CA
:10357000FE01002000800E407002002000800C4000
:10358000883E0008DC020020F401002000800B408F
:1035900000800A4011E005DA8F48C08900F0200061
:1035A0000028D0D18C48C08920F020008A49C881E9
:1035B0000846C08940F04000C8818748C08900F0B3
:1035C0004000D0B38448C08BA04212D2002682486B
:1035D000C08B201AC6B28048C48B10217F48FDF7EB
:1035E0004FFAF00000F004F910217C48FDF756FA7C
:1035F00000BF7948C08BA04217D977480088B0F542
:10360000486F12DA00267448C08B001BC6B272489D
:10361000C48B04217148FDF733FAF00000F0E8F89C
:1036200004216E48FDF73AFA00BF6B48808A00F427
:10363000D87010B904206A4908606748C08900F052
:103640008000C0B302216748FDF71AFA624800887B
:10365000B0F52F6F0FDD10216048FDF711FA4FF420
:10366000FA7000F0C5F810215C48FDF717FA40F237
:10367000DC5000F0BDF85848C07A6E281CDD564872
:10368000C08A40F010005449C8825748006990B978
:103690000846C08900F48070C8810846C08940F09F
:1036A0001000C8810846C08A20F01000C8824F4828
:1036B00040894D4948611BE04748C08A40F480601A
:1036C0004549C8824848806A90B90846C08900F4D4
:1036D0008070C8810846C08940F01000C881084643
:1036E000C08A20F48060C8824048808A3E4988624F
:1036F0003948C08900F40070F0B33748408A00F0C0
:10370000040068B904213748FDF7C8F9022133489D
:10371000FDF7C4F93048C08A40F400502E49C882F1
:103720003148406B48B901212C48FDF7B7F92A48C8
:10373000C08A40F480402849C8822B48806B20B161
:103740002548408A00F00800B0B102212348FDF767
:1037500097F92148408A00F0080090B11E48C08ABD
:1037600020F4C0401C49C8820846C08920F400707B
:10377000C8810846C08900E018E040F00800C88110
:1037800014E001211548FDF77BF904211548FDF7E8
:1037900077F91148C08900F480700F49C881134837
:1037A000408B114948631148808B88630A48C0895F
:1037B00000287FF4E0AC0848808A0028F9D1064848
:1037C0000088B0F57A7F7FF7D6AC0348C08940F017
:1037D00040000149C881CEE47002002000800E4004
:1037E000F401002000800B40DC020020883E00082D
:1037F00070B504460026DCB100F048F80E480068B9
:1038000005190E480068001DFEF702FF50B90B486D
:10381000006890F82C10012088400949096881430C
:10382000074801602846FEF74DF900F0B9F9064651
:103830000EB9FFF781FB70BD44020020300200206A
:10384000480200201FB5002000900190029003461E
:10385000802209A103900A4800F092F80446012C46
:1038600009D1FCF7C1FC0120064908600020064987
:10387000086000F06BF81FBD49444C450000000093
:10388000CB1B00084C0200204402002002480068C4
:10389000401C0149086070476402002010B52148AF
:1038A000006818B101202049086039E000201E4955
:1038B00008601E48006800681C490968096B884256
:1038C00005D81A48016834310068FEF7F9FE174937
:1038D00009681422086B1649FCF71DFD28B113482E
:1038E000016834310068FEF7EBFE12480068B0FA58
:1038F00080F0C0F11F0101EB81020F4B03EB82004E
:10390000426852684260436800F10802934202D163
:103910004268526842604268D268044B1A6000BF35
:1039200010BD00006402002054020020300200207C
:10393000DA3E0008480200208803002002480068A0
:1039400042F2F871081A70476802002010B50A4860
:10395000006840F47F00084908600846006840F0AD
:103960007F400860FFF7DFFA002004490860FCF799
:103970000BFC002010BD000020ED00E0280200201C
:103980002DE9FF4F81B0804615469946DDE90E7A54
:1039900028461099FEF7C0F80446002C52D0681E45
:1039A000216B01EB800B2BF0070B00953A4620466C
:1039B000119B0299FEF70DF94A4641465846FEF71B
:1039C0008DFC2060BAF1000F01D0CAF80040FFF76B
:1039D00089FA25480068401C23490860234800688C
:1039E00040B9224804600846006801280CD1FEF75F
:1039F0001BF909E01E48006830B91C480068C06A1D
:103A0000B84201D8194804601A480068401C194996
:103A1000086008460068E06394F82C100120884094
:103A200015490968084314490860E16A01EB8101FE
:103A3000124A02EB8100211DFFF748FA0126FFF729
:103A400061FA01E04FF0FF36012E09D10848006805
:103A500030B106480068C06AB84201D2FFF76CFA7C
:103A6000304605B0BDE8F08F400200203002002053
:103A70004C0200205C020020480200208803002045
:103A80002DE9F04100273B480068002865D13A48FD
:103A90000068401C38490860084606688EB93748F7
:103AA000D0F8008036480068344908603448C0F8CF
:103AB000008034480068401C32490860FEF7E8F88E
:103AC00000BF3148006886423BD300BF2B480068E6
:103AD000006808B9012000E0002020B14FF0FF305D
:103AE000294908602CE025480068C068C4686568FA
:103AF000AE4202D22448056022E0201DFEF788FD78
:103B0000A06A18B104F11800FEF782FD94F82C1099
:103B1000012088401D49096808431C490860E16A82
:103B200001EB81011A4A02EB8100211DFFF7CEF95A
:103B30001849E06A0968C96A8842C7D30127C5E7FE
:103B400000BF14480068C06A00EB8000104951F8BB
:103B50002000012806D9012704E00F480068401C16
:103B60000D4908600D48006800B101273846BDE8DE
:103B7000F081000064020020440200203402002092
:103B80003802002058020020600200204802002075
:103B90008803002030020020500200205402002040
:103BA00070B50025FFF79EF92C480068401E2B4990
:103BB00008600846006800284BD1294800680028A2
:103BC00047D024E02748C068C46804F11800FEF715
:103BD0001FFD201DFEF71CFD94F82C1001208840CD
:103BE00021490968084320490860E16A01EB810125
:103BF0001E4A02EB8100211DFFF768F91C49E06AAB
:103C00000968C96A884202D301201A490860154828
:103C1000006808B9012000E000200028D2D0164832
:103C2000006878B10AE0FFF72BFF10B101201149BD
:103C3000086011480068401E0F4908600E4800687F
:103C40000028F0D10B480068012802D10125FFF7B8
:103C500073F9FFF757F9284670BD00006402002091
:103C600040020020EC0300204802002088030020CE
:103C70003002002054020020500200204D617220CA
:103C8000313120323031360000C1814001C08041E5
:103C900001C0804100C1814001C0804100C181401C
:103CA00000C1814001C0804101C0804100C181400C
:103CB00000C1814001C0804100C1814001C08041FC
:103CC00001C0804100C1814001C0804100C18140EC
:103CD00000C1814001C0804100C1814001C08041DC
:103CE00001C0804100C1814000C1814001C08041CC
:103CF00001C0804100C1814001C0804100C18140BC
:103D000000C1814001C0804101C0804100C18140AB
:103D100000C1814001C0804100C1814001C080419B
:103D200001C0804100C1814000C1814001C080418B
:103D300001C0804100C1814001C0804100C181407B
:103D400000C1814001C0804100C1814001C080416B
:103D500001C0804100C1814001C0804100C181405B
:103D600000C1814001C0804101C0804100C181404B
:103D700000C1814001C0804100C1814001C080413B
:103D800001C0804100C1814000C0C101C30302C223
:103D9000C60607C705C5C404CC0C0DCD0FCFCE0E8B
:103DA0000ACACB0BC90908C8D81819D91BDBDA1AFB
:103DB0001EDEDF1FDD1D1CDC14D4D515D71716D66B
:103DC000D21213D311D1D010F03031F133F3F232DB
:103DD00036F6F737F53534F43CFCFD3DFF3F3EFE4B
:103DE000FA3A3BFB39F9F83828E8E929EB2B2AEABB
:103DF000EE2E2FEF2DEDEC2CE42425E527E7E6262B
:103E000022E2E323E12120E0A06061A163A3A2629A
:103E100066A6A767A56564A46CACAD6DAF6F6EAE0A
:103E2000AA6A6BAB69A9A86878B8B979BB7B7ABA7A
:103E3000BE7E7FBF7DBDBC7CB47475B577B7B676EA
:103E400072B2B373B17170B050909151935352925A
:103E500096565797559594549C5C5D9D5F9F9E5ECA
:103E60005A9A9B5B99595898884849894B8B8A4A3A
:103E70004E8E8F4F8D4D4C8C4484854587474686AA
:103E80008242438341818040050001001E00010001
:103E9000B4001400B4000A0004000F001E003C002F
:103EA0002C0128001E000100010001000A0006008C
:103EB0000300030005001E0005000A0001000100C8
:103EC0000300050005000300323201FF0101010F6C
:103ED00001EB0101010F01F50101A5A5A5A5A5A50E
:103EE000A5A5A5A5A5A5A5A5A5A5A5A5A5A50000CC
:103EF000203F000800000020D0010000FC00000866
:103F0000F0400008D0010020A0000000FC000008E4
:103F100090410008700200201830000018010008CD
:103F200008B5009002E00099491E0091009900290F
:103F3000F9D108BD70B502460B466B486B4E306137
:103F40003046006800F03800411C012B01D15802B6
:103F500000E00020014365480160426041F4E070E8
:103F6000624E30603046C0683046C0683046C06837
:103F70003046C56801F038010160002030619007CB
:103F8000C40EE540E8B270BD30B502460B46564C53
:103F9000564D2C612C46246804F03804611C012B1A
:103FA00001D15C0200E000242143504C216062609A
:103FB00041F4E0744D4D2C602C46E4682C46E468D6
:103FC0002C46E4682C46E06801F0380121600024AA
:103FD0002C6130BD2DE9F04106460F464248434969
:103FE00008610846006800F03800441C012F01D128
:103FF000481500E0002004433C480460002522E00E
:1040000070193A4948600020886044F48864084682
:1040100004600520FFF784FF44F400543348046033
:1040200049F64040FFF77CFF24F480642F48046089
:104030000520FFF775FF24F401542C48046001208B
:10404000FFF76EFF2D1D102DDAD304F0380427483A
:104050000460002025490861BDE8F0812DE9F041A8
:1040600006460D461746204820490861012D01D11A
:10407000481500E0002005461C48006800F03804A0
:1040800045F001000443194804604660876044F429
:10409000825404600520FFF743FF44F400541348A2
:1040A00004600A20FFF73CFF44F080040F480460DE
:1040B0002820FFF735FF24F080040C48046024F426
:1040C000805404600520FFF72BFF24F401540748B7
:1040D00004600120FFF724FF04F038000349086062
:1040E00000200861BDE8F0815155AA8A0080014096
:1040F00000000000000000000000000000000000C0
:1041000000000000000000000000000000000000AF
:104110000000000008000000000000000000000097
:104120000000000000008E00000000000000000001
:104130000000000000000000001E00000000000061
:10414000000000000090D003AAAAAAAA0000000064
:10415000000000000000000000000000000000005F
:10416000000000000000000000000000000000004F
:10417000000000000000000000000000000000003F
:10418000FFFFFFFF00000000000000000000000033
:04000005080000C12E
:00000001FF
