:1000000079C093C092C091C055C98FC08EC08DC0B9
:100010008CC007C98AC089C088C087C086C085C017
:1000200084C083C082C081C080C0E1C8DEC8DBC894
:10003000D8C8BDC8D4C8D1C8CEC8CBC835C8C7C8B1
:10004000B8C8C1C831C8BDC82FC8B3C82DC8B3C847
:10005000B6C8B3C8ACC8DDC8DAC8D7C8D4C8D1C818
:10006000CEC8CBC821C8C7C8C4C8AFC8202020C3C9
:10007000CED2CEC2CDCED1D2DC202020002020CDC9
:10008000C5D220D2CECFCBC8C2C020202000202095
:1000900020D2CEC6203C2038204320202020002023
:1000A0002020D2CEC6203C20333720432020200001
:1000B00020C3CED2CEC2CDCED1D2DC20CCD3202014
:1000C00000C7C0D9C8D2C020CED2CACBDED7C5CDDA
:1000D000C0002020CED2CAC0C720CBDECAC020209C
:1000E000202000CDC8C7CAC0DF20C8C7CECBDFD60E
:1000F000C8DF200011241FBECFE5D2E0DEBFCDBF98
:1001000011E0A0E6B0E0E0E9F3E102C005900D9255
:10011000A03DB107D9F712E0A0EDB1E001C01D92FA
:10012000A831B107E1F73ED731C96ACFADE0B2E0FF
:10013000FD0190E08191980F82E0E731F807D1F757
:1001400080910C0289130895809105028F5F80933E
:100150000502E2EEF1E08D91819382E0A731B807CC
:10016000D1F784E18093F30188EC8093F401089542
:1001700081B1887F803609F181B1887F803861F054
:1001800081B1887F883A11F181B1887F883B51F134
:1001900086B7806886BF08959091D50183B1E92F15
:1001A000F0E0E45FFD4F8083992371F091509093CC
:1001B000D50186B7806886BF08958AE08093D5010F
:1001C00086B7806886BF0895B1DFE2CF8AE080936A
:1001D000DE0110920B028091030283B986B780681A
:1001E00086BF0895E091DE01EE2339F48091F90194
:1001F00083B981E080930B02CBCFE150E093DE0125
:10020000F0E0E750FE4F808183B9C2CF1092F90130
:10021000EAEFF1E081919091F901890F8093F90162
:1002200082E0E430F807B1F708958091D801809317
:10023000000283E08093FF0184E08093FE018FE061
:100240008093FD0180E18093FC0181E18093FB01BB
:100250008091ED018093FA0108958436910528F18B
:10026000FC01E456F040CF0164E670E07BD89C01CD
:10027000CF0164E670E076D86F5C6093EE012A30BF
:100280003105B0F0F9013A97CF016AE070E06AD821
:100290009C01CF016AE070E065D86F5C6093EF016C
:1002A000822F805D8093F00108959C0160E3E5CF8B
:1002B00060E3F4CF9091D001B29913C0892F81608F
:1002C000B3990DC08260B49908C08460891711F495
:1002D0008093ED018093D00108958B7FF7CF8D7FC0
:1002E000F2CF892F8E7FECCF282F83EF91E0A89556
:1002F00001973FEF8F3F9307D1F78FE18FB983E6E7
:1003000090E0A89501973FEF8F3F9307D1F784E2E4
:100310008FB983E690E0A89501973FEF8F3F930751
:10032000D1F72FB983E690E0A89501972FEF8F3F83
:100330009207D1F71FB883E690E0A89501973FEFA9
:100340008F3F9307D1F76FB983E690E0A8950197A7
:100350002FEF8F3F9207D1F71FB80895C0988FED08
:1003600096EEABE0B0E0A8950197A109B109D8F7E6
:10037000C09A80E090E0A895019623E18838920722
:10038000D1F78BE18FB980E090E0A895019623E149
:1003900088389207D1F784E78FB980E090E0A8957C
:1003A000019623E188389207D1F781E18FB980E087
:1003B00090E0A895019623E188389207D1F78CE068
:1003C0008FB90895803C08F080542FE831E0A8955B
:1003D000215030409FEF2F3F3907C9F78FB908955B
:1003E000C09880E490E0A89501972FEF8F3F920787
:1003F000D1F7C09A87EB9BE0A89501972FEF8F3F2D
:100400009207D1F78BE18FB98BED95E0A895019715
:100410002FEF8F3F9207D1F784E78FB983E690E003
:10042000A89501972FEF8F3F9207D1F781E18FB900
:1004300083E690E0A89501972FEF8F3F9207D1F7C1
:100440008CE08FB90895CF93DF9380E060E04CDFBC
:10045000C2EED1E0888190E000DF83EF91E0A895C3
:1004600001972FEF8F3F9207D1F78091EE018FB95F
:1004700083EF91E0A89501972FEF8F3F9207D1F777
:100480008091EF018FB983EF91E0A89501972FEF4D
:100490008F3F9207D1F78091F0018FB9219681E0CB
:1004A000C73ED807B9F680E061E01EDF888190E0A2
:1004B000D4DE83EF91E0A89501972FEF8F3F92074D
:1004C000D1F78091EE018FB983EF91E0A895019764
:1004D0002FEF8F3F9207D1F78091EF018FB983EF14
:1004E00091E0A89501972FEF8F3F9207D1F7809168
:1004F000F0018FB9219681E0CC3ED807B9F6DF91A3
:10050000CF9108950F931F93DF93CF93CDB7DEB7AD
:1005100029970FB6F894DEBF0FBECDBF8E010F5FD7
:100520001F4FD801E0E6F0E089E001900D92815084
:10053000E1F760E0D9DE20E030E283EF91E0A895BA
:1005400001974FEF8F3F9407D1F73FB92F5F2430CA
:10055000A1F7F8019E01275F3F4F83EF91E0A89537
:1005600001974FEF8F3F9407D1F78081803C08F0CF
:1005700080548FB93196E217F30779F720E030E223
:1005800083EF91E0A89501974FEF8F3F9407D1F744
:100590003FB92F5F2430A1F729960FB6F894DEBF3C
:1005A0000FBECDBFCF91DF911F910F91089580E0D5
:1005B00060E09ADEEDE7F0E083EF91E0A895019727
:1005C0002FEF8F3F9207D1F78491803C08F0805441
:1005D0008FB9319680E0ED38F80771F7089580E023
:1005E00060E082DEEEE8F0E083EF91E0A89501970D
:1005F0002FEF8F3F9207D1F78491803C08F0805411
:100600008FB9319680E0EE39F80771F7089580E0F0
:1006100060E06ADEEFE9F0E083EF91E0A8950197F2
:100620002FEF8F3F9207D1F78491803C08F08054E0
:100630008FB9319680E0EF3AF80771F7089580E0BE
:1006400060E052DEE1ECF0E083EF91E0A8950197E5
:100650002FEF8F3F9207D1F78491803C08F08054B0
:100660008FB9319680E0E13DF80771F7089580E099
:1006700060E03ADEE2EDF0E083EF91E0A8950197CB
:100680002FEF8F3F9207D1F78491803C08F0805480
:100690008FB9319680E0E23EF80771F7089580E067
:1006A00060E022DEE3EEF0E083EF91E0A8950197B1
:1006B0002FEF8F3F9207D1F78491803C08F0805450
:1006C0008FB9319680E0E33FF80771F708950F93F3
:1006D0001F93DF93CF93CDB7DEB761970FB6F89432
:1006E000DEBF0FBECDBF8E010F5F1F4FD801E9E601
:1006F000F0E081E101900D928150E1F760E0F4DDDE
:10070000F8019E012F5E3F4F83EF91E0A89501977E
:100710004FEF8F3F9407D1F78081803C08F08054E1
:100720008FB93196E217F30779F761960FB6F8940F
:10073000DEBF0FBECDBFCF91DF911F910F91089506
:100740000F931F93DF93CF93CDB7DEB761970FB6AB
:10075000F894DEBF0FBECDBF8E010F5F1F4FD801D3
:10076000EAE7F0E081E101900D928150E1F760E06D
:10077000BBDDF8019E012F5E3F4F83EF91E0A8950E
:1007800001974FEF8F3F9407D1F78081803C08F0AD
:1007900080548FB93196E217F30779F761960FB657
:1007A000F894DEBF0FBECDBFCF91DF911F910F91A7
:1007B00008950F931F93DF93CF93CDB7DEB7619763
:1007C0000FB6F894DEBF0FBECDBF8E010F5F1F4F77
:1007D000D801EBE8F0E081E101900D928150E1F762
:1007E00060E082DDF8019E012F5E3F4F83EF91E0D4
:1007F000A89501974FEF8F3F9407D1F78081803CF8
:1008000008F080548FB93196E217F30779F76196B3
:100810000FB6F894DEBF0FBECDBFCF91DF911F9111
:100820000F9108950F931F93DF93CF93CDB7DEB74A
:1008300062970FB6F894DEBF0FBECDBF8E010F5F7B
:100840001F4FD801ECE9F0E082E101900D92815058
:10085000E1F760E049DDF8019E012F5E3F4F83EF35
:1008600091E0A89501974FEF8F3F9407D1F78081D2
:10087000803C08F080548FB93196E217F30779F77E
:1008800062960FB6F894DEBF0FBECDBFCF91DF9159
:100890001F910F9108950F931F93DF93CF93CDB7BF
:1008A000DEB762970FB6F894DEBF0FBECDBF8E01E4
:1008B0000F5F1F4FD801EEEAF0E082E101900D9248
:1008C0008150E1F760E010DDF8019E012F5E3F4F9F
:1008D00083EF91E0A89501974FEF8F3F9407D1F7F1
:1008E0008081803C08F080548FB93196E217F3077D
:1008F00079F762960FB6F894DEBF0FBECDBFCF91E9
:10090000DF911F910F9108950F931F93DF93CF9362
:10091000CDB7DEB762970FB6F894DEBF0FBECDBF7E
:100920008E010F5F1F4FD801E0ECF0E082E10190F3
:100930000D928150E1F760E0D7DCF8019E012F5E57
:100940003F4F83EF91E0A89501974FEF8F3F9407BA
:10095000D1F78081803C08F080548FB93196E2173E
:10096000F30779F762960FB6F894DEBF0FBECDBFDE
:10097000CF91DF911F910F9108950F931F93DF93F4
:10098000CF93CDB7DEB762970FB6F894DEBF0FBE38
:10099000CDBF8E010F5F1F4FD801E2EDF0E082E185
:1009A00001900D928150E1F760E09EDCF8019E011C
:1009B0002F5E3F4F83EF91E0A89501974FEF8F3F58
:1009C0009407D1F78081803C08F080548FB931962C
:1009D000E217F30779F762960FB6F894DEBF0FBE01
:1009E000CDBFCF91DF911F910F9108950F931F936A
:1009F000DF93CF93CDB7DEB762970FB6F894DEBF23
:100A00000FBECDBF8E010F5F1F4FD801E4EEF0E0A7
:100A100082E101900D928150E1F760E065DCF80120
:100A20009E012F5E3F4F83EF91E0A89501974FEF16
:100A30008F3F9407D1F78081803C08F080548FB9B4
:100A40003196E217F30779F762960FB6F894DEBF96
:100A50000FBECDBFCF91DF911F910F91089580E020
:100A600060E042DCECE6F0E083EF91E0A8950197CE
:100A70002FEF8F3F9207D1F78491803C08F080548C
:100A80008FB9319680E0EC37F80771F708950F932E
:100A90001F93DF93CF93CDB7DEB763970FB6F8946C
:100AA000DEBF0FBECDBF8E010F5F1F4FD801E6EF37
:100AB000F0E083E101900D928150E1F760E014DCF9
:100AC000F8019E012F5E3F4F83EF91E0A8950197BB
:100AD0004FEF8F3F9407D1F78081803C08F080541E
:100AE0008FB93196E217F30779F763960FB6F8944A
:100AF000DEBF0FBECDBFCF91DF911F910F91089543
:100B00000F931F93DF93CF93CDB7DEB762970FB6E6
:100B1000F894DEBF0FBECDBF8E010F5F1F4FD8010F
:100B2000E9E0F1E082E101900D928150E1F760E0AF
:100B3000DBDBF8019E012F5E3F4F83EF91E0A8952C
:100B400001974FEF8F3F9407D1F78081803C08F0E9
:100B500080548FB93196E217F30779F762960FB692
:100B6000F894DEBF0FBECDBFCF91DF911F910F91E3
:100B700008950F931F93DF93CF93CDB7DEB762979E
:100B80000FB6F894DEBF0FBECDBF8E010F5F1F4FB3
:100B9000D801EBE1F1E082E101900D928150E1F7A3
:100BA00060E0A2DBF8019E012F5E3F4F83EF91E0F2
:100BB000A89501974FEF8F3F9407D1F78081803C34
:100BC00008F080548FB93196E217F30779F76296EF
:100BD0000FB6F894DEBF0FBECDBFCF91DF911F914E
:100BE0000F9108950F931F93DF93CF93CDB7DEB787
:100BF00062970FB6F894DEBF0FBECDBF8E010F5FB8
:100C00001F4FD801EDE2F1E082E101900D92815099
:100C1000E1F760E069DBF8019E012F5E3F4F83EF53
:100C200091E0A89501974FEF8F3F9407D1F780810E
:100C3000803C08F080548FB93196E217F30779F7BA
:100C400062960FB6F894DEBF0FBECDBFCF91DF9195
:100C50001F910F9108950F931F93DF93CF93CDB7FB
:100C6000DEB761970FB6F894DEBF0FBECDBF8E0121
:100C70000F5F1F4FD801EFE3F1E081E101900D928A
:100C80008150E1F760E030DBF8019E012F5E3F4FBD
:100C900083EF91E0A89501974FEF8F3F9407D1F72D
:100CA0008081803C08F080548FB93196E217F307B9
:100CB00079F761960FB6F894DEBF0FBECDBFCF9126
:100CC000DF911F910F9108950F931F93DF93CF939F
:100CD000CDB7DEB761970FB6F894DEBF0FBECDBFBC
:100CE0008E010F5F1F4FD801E0E5F1E081E1019037
:100CF0000D928150E1F760E0F7DAF8019E012F5E76
:100D00003F4F83EF91E0A89501974FEF8F3F9407F6
:100D1000D1F78081803C08F080548FB93196E2177A
:100D2000F30779F761960FB6F894DEBF0FBECDBF1B
:100D3000CF91DF911F910F9108950F931F93DF9330
:100D4000CF93CDB7DEB762970FB6F894DEBF0FBE74
:100D5000CDBF8E010F5F1F4FD801E1E6F1E082E1C8
:100D600001900D928150E1F760E0BEDAF8019E013A
:100D70002F5E3F4F83EF91E0A89501974FEF8F3F94
:100D80009407D1F78081803C08F080548FB9319668
:100D9000E217F30779F762960FB6F894DEBF0FBE3D
:100DA000CDBFCF91DF911F910F9108950F931F93A6
:100DB000DF93CF93CDB7DEB761970FB6F894DEBF60
:100DC0000FBECDBF8E010F5F1F4FD801E3E7F1E0EB
:100DD00081E101900D928150E1F760E085DAF80140
:100DE0009E012F5E3F4F83EF91E0A89501974FEF53
:100DF0008F3F9407D1F78081803C08F080548FB9F1
:100E00003196E217F30779F761960FB6F894DEBFD3
:100E10000FBECDBFCF91DF911F910F91089580E05C
:100E200060E062DAEFEBF1E083EF91E0A8950197E3
:100E30002FEF8F3F9207D1F78081803C08F08054DC
:100E40008FB9319681E0EF3CF80771F708950F9361
:100E50001F93DF93CF93CDB7DEB762970FB6F894A9
:100E6000DEBF0FBECDBF8E010F5F1F4FD801E4E87C
:100E7000F1E082E101900D928150E1F760E034DA17
:100E8000F8019E012F5E3F4F83EF91E0A8950197F7
:100E90004FEF8F3F9407D1F78081803C08F080545A
:100EA0008FB93196E217F30779F762960FB6F89487
:100EB000DEBF0FBECDBFCF91DF911F910F9108957F
:100EC0000F931F93DF93CF93CDB7DEB761970FB624
:100ED000F894DEBF0FBECDBF8E010F5F1F4FD8014C
:100EE000E6E9F1E081E101900D928150E1F760E0E7
:100EF000FBD9F8019E012F5E3F4F83EF91E0A8954B
:100F000001974FEF8F3F9407D1F78081803C08F025
:100F100080548FB93196E217F30779F761960FB6CF
:100F2000F894DEBF0FBECDBFCF91DF911F910F911F
:100F300008950F931F93DF93CF93CDB7DEB76297DA
:100F40000FB6F894DEBF0FBECDBF8E010F5F1F4FEF
:100F5000D801E7EAF1E082E101900D928150E1F7DA
:100F600060E0C2D9F8019E012F5E3F4F83EF91E010
:100F7000A89501974FEF8F3F9407D1F78081803C70
:100F800008F080548FB93196E217F30779F762962B
:100F90000FB6F894DEBF0FBECDBFCF91DF911F918A
:100FA0000F910895BF92CF92DF92EF92FF920F932D
:100FB0001F93CF93DF939FEF9ABB81EB87BB88B3DF
:100FC00098BB8CEF84BB85B395BB8FEB81BB92BB89
:100FD0001EB880E78DB9C2D988B7806488BF89B749
:100FE000806489BF83E085BD85E083BF89B7816068
:100FF00089BF8FE780B984E082B984E486BF87EC3B
:1010000090E0A89501972FEF8F3F9207D1F790932B
:10101000F2018093F10184E18093F30188EC8093E5
:10102000F4011092F60122E02093060278948AEFF0
:1010300090E090930802809307022093E2018DE1F3
:101040008093E3011092E4011092E5011092E60111
:101050001092E7011092E8011092E9011092EA0162
:101060001092EB0182E390E090930A0280930902D0
:101070008CE291E09093D2018093D1010CE211E0D7
:10108000C2E3D0E048EFF42E3FE7E32E24E0D22E77
:1010900094E4C92E84E1B82E12C080910902909187
:1010A0000A02892B09F4B7C080910B02882351F5FD
:1010B00006B607FC2CC08091F301882391F1A89516
:1010C0008091D1019091D201892B09F44FC0F2D8BF
:1010D0008091070290910802892BF9F68091E20134
:1010E000882309F049C08091090290910A02892B56
:1010F000D9F6A9D9D0930A02C093090280910B02B4
:101100008823B1F292D882D806B607FED4CF809158
:10111000D8018F5F8093D8012BD88091F301882369
:1011200071F610B812B816BEF1B881E390E0A89538
:1011300001972FEF8F3F9207D1F7E0B8D2B8C6BE24
:10114000B092F30187EC90E0A89501972FEF8F3FC5
:101150009207D1F79093F2018093F101A8958091C5
:10116000D1019091D201892B09F0B1CF39D91093D7
:10117000D2010093D101ABCF8091090290910A0274
:10118000892B09F091CFD0930A02C0930902E09114
:101190000602F0E0EF51FE4F808190E0FC013197B4
:1011A000E132F10508F080CFEB5EFF4F09945FDA82
:1011B0007BCFAADB79CF6BDC77CFDBDC75CFA0DC14
:1011C00073CF14DC71CFD9DB6FCFB3DE6DCF63DBB0
:1011D0006BCFEFDA69CFB4DA67CF79DA65CF5FDA50
:1011E00063CF2DDA61CF13DA5FCFF9D95DCFDFD9C5
:1011F0005BCF66DE59CF2BDE57CF31DC55CF0FDE0C
:1012000053CFD4DD51CF99DD4FCF5EDD4DCF23DD00
:101210004BCFE8DC49CF76D9D0930A02C0930902BC
:1012200043CF1F920F920FB60F9211248F939F936B
:101230008091D1019091D201009729F0019790936C
:10124000D2018093D1018091090290910A02009706
:1012500029F0019790930A02809309028091070276
:1012600090910802009729F00197909308028093CB
:1012700007028091F301882319F081508093F301D4
:101280008091F401882361F48091F6018068809355
:10129000F6019F918F910F900FBE0F901F901895A0
:1012A00081508093F4019F918F910F900FBE0F900A
:1012B0001F9018951F920F920FB60F9211248F93C3
:1012C0009F93EF93FF938091D3019091D401009766
:1012D00009F042C08091F7019091F8010097B1F5B3
:1012E00087EE93E09093F8018093F70188E893E10B
:1012F0009093D4018093D30192E011C080910602B3
:101300008F5F80930602E0910602F0E0EF51FE4FFE
:101310008081882391F480910602823071F080915F
:1013200006028A3058F390930602E0910602F0E03C
:10133000EF51FE4F8081882371F3FF91EF919F91D0
:101340008F910F900FBE0F901F901895019790935B
:10135000F8018093F701CACF01979093D40180934D
:10136000D301EBCFAA1BBB1B51E107C0AA1FBB1FB8
:10137000A617B70710F0A61BB70B881F991F5A9521
:10138000A9F780959095BC01CD010895F894FFCF01
:10139000CAD8D320DDD1C4C0002020202048455425
:1013A00020CFD3D1CAC020202000CDC5D220D1C2A9
:1013B000DFC7C820D120CCD9D320002020CDC5D272
:1013C00020CEC1CED0CED2CEC2202000CDC5D220DC
:1013D000C2CEC7C1D3C6C4C5CDC8DF2020002020DF
:1013E00020205520484520484F504D4120202000C6
:1013F00020CFC5D0C5C3D0D3C7CAC020C2C3202008
:101400002000202020CED2CAC0C720C2C320202066
:101410002020200020CDC5D220D1C2DFC7C820D1D6
:1014200020D0CD20200020202020CFCEC6C0D0202C
:101430002020202020202020002020CED2CAC0C77B
:1014400020C2D1202020202020200020205520CD87
:10145000C020CACED0CFD3D1C52020200020D1C5F6
:10146000D2DC20CDC520CDCED0CCC0202020002085
:10147000CDC5D220CCC0D1CBC02020202020200040
:10148000C4CEC7C0CFD02E20D2CECFCBC8C2C020B2
:1014900000C4CEC7C0CFD0C0C2CAC020CCC0D1CB40
:1014A000C020002020CED2CAC0C720D4C2D3202062
:1014B0002020200020202020D0C0C1CED2C020205B
:1014C000202020202000CDC5D220D1C2DFC7C820D7
:1014D000D120D8D1CD2000202020CED2CAC0C72014
:1014E000D3CFCFC0202020200014C888131027801D
:1014F000828090889F20848288838092858B9F0041
:00000001FF
