:100000001CC036C035C034C033C032C031C030C06F
:1000100055C52EC02DC02CC02BC02AC029C028C059
:1000200027C026C025C024C023C0F2C6F8C6F0C62B
:10003000FBC6EEC6FEC6ECC6EDC611241FBECFE55C
:10004000D2E0DEBFCDBF10E0A0E6B0E0E0E4FEE02D
:1000500002C005900D92A836B107D9F710E0A8E6C6
:10006000B0E001C01D92A73EB107E1F742D4E6C659
:10007000C7CF60916800709169003091BA00C4994F
:100080002EC0CC9B6CC0CB018E7FCD996CC08061A3
:10009000CF996CC09160CE996CC0AC015064CB9983
:1000A0006CC0832F8460CA9930C08061C99B30C006
:1000B0008062C89B30C0282F20644617570781F103
:1000C0005093690040936800231731F480916F00CA
:1000D00080937C0020936F002093BA000895C39909
:1000E0002CC0CC9B4DC0CB018D7FCD994DC0806283
:1000F000CF9957C09260CE9951C0AC015068CB994E
:100100004AC0832F8860CA9BD0CF8F7EC999D0CF39
:100110008F7DC899D0CF282F2F7B4617570781F6A0
:10012000809193009091940090939900809398000F
:100130005093940040939300C3CFC69927C0CC99A5
:1001400047C0CB018460CD9941C08064CF9946C03F
:10015000AC015460CE9937C0832F8160A4CFCB010E
:100160008160CD9B94CF8F7ECF9B94CF9E7FCE9B83
:1001700094CFAC015F7BCB9B94CF832F8B7F93CFAE
:10018000CB018260CD9BB3CF8F7DB2CFC59B0BC01F
:10019000AB01832F88CF832F877F85CFAC015F771B
:1001A000AECF9D7FA8CFCC9B16C0CB01877FCD99CA
:1001B0001BC08068CF991AC0AC015860CE9911C09D
:1001C000832F826070CF832F8E7F6DCF8F7BBECFCA
:1001D000CB018B7FB8CFCB018860E9CFAC015B7FCF
:1001E000B9CF832F8D7F5FCF8F77E4CFAC01577F5F
:1001F000E5CFACEDB0E0FD0190E08191980F80E09B
:10020000E63EF807D1F78091DB00891308958EE16F
:1002100080939500EFE7F0E091E08C9181939D93BE
:1002200080E0A63EB807C9F78AE08093AA008FEF66
:100230008093DB00089506B607FC0FC0A895809157
:10024000790090917A00009721F40FC0A89500974B
:1002500061F0019706B607FEF9CF88E893E1909325
:100260007A008093790081E0089588E893E1909383
:100270007A008093790080E0089581B1887F80368C
:1002800009F181B1887F803861F081B1887F883A37
:1002900011F181B1887F883B51F186B7806886BFB4
:1002A000089590916A0083B1E92FF0E0E552FF4F85
:1002B0008083992371F0915090936A0086B780688B
:1002C00086BF08958AE080936A0086B7806886BFFB
:1002D00008958FDFE2CF8AE080937B001092B9000F
:1002E0008091B70083B986B7806886BF0895E09192
:1002F0007B00EE2339F48091AD0083B981E08093D7
:10030000B900CBCFE150E0937B00F0E0E355FF4F25
:10031000808183B9C2CF1092AD00EEEAF0E0819106
:100320009091AD00890F8093AD0080E0E83BF80725
:10033000B1F7089520916F002093B40080916B0075
:100340008093B3009091AB008091AC008093B20099
:100350009093B1008091AE008A3A69F0822F8F7736
:100360008093B00090919300809194008093AF00AF
:100370009093AE0008958091AF008F7C8A3871F71A
:100380008091B0008F748A3449F7822F8068E8CF5B
:100390008EE1809395001092AC001092AB00109209
:1003A0006B00EDEBF0E080EB94E08193919320E023
:1003B000EB3DF207D1F7EAE9F0E080EB94E08193BE
:1003C000919320E0EA3AF207D1F7089580919500E1
:1003D000882309F43FC08091AB009091AC00BC0130
:1003E000EDEBF0E021E030E0A1E0B0E08081918130
:1003F000892B49F4CD01022E02C0880F991F0A945F
:10040000E2F7682B792B32962F5F3F4F2031310571
:1004100069F77093AC006093AB0050916B00EAE910
:10042000F0E020E030E061E070E080819181892B94
:1004300041F4CB01022E02C0880F991F0A94E2F703
:10044000582B2F5F3F4F32962830310571F750936C
:100450006B0008958091AB009091AC008160909307
:10046000AC008093AB00BBCFAB99DEC080916C0039
:1004700090916D00826090936D0080936C00AA99BA
:10048000C6C0846090936D0080936C00C799C6C00D
:10049000886090936D0080936C009099B2C08061E9
:1004A00090936D0080936C009199A5C080629093A9
:1004B0006D0080936C00929998C0806490936D0059
:1004C00080936C0093998BC0806890936D008093AB
:1004D0006C0094997EC0916090936D0080936C0045
:1004E000959971C0926090936D0080936C0096997D
:1004F0005DC0946090936D0080936C0097995DC08F
:10050000986090936D0080936C00C09949C0906191
:1005100090936D0080936C00C1993CC09062909361
:100520006D0080936C00C29928C0906490936D0018
:1005300080936C00AF9928C0906890936D00809371
:100540006C00AE9914C090916E00916090936E0013
:10055000AD9904C080916F0082FF70C09D7F909321
:100560006E00AC9B70C09B7F90936E00089590913D
:100570006E009E7F90936E00EBCF9F7B90936D00FB
:1005800080936C00AF9BD8CF9F7790936D00809342
:100590006C00D7CF9F7D90936D0080936C00C3CF8C
:1005A0009F7E90936D0080936C00B6CF9B7F90935D
:1005B0006D0080936C00979BA3CF977F90936D0005
:1005C00080936C00A2CF9D7F90936D0080936C0010
:1005D0008ECF9E7F90936D0080936C0081CF8F773C
:1005E00090936D0080936C0074CF8F7B90936D001F
:1005F00080936C0067CF8F7D90936D0080936C002B
:100600005ACF8F7E90936D0080936C004DCF8B7F7F
:1006100090936D0080936C00C79B3ACF877F909337
:100620006D0080936C0039CF80916C0090916D00CB
:100630008D7F90936D0080936C0021CF926090939A
:100640006E00AC9990CF946090936E000895AA9A32
:100650008091AB0081FD0AC08091930080FD06C0AF
:1006600080917000882311F4AB980895AB9A089597
:10067000AB9A8091AB0082FD0AC08091930081FD0E
:1006800006C080918A00882311F4AA980895AA9A36
:100690000895909A8091AB0083FD0AC080919300E9
:1006A00082FD06C080917100882311F4C7980895D7
:1006B000C79A0895C79A8091AB0084FD0AC08091C3
:1006C000930083FD06C080918B00882311F49098DD
:1006D0000895909A0895929A8091AB0085FD0AC082
:1006E0008091930084FD06C080917200882311F4EC
:1006F00091980895919A0895919A8091AB0086FD02
:100700000AC08091930085FD06C080918C008823EB
:1007100011F492980895929A0895949A8091AB005A
:1007200087FD0AC08091930086FD06C0809173000A
:10073000882311F493980895939A0895939A809139
:10074000AB009091AC0090FD0AC08091930087FDB2
:1007500006C080918D00882311F494980895949A8E
:100760000895969A8091AB009091AC0091FD0CC0D9
:10077000809193009091940090FD06C08091740048
:10078000882311F495980895959A0895959A8091E3
:10079000AB009091AC0092FD0CC0809193009091C1
:1007A000940091FD06C080918E00882311F49698E4
:1007B0000895969A0895C09A8091AB009091AC00EC
:1007C00093FD0CC0809193009091940092FD06C01F
:1007D00080917500882311F497980895979A089549
:1007E000979A8091AB009091AC0094FD0CC08091E1
:1007F00093009091940093FD06C080918F00882310
:1008000011F4C0980895C09A0895C29A8091AB00DF
:100810009091AC0095FD0CC0809193009091940054
:1008200096FD06C080917600882311F4C198089542
:10083000C19A0895C19A8091AB009091AC0096FD49
:100840000CC0809193009091940097FD06C0809118
:100850009000882311F4C2980895C29A0895AE9A20
:100860008091AB009091AC0097FD0AC080916F0021
:1008700080FD06C080917700882311F4AF98089519
:10088000AF9A0895AF9A80916B0080FD0AC0809165
:100890006F0081FD06C080919100882311F4AE980D
:1008A0000895AE9A0895AC9A80916B0081FD0AC0BC
:1008B00080916F0082FD08C080917800882311F438
:1008C000AD980895AD9A089585B3846185BB089568
:1008D000AD9A80916B0082FD0AC080916F0083FD0C
:1008E00006C080919200882311F4AC980895AC9AC8
:1008F0000895DF92EF92FF920F931F931ABA9FEF22
:100900009BBB97BB98BB8CEF84BB95BB91BB92BB49
:100910008FE780B982EC8EBD89B7846089BF88E09B
:1009200082B984E486BF7894EFE7F0E0119220E08A
:10093000E938F207D9F78AE08093AA0087E080932C
:100940007D0026DD8FEF9FEF9093940080939300BE
:1009500090936900809368008FEF80936F0080937D
:10096000BA001092AC001092AB0010926B0018EF1E
:100970000FE728E0F22E94E4E92E8AE0D82E36C064
:1009800066DE80917F0081FF41C083DE80917F0021
:1009900082FF41C0A0DE80917F0083FF41C0BDDEA9
:1009A00080917F0084FF41C0DCDE80917F0085FF65
:1009B00041C001DF80917F0086FF41C026DF80912A
:1009C0007F0087FD41C05EDF8091800080FF41C0D5
:1009D0006ADF8091B900882309F041C006B607FCA0
:1009E00043C08091AA00882309F444C0A89580914F
:1009F000810080FD61C038DDE9DC80917F0080FDF1
:100A0000BFCF36DE80917F0081FDBFCF53DE809166
:100A10007F0082FDBFCF70DE80917F0083FDBFCF5E
:100A20008DDE80917F0084FDBFCFB0DE80917F009E
:100A300085FDBFCFD5DE80917F0086FDBFCFFADE7A
:100A400080917F0087FFBFCF0ADF8091800080FD0B
:100A5000BFCF3EDF8091B900882309F4BFCF6ADCA5
:100A60005ADC06B607FEBDCF08DC8091AA008823B9
:100A700009F0BCCF10B812B816BE11B981E390E0EE
:100A8000A89501972FEF8F3F9207D1F700B9F2B8E1
:100A9000E6BED092AA0087EC90E0A89501972FEFD0
:100AA0008F3F9207D1F79093970080939600A89577
:100AB0008091810080FF9FCF6BDC9DCF1F920F92B2
:100AC0000FB60F9211242F933F934F935F936F9321
:100AD0007F938F939F93AF93BF93EF93FF93409137
:100AE0006C0050916D00EDEBF0E021E030E061E052
:100AF00070E0A0EBB4E00DC080819181009719F007
:100B00000197918380832F5F3F4F329620313105CB
:100B100099F0CB01022E02C0880F991F0A94E2F7C8
:100B200084239523892B41F7B183A0832F5F3F4F07
:100B300032962031310569F780916E00482F50E0E0
:100B4000EAE9F0E020E030E060EB74E0CA01022E58
:100B500002C0959587950A94E2F780FF9CC080813A
:100B60009181009719F00197918380832F5F3F4F08
:100B700032962330310551F7AA9993C08EE18093C4
:100B80007000AB9998C08EE180938A0090999DC0C7
:100B90008EE180937100C799A2C08EE180938B0093
:100BA0009299A7C08EE1809372009199ACC08EE1BA
:100BB00080938C009499B1C08EE1809373009399D7
:100BC000B6C08EE180938D009699BBC08EE1809374
:100BD00074009599C0C08EE180938E00C099C5C005
:100BE0008EE1809375009799CAC08EE180938F0043
:100BF000C299CFC08EE1809376009199D4C08EE1E6
:100C000080939000AE99D9C08EE180937700AF9920
:100C1000DEC08EE180939100AC99E3C08EE18093B9
:100C20007800AD99E8C08EE18093920080919500A4
:100C3000882329F0809195008150809395008091C0
:100C4000AA00882319F081508093AA0080917D002A
:100C5000882309F4D9C080917D00815080937D0064
:100C600080917D00E82FF0E0E830F105B8F083E0F6
:100C700080937D00FF91EF91BF91AF919F918F91F4
:100C80007F916F915F914F913F912F910F900FBE88
:100C90000F901F9018957183608368CFEB5EFF4FB4
:100CA000099480917000882309F46BCF8150809360
:100CB0007000AB9B68CF80918A00882309F466CFCF
:100CC000815080938A00909B63CF8091710088232C
:100CD00009F461CF815080937100C79B5ECF8091F2
:100CE0008B00882309F45CCF815080938B00929B0A
:100CF00059CF80917200882309F457CF8150809397
:100D00007200919B54CF80918C00882309F452CFBC
:100D1000815080938C00949B4FCF809173008823E7
:100D200009F44DCF815080937300939B4ACF8091FB
:100D30008D00882309F448CF815080938D00969BC5
:100D400045CF80917400882309F443CF815080936C
:100D50007400959B40CF80918E00882309F43ECF8C
:100D6000815080938E00C09B3BCF8091750088237B
:100D700009F439CF815080937500979B36CF8091CD
:100D80008F00882309F434CF815080938F00C29B59
:100D900031CF80917600882309F42FCF8150809342
:100DA0007600919B2CCF80919000882309F42ACF64
:100DB000815080939000AE9B27CF8091770088234D
:100DC00009F425CF815080937700AF9B22CF80918B
:100DD0009100882309F420CF815080939100AC9B2F
:100DE0001DCF80917800882309F41BCF8150809318
:100DF0007800AD9B18CF80919200882309F416CF1C
:100E000081508093920012CF87E080937D0028CF9D
:100E100030D930CFC59888B3886588BB2BCFC498AC
:100E200088B3886688BB26CFC39888B3806788BBA1
:100E300021CFC69888B3886388BB1CCFF894FFCFB6
:080E40001E1EB0041E88130AF7
:00000001FF
