:1000000014C02AC722C021C020C01FC01EC01DC0EE
:1000100064C71BC01AC019C018C017C01DC615C0C0
:1000200014C013C012C011C010C011241FBECFE5F0
:10003000D2E0DEBFCDBF10E0A0E6B0E001C01D926F
:10004000AE3CB107E1F729D4B9C7DACF96B39095A2
:100050009170B19B9260B29B946080916000981700
:1000600031F085E080938600909360000895809140
:100070008600882331F08150809386009093600041
:10008000089590938C00909360000895FC0147E2DE
:100090008031940710F0EFE0F7E2CF0168EE73E0F3
:1000A00079D76093A60028EE33E0629FC001639F7A
:1000B000900D729F900D1124E81BF90BCF0164E69F
:1000C00070E068D76093A50024E630E0629FC0012D
:1000D000639F900D729F900D1124E81BF90BCF01C7
:1000E0006AE070E057D76093A400CB019B01220F18
:1000F000331F220F331F220F331F880F991F280F22
:10010000391FE21BF30BE093A3000895A895E19932
:10011000FECF07B600FCFDCF8EBB1FBA6DBB8FB7FD
:1001200080936300F894E29AE19A8FBFE199FECF41
:1001300007B600FCFDCF08951FBA8EBBE09AE09988
:10014000FECF8DB3089580EC87B980B78B7180BFE7
:1001500081E88093AB0010927E0016B8379A329AED
:10016000359A309A339A369A089587ECA89581503B
:10017000E8F78091A600805D8FB987ECA895815043
:10018000E8F78091A500805D8FB987ECA895815034
:10019000E8F78091A400805D8FB987ECA895815025
:1001A000E8F78091A300805D8FB90895282F8BE236
:1001B00091E0A89501973FEF8F3F9307D1F78FE12B
:1001C0008FB98BE291E0A89501973FEF8F3F93079E
:1001D000D1F784E28FB98BE291E0A89501973FEFC8
:1001E0008F3F9307D1F72FB98BE291E0A895019744
:1001F0002FEF8F3F9207D1F71FB88BE291E0A895C0
:1002000001973FEF8F3F9307D1F76FB98BE291E0F2
:10021000A89501972FEF8F3F9207D1F71FB8089548
:10022000282F8FE891E0A89501973FEF8F3F930724
:10023000D1F78FE18FB98FE891E0A89501973FEF53
:100240008F3F9307D1F788E28FB98FE891E0A895A7
:1002500001973FEF8F3F9307D1F787E68FB98FE87C
:1002600091E0A89501973FEF8F3F9307D1F780E486
:100270008FB98FE891E0A89501973FEF8F3F9307E3
:10028000D1F72FB98FE891E0A89501972FEF8F3F15
:100290009207D1F76FB90895803C08F0805423EF9E
:1002A00031E0A895215030409FEF2F3F3907C9F723
:1002B0008FB90895AC012091640030916500809160
:1002C000870090918800281B390B121613069CF4A6
:1002D000C901959587959595879595958795959558
:1002E0008795813A910524F4480F591FCA01089552
:1002F00080EA90E0F9CF21153105C1F3C90180955D
:1003000090959595879595958795959587959595CC
:100310008795813A910514F080EA90E0481B590BCB
:10032000CA01089540917C0050917D0020916400A5
:100330003091650080919F009091A000281B390B9F
:1003400037FD2EC0293C3105C4F4C9019595879528
:10035000959587959595879595958795813A91057A
:10036000A4F4840F951FA6DF9C018CE02138380788
:1003700078F020E83CE0C901089589E0463F58073D
:1003800020F726EF39E0C901089580EA90E0E9CF2F
:1003900083E02032380778F720E233E0C90108957E
:1003A000C901809590959595879595958795959593
:1003B000879595958795813A91053CF49A01281B7C
:1003C000390BC90177DF9C01D0CF80EA90E0F6CFEE
:1003D00040917C0050917D00809164009091650077
:1003E00020919F003091A000821B930B97FD13C0BA
:1003F0009A01265F3F4F8CE02138380720F020E833
:100400003CE0C901089583E020323807D0F720E2AC
:1004100033E0C90108959A012A503040ECCF9398F7
:1004200087EE9DEFA89501972FEF8F3F9207D1F7A9
:10043000939A87E893E1A89501972FEF8F3F920752
:10044000D1F78BE18FB983E690E0A89501972FEF64
:100450008F3F9207D1F784E78FB983E690E0A895A4
:1004600001972FEF8F3F9207D1F781E18FB983E694
:1004700090E0A89501972FEF8F3F9207D1F78CE07E
:100480008FB9089593988BED95E0A89501972FEF7C
:100490008F3F9207D1F7939A87E893E1A895019748
:1004A0002FEF8F3F9207D1F78BE18FB983E690E072
:1004B000A89501972FEF8F3F9207D1F784E78FB967
:1004C00083E690E0A89501972FEF8F3F9207D1F731
:1004D00081E18FB983E690E0A89501972FEF8F3FD8
:1004E0009207D1F78CE08FB908956091BD007091AB
:1004F000BE0080E090E02DE230E040E050E02BD5FF
:10050000A4E09695879577956795AA95D1F770930E
:1005100065006093640008959C018091840090912F
:100520008500892B61F480918C0081FF0AC02F5FC8
:100530003F4F88E290E09093850080938400C9014A
:10054000089580FFF6CF21503040F3CF8091C50051
:100550009091C6002091C7003091C800820F931F70
:1005600096958795969587959695879590938A0009
:100570008093890008958091A1009091A20020911C
:10058000890030918A00820F931F9093A00080937E
:100590009F0008958091890090918A0020918D009C
:1005A00030918E0041E02039340719F084369105EE
:1005B000B8F589369105A0F542E02835340709F4ED
:1005C00092C041E02C32340791F18436910518F441
:1005D0008A35910590F541E020393407A9F5863533
:1005E000910508F49CC02639310509F406C180350F
:1005F000910508F497C0283C3105B1F58234910586
:10060000F8F58C33910508F0CCC08233910508F4DD
:100610003FC084E690E090938E0080938D00089513
:1006200088E592E090938E0080938D0008958F3539
:10063000910588F28436910558F480E991E0909311
:100640008E0080938D000895283C310509F45EC02A
:100650008A35910508F44FC041E02C32340719F671
:100660008C34910508F4A4C02436310509F491C0F6
:100670008634910508F4A0C02639310509F45DC01F
:100680002035310509F49DC08C33910508F4BDCFA8
:100690002436310509F0A2C08E32910508F0B6C0AB
:1006A0008832910508F0D0C08E31910508F0DDC088
:1006B0002C33310509F0B9C08A31910508F0BFC06B
:1006C0008431910508F0D8C08A30910508F0DEC069
:1006D0002431310509F0C5C0069720F410928E0030
:1006E00010928D0008958036910508F0ADCF8A35BF
:1006F000910508F0A2CF8035910508F4ADCF8CE2CA
:1007000091E090938E0080938D000895853591053A
:1007100008F4A2CF8A35910508F069CFF0CF803573
:10072000910568F78634910508F465CF88EC90E070
:1007300090938E0080938D0008958833910508F082
:100740004DC08233910508F064CF8832910508F0DE
:100750007BC02035310509F059C08432910508F07D
:1007600064C08E31910508F080C08431910508F095
:1007700083C02832310509F06EC08031910508F040
:1007800070C00A9708F082C010928E0010928D00FF
:1007900008958134910508F46FCF8634910508F0EF
:1007A00073CF86E990E090938E0080938D0008953A
:1007B0008634910508F0BACF8C33910508F45CCFEC
:1007C000F0CF8733910508F463CF8C33910508F49B
:1007D00020CF8233910508F0BCCFB7CF2C33310541
:1007E000C1F78D32910508F4B4CF8233910560F1E1
:1007F0008832910508F05CCF57CF8B34910508F40F
:10080000FACE8035910508F033CF90CF28323105EC
:1008100079F78332910508F44BCF8832910528F19E
:100820008E31910508F0A5CFA0CF24313105C1F755
:100830008931910508F49DCF8E319105E8F084311E
:10084000910508F045CF40CF80E590E090938E0071
:1008500080938D0008952115310589F78F3091051A
:1008600090F40A9708F490CF08958CE390E0909369
:100870008E0080938D00089588E290E090938E0022
:1008800080938D000895449708F02CCF84E190E088
:1008900090938E0080938D0008958F929F92AF92D7
:1008A000BF92CF92DF92EF92FF920F931F93CF935D
:1008B000DF931ABA1BBA80EA87BB9FEF98BB84E22A
:1008C00084BB95BB89EB81BB92BB3DDC80E89CE09F
:1008D00097BD86BD90937D0080937C0090938300AC
:1008E000809382009BBD8ABD82E88FBD89E18EBD69
:1008F00089B7846089BF87EE9DEFA89501972FEF98
:100900008F3F9207D1F790939E0080939D0094981B
:1009100085B78C7F85BF8AB780648ABF8BB78064B8
:100920008BBF1092CD001092CC0082E78DB91EB81B
:1009300076DD84E690E090936200809361001092EF
:10094000810080E29EE49093BC008093BB001092F3
:10095000CD001092CC00789410928B0088E290E049
:10096000909385008093840081E0E6DB90E0880F1F
:10097000991F880F991F880F991F90937800809373
:100980007700885F984F9093A2008093A1002AE09F
:10099000813F920708F455C180EF9AE09093A2003E
:1009A0008093A10088EC90E090939E0080939D003E
:1009B00085E0809379008093860060E2E62E6EE405
:1009C000F62E54E3C52E58E0D52E40EFA42E4AE073
:1009D000B42E32E0832E912C9AC0C091CC00D091DD
:1009E000CD00809164009091650090938800809381
:1009F00087006091BD007091BE0080E090E02DE224
:100A000030E040E050E0A7D224E0969587957795B6
:100A100067952A95D1F77093650060936400CD2B9C
:100A200009F0B3C080918C0082FFAFC080919D001F
:100A300090919E00892B09F4FEC0CADC90937D0042
:100A400080937C0080917C0090917D0020918D00AE
:100A500030918E008217930708F4E8C0821B930B35
:100A60009093830080938200809182009091830014
:100A70009BBD8ABDC80150DD9093A2008093A10068
:100A80002AE0813F920708F48DC0B092A200A092A4
:100A9000A1008091A1009091A20088509740969566
:100AA00087959695879596958795909378008093EE
:100AB00077008093AC0081E03FDB6091AC0086174B
:100AC00039F081E023DB80918B008F5F80938B0076
:100AD0008091C5009091C6002091C7003091C80058
:100AE000820F931F969587959695879596958795EE
:100AF00090938A00809389004DDD1092CB00A6DA96
:100B00008091610090916200892B09F454C0A895EE
:100B10000091A1001091A2008091890090918A001B
:100B2000800F911F9093A00080939F0080919D0063
:100B300090919E00009779F0019790939E0080938A
:100B40009D0010928100F092BC00E092BB001092D8
:100B5000CD001092CC008091CB00882381F280914F
:100B600081008E7F809381008091BB009091BC00BA
:100B7000892B09F032CFC091CC00D091CD00C2605A
:100B8000D093CD00C093CC002CCF86B597B5909371
:100B900083008093820086B597B590937D00809303
:100BA0007C0062CF8453984008F073CFD092A200AB
:100BB000C092A1006ECF8091A1009091A20066DA50
:100BC00080E060E0F3DAD1DA8091890090918A00C8
:100BD0005DDA80E260E0EADAC8DA80919F00909105
:100BE000A00054DA80E460E0E1DABFDA80917C00B2
:100BF00090917D004BDA80E061E0D8DAB6DA80913E
:100C000064009091650042DA80E261E0CFDAADDA0B
:100C1000809182009091830039DA80E461E0C6DA45
:100C2000A4DA909262008092610071CF9093830069
:100C30008093820019CF76DB90937D0080937C00B7
:100C400001CF8453984008F0ADCE84E398E09093B0
:100C5000A2008093A100A6CE1F920F920FB60F9212
:100C600011242F933F934F935F936F938F939F9391
:100C7000AF93BF93CF93DF93EF93FF9380917F0068
:100C80009091800001969093800080937F00AA9AB3
:100C900044B155B150936800409367006091AB0038
:100CA0006138C8F480917E00282F30E0220F331F76
:100CB000F901E759FF4F808191818417950710F45E
:100CC00051834083F901E157FF4F8081918148179B
:100CD000590708F467C0662309F069C0809166006F
:100CE0008823A9F1815080936600E0917E00EE2375
:100CF00009F473C0AE2FB0E0AA0FBB1FFD01E75986
:100D0000FF4F80819181FD01E157FF4F0190F081FC
:100D1000E02D8E179F0708F097C020E030E0FD011E
:100D2000E355FF4F80819181280F391F3183208344
:100D3000FD01E759FF4F11821082A157BF4F8FEF7E
:100D400093E08D939C9383E88093AB0033C04091F4
:100D50007E00442309F052C081E08093CB002091B3
:100D6000AD003091AE003093BE002093BD001092D4
:100D70006A001092690093E89093AB00809366003C
:100D80001092AE001092AD00369A85E080937E00FE
:100D900087B1807E90917E00892B87B983E880930C
:100DA000AB0008C051834083662309F497CF61509C
:100DB0006093AB00AA98FF91EF91DF91CF91BF9123
:100DC000AF919F918F916F915F914F913F912F9133
:100DD0000F900FBE0F901F90189580916900909111
:100DE0006A002091AD003091AE00820F931F909366
:100DF000AE008093AD00A0E0B0E09ACFE42FF0E029
:100E0000EE0FFF1FDF01A354BF4F9F0123553F4F3C
:100E1000E901888199818D939C93E759FF4F118255
:100E2000108283E88093AB0081E080936600198292
:100E30001882369A443029F0453051F0442309F4A1
:100E4000A4CF10927E00A4CF9C012E1B3F0B67CF36
:100E500084E080937E009CCF1F920F920FB60F927A
:100E600011242F933F938F939F9326B537B580918D
:100E70007C0090917D002817390709F182991FC0E5
:100E8000949A80917900882319F58BB78F7B8BBF5B
:100E90008091CC009091CD0081609093CD008093A3
:100EA000CC0026B537B5309383002093820086B5F9
:100EB00097B590937D0080937C003BBD2ABD9F91A8
:100EC0008F913F912F910F900FBE0F901F9018950B
:100ED0008150809379009498F2CF1F920F920FB6B1
:100EE0000F9211248F939F938091610090916200E3
:100EF000009729F00197909362008093610085E04C
:100F0000809379008091810080FF18C08091BB00A0
:100F10009091BC000097C9F4809184009091850065
:100F2000009729F0019790938500809384009F910A
:100F30008F910F900FBE0F901F90189580E29EE446
:100F40009093BC008093BB00E7CF01979093BC00C7
:100F50008093BB00E1CF629FD001739FF001829F1D
:100F6000E00DF11D649FE00DF11D929FF00D839F38
:100F7000F00D749FF00D659FF00D9927729FB00DD5
:100F8000E11DF91F639FB00DE11DF91FBD01CF01E8
:100F900011240895AA1BBB1B51E107C0AA1FBB1F48
:100FA000A617B70710F0A61BB70B881F991F5A95F5
:100FB000A9F780959095BC01CD010895F894FFCFD5
:00000001FF
