:100000003CC156C155C154C153C152C151C150C167
:100010006BC59EC54DC14CC14BC14AC149C148C108
:1000200047C1EAC545C144C143C136C441C44CC4FB
:1000300057C45DC468C473C47EC489C48FC49AC4E1
:10004000A5C4B0C4BBC4C6C4D1C4DCC4E2C4EDC43E
:10005000F8C403C500312627292D002D3A340000AD
:100060000032002D3A340000000032003934002EF6
:1000700026330032234028290000000000253400E8
:10008000000000002D340000003121222F33210018
:10009000242F332F232E2F32333D00000000253331
:1000A0000000000035233400002C3F2B21003038A5
:1000B0001200002C3F2B210030381100002C3100A1
:1000C0002524001200002C31002524001100002CF2
:1000D00024002524001200002C24002524001100F7
:1000E00000000039322E0000002C3F2B21001500AB
:1000F00000002C3F2B2100140000002C3F2B21007E
:10010000130000002C3F2B2100120000002C3F2B7D
:100110002100110000002F332B21280000000000D7
:100120000000FA0000E000E00000247E247E246449
:1001300056D44C0044A8542A44FEFEFEFEFE00E0C5
:10014000C0000000007C820000827C00004428F097
:10015000284410107C10100E0C000000101010101D
:10016000000606000000020C30C0007C8A92A27CCF
:100170000040FE0000468A8A92628292B2D28C18B7
:100180002848FE08F0A2A2A29C1C3252928C8080C9
:100190008EB0C01EF292F21E629292947800CCCC85
:1001A000000000CECC0000181824428028282828FF
:1001B00028804224181860808A90607C82BAAA78CD
:1001C0007EC888C87EFE9292928C80FE92926C824B
:1001D000FE8280C03E4484FC8682FE9282C6C6288F
:1001E000FE28C6C29292926CFE1C3870FE3E865C5F
:1001F000B03EFE102844821E3060C0FEFE603060BB
:10020000FEFE101010FE7C8282827CFE808080FECA
:10021000FE909090F07C828282448080FE8080E21A
:10022000121212FC3844FE4438C6281028C6FC04BA
:1002300004FC06E0101010FEFE023E02FEFC043C30
:1002400004FEC0FE22221CFE22221CFEFE121212FE
:100250000C449292927CFE38C6C63862949890FE06
:10026000FC020202FC0082FE8200FE90908080FE72
:1002700070381CFEFE909894620011241FBECFE5DA
:10028000D2E0DEBFCDBF10E0A0E6B0E0E0EDFCE0E4
:1002900002C005900D92A036B107D9F721E0A0E683
:1002A000B0E001C01D92A731B207E1F734D20EC50C
:1002B000A7CE5D9BFECF8CB908954F925F926F924F
:1002C0007F928F929F92AF92BF92CF92DF92EF92E6
:1002D0001F93CF93DF93F894C0E0D0E00F2EF4ED9E
:1002E0004F2EF0E05F2EF02DA12C712C0F2EF7E099
:1002F000BF2EF02D612CCA2CD72CEB2CF201808163
:10030000BE0190E09C01220F331F220F331F280FE4
:10031000391F2C0F3D1F4A2D572D9B2C162DFA01EE
:10032000EE0FFF1FEE0FFF1FE40FF51FE60FF71F85
:10033000E559FF4F10828C2D9D2DDF01A895F90105
:10034000E55EFE4FE4918C90F0E0092C02C0F5953B
:10035000E7950A94E2F7E170FF27082E02C0EE0F3E
:10036000FF1F0A94E2F7E829EC939A94911015C0C4
:10037000173190F41F5FE12FF0E0EC52FF4F208126
:1003800030E0F901EE0FFF1FEE0FFF1F2E0F3F1F92
:10039000260F371F9E2C01C09E2C01968830910598
:1003A00069F64F5F5F4F4531510509F0B8CF21968F
:1003B000C530D10509F0A2CF7894DF91CF911F917C
:1003C000EF90DF90CF90BF90AF909F908F907F90F5
:1003D0006F905F904F90089580E090E0FC01EC52A8
:1003E000FF4F1082019688319105C1F780E090E0BF
:1003F000FC01EE0FFF1FEE0FFF1FE80FF91FE5597D
:10040000FF4F10821182128213821482019685316D
:10041000910571F7089590916200CD9903C0892FDD
:10042000816002C0892F8E7F891302C0809368008B
:10043000809362000895611121C020E030E0F9014D
:10044000EC52FF4F10822F5F3F4F2C303105B9F730
:10045000442379F1415050E04F5F5F4F20E030E09E
:10046000FC01E20FF31FE491D901AC52BF4FEC93B2
:100470002F5F3F4F2417350799F71BC02CE030E062
:10048000F901EC52FF4F10822F5F3F4F28313105A9
:10049000B9F7442371F0FC01445F8CE0282F30E071
:1004A0009491D901AC52BF4F9C938F5F31968413C6
:1004B000F5CF03DF0895ACE0B1E026E131E0FD01C6
:1004C00080E09191890FE217F307D9F790910B0122
:1004D00098130DC0EDEEF0E08D918193A217B30754
:1004E000D9F7EBEFF0E084E1808384E6818308951F
:1004F0001092FF00E0E0F1E02AE031E0AFEFB0E081
:1005000091918C91890F8C93E217F307C9F70895A5
:10051000EFEFF0E080916900878383E0868384E0D9
:1005200085838FE0848380E1838381E1828380916E
:100530006800818308958436910540F020E0845658
:1005400091092F5F84369105D0F701C020E0205F2C
:100550002093F8008A30910538F020E00A972F5F49
:100560008A309105D8F701C020E0E8EFF0E0205F85
:100570002183805F82830895CF93DF932DDF809165
:10058000EE0090E0D8DF8091F800813138F0E4EDA2
:10059000F0E080838091F900818306C08091F900AA
:1005A000813110F08093D500C8EFD0E08A8180932C
:1005B000D6008091EF0090E0BEDF8881813138F075
:1005C000E4EDF0E083838091F900848306C080919C
:1005D000F900813110F08093D800C8EFD0E08A8113
:1005E0008093D9008091F00090E0A5DF888181316F
:1005F00038F0E4EDF0E086838091F900878306C04F
:100600008091F900813110F08093DB00C8EFD0E0D9
:100610008A818093DC008091F10090E08CDF8881FA
:10062000813138F0E4EDF0E081878091F900828734
:1006300006C08091F900813110F08093DE00C8EF90
:10064000D0E08A818093DF008091F30090E073DF37
:100650008881813138F0E4EDF0E084878091F90001
:10066000858706C08091F900813110F08093E10008
:10067000C8EFD0E08A818093E2008091F40090E09E
:100680005ADF8881813138F0E4EDF0E0878780918E
:10069000F900808B06C08091F900813110F08093C1
:1006A000E400C8EFD0E08A818093E5008091F500F6
:1006B00090E041DF8881813138F0E4EDF0E0828B19
:1006C0008091F900838B06C08091F900813110F090
:1006D0008093E700C8EFD0E08A818093E8008091A2
:1006E000F60090E028DF8881813138F0E4EDF0E019
:1006F000858B8091F900868B06C08091F90081314D
:1007000010F08093EA008091FA008093EB00D5DD31
:10071000DF91CF9108958FE18ABB84EA87BB18BA35
:1007200014BA83E085BB11BA12BA1FBC92E09EBD19
:1007300083BF85E089BF85E58DB981E08EB98FE7FC
:1007400080B984E082B985E486BF1BB888E08AB9A5
:100750008EE080BD10BC8CE089B95D9903C0A8957E
:100760005D9BFDCF9DE088E10FB6F894A89581BD13
:100770000FBE91BD31DE80E090E026E0FC01EC523E
:10078000FF4F2083019688319105C1F796DD2FEF49
:1007900080E792E0215080409040E1F700C00000E7
:1007A0007894A895EBEFF0E084E1808384E6818380
:1007B0001092FE00C2E0C093670081E27ADD8AE019
:1007C00078DD8DE076DDECEEF0E0C18380E18283C0
:1007D0001382148215821682178210861186128661
:1007E0008F01CBEFD0E06894FF24F1F80F2EF8EFE3
:1007F0009F2EF02D0F2EFFE7AF2EF02D6894BB2417
:10080000B2F80F2EF4E4CF2EF02D0F2EF4E1DF2EF0
:10081000F02D0F2EF8ECEF2EF02DA895FCDD809139
:10082000FE0088239CF480916300823008F442C16A
:10083000D3DD48E060E083E191E0FDDD47E061E089
:100840008FED90E0F8DD1092630034C1F8018181F2
:1008500081110AC080916400882309F42BC1BCDD9A
:100860008BDE1092640026C180916300823008F410
:1008700021C110926300E0916700F0E0E451FF4F66
:10088000E0818E2F90E0FC013197E531F10508F011
:10089000EFC0EB5EFF4F09949FDD48E060E083E12D
:1008A00091E0C9DD49E061E08AE091E0C4DDE0C0AB
:1008B00093DD48E060E083E191E0BDDD49E061E087
:1008C00081E091E0B8DDD4C087DD4BE060E08FE8E7
:1008D00090E0B1DD47E061E088E790E0ACDDC8C0C2
:1008E0007BDD49E060E086E890E0A5DDC1C074DD15
:1008F00048E060E083E191E09EDD49E061E088EF5F
:1009000090E099DDB5C068DD4AE060E08EE690E0F9
:1009100092DD48E061E086E690E08DDDA9C05CDD17
:100920004AE060E08EE690E086DD48E061E08EE53A
:1009300090E081DD9DC050DD48E060E083E191E022
:100940007ADD47E061E08FED90E075DD91C044DD38
:100950004AE060E084E590E06EDD8AC03DDD48E07D
:1009600060E083E191E067DD49E061E08FEE90E0D7
:1009700062DD7EC031DD48E060E083E191E05BDD77
:1009800049E061E086EE90E056DD72C025DD48E08A
:1009900060E083E191E04FDD49E061E086ED90E0C9
:1009A0004ADD66C019DD48E060E083E191E043DDA7
:1009B00049E061E08DEC90E03EDD5AC00DDD48E09D
:1009C00060E083E191E037DD49E061E084EC90E0B4
:1009D00032DD4EC001DD48E060E083E191E02BDDD7
:1009E00049E061E08BEB90E026DD42C0F5DC4BE0B6
:1009F00060E08FE890E01FDD47E061E08FE790E086
:100A00001ADD36C0E9DC4BE060E08FE890E013DDF2
:100A10002FC0E2DC48E060E083E191E00CDD47E0DC
:100A200061E080EA90E007DD23C0D6DC48E060E0CA
:100A300083E191E000DD4AE061E081EB90E0FBDCE6
:100A400017C0CADC48E060E083E191E0F4DC4AE0F2
:100A500061E087EA90E0EFDC0BC0BEDC48E060E0DC
:100A600083E191E0E8DC46E061E08AE990E0E3DCE4
:100A70008091670091E0980F90936700E92FF0E074
:100A8000E451FF4F2081222389F014C08F5F8B3007
:100A900051F0E82FF0E0E451FF4F90819923B1F33A
:100AA0008093670007C0F092670004C09A30D8F7BF
:100AB0008E5FEFCF80916A00882311F029DD18DD69
:100AC00088818111AACE10B812B816BE91B882E3FF
:100AD000A8958150E9F7A0B8B2B8C6BED8828E2DCD
:100AE000A8958150E9F799CE1F920F920FB60F92F9
:100AF00011248F9380916100803168F01092610021
:100B0000809163008F5F80936300809164008F5FAA
:100B1000809364000AC08F5F80936100873029F45E
:100B2000809164008F5F809364008091FC00882333
:100B300021F081508093FC0005C08091FE00806808
:100B40008093FE008F910F900FBE0F901F9018950D
:100B50001F920F920FB60F9211242F933F938F93F2
:100B60009F93EF93FF93C2988BB3807E8BBB25E15D
:100B70002150822F90E030916000FC01EE0FFF1FAA
:100B8000EE0FFF1FE80FF91FE30FF11DE559FF4FAF
:100B900080818FB9779BFECF2111EACFC29A8091D5
:100BA0006000823079F028F4882341F0813041F0F0
:100BB0000EC0833049F0843049F009C0D89A07C08C
:100BC000D99A05C0DA9A03C0DB9A01C0DC9A8091F9
:100BD0006000843020F48F5F8093600002C0109228
:100BE0006000FF91EF919F918F913F912F910F9016
:100BF0000FBE0F901F9018951F920F920FB60F9275
:100C000011242F933F934F935F936F937F938F9311
:100C10009F93AF93BF93EF93FF93809169008F5F92
:100C20008093690081B1887F803621F48AE08093C7
:100C3000660038C081B1887F803881F48091660079
:100C400093B1E82FF0E0E55FFE4F9083882321F019
:100C500081508093660026C02EDC24C081B1887F3D
:100C6000883A49F48AE08093650010926A00809186
:100C7000090183B917C081B1887F883B99F4E0915D
:100C80006500EE2349F0E150E0936500F0E0E150AB
:100C9000FF4F808183B906C08091FF0083B981E056
:100CA00080936A0086B7806886BFFF91EF91BF91FD
:100CB000AF919F918F917F916F915F914F913F91F4
:100CC0002F910F900FBE0F901F901895F894FFCFA3
:00000001FF
