:1000000014C1D0CEA5CE2CC1F7CE37CD29C128C181
:100010005ECD26C125C157CF23C122C111CC20C13D
:1000200075CF1EC11DC11CC11BC100C1814001C0D3
:10003000804101C0804100C1814001C0804100C1B8
:10004000814000C1814001C0804101C0804100C1A8
:10005000814000C1814001C0804100C1814001C098
:10006000804101C0804100C1814001C0804100C188
:10007000814000C1814001C0804100C1814001C078
:10008000804101C0804100C1814000C1814001C068
:10009000804101C0804100C1814001C0804100C158
:1000A000814000C1814001C0804101C0804100C148
:1000B000814000C1814001C0804100C1814001C038
:1000C000804101C0804100C1814000C1814001C028
:1000D000804101C0804100C1814001C0804100C118
:1000E000814000C1814001C0804100C1814001C008
:1000F000804101C0804100C1814001C0804100C1F8
:10010000814000C1814001C0804101C0804100C1E7
:10011000814000C1814001C0804100C1814001C0D7
:10012000804101C0804100C1814000C0C101C303C2
:1001300002C2C60607C705C5C404CC0C0DCD0FCF3F
:10014000CE0E0ACACB0BC90908C8D81819D91BDBAF
:10015000DA1A1EDEDF1FDD1D1CDC14D4D515D717FF
:1001600016D6D21213D311D1D010F03031F133F3AF
:10017000F23236F6F737F53534F43CFCFD3DFF3FFF
:100180003EFEFA3A3BFB39F9F83828E8E929EB2B2F
:100190002AEAEE2E2FEF2DEDEC2CE42425E527E7BF
:1001A000E62622E2E323E12120E0A06061A163A32F
:1001B000A26266A6A767A56564A46CACAD6DAF6FBF
:1001C0006EAEAA6A6BAB69A9A86878B8B979BB7B2F
:1001D0007ABABE7E7FBF7DBDBC7CB47475B577B77F
:1001E000B67672B2B373B17170B0509091519353AF
:1001F000529296565797559594549C5C5D9D5F9F7F
:100200009E5E5A9A9B5B99595898884849894B8BAE
:100210008A4A4E8E8F4F8D4D4C8C4484854587473E
:100220004686824243834181804011241FBECFE530
:10023000D2E0DEBFCDBF10E0A0E6B0E0ECEDFFE124
:1002400002C005900D92A038B107D9F711E0A0E8DF
:10025000B0E001C01D92AE38B107E1F7F3D8BCCED3
:10026000CFCEA895E199FECF07B600FCFDCF8EBB9F
:100270001FBA6DBB8FB78093A200F894E29AE19AFF
:100280008FBFE199FECF07B600FCFDCF08951FBADE
:100290008EBBE09AE099FECF8DB30895FF920F9345
:1002A0001F93F82E8F5FF3DF182F00E08F2DEFDF05
:1002B000282F30E0202B312BC9011F910F91FF9087
:1002C000089506B607FC0EC08091F1009091F200EF
:1002D000009719F40FC0009769F0A895019706B62A
:1002E00007FEF9CF80E197E29093F2008093F1004E
:1002F00081E0089580E197E29093F2008093F1000D
:1003000080E008950F931F93DCDF8823C1F181B152
:10031000887F883031F084E986BF80E01F910F919B
:10032000089580915901880F8B5F83B914EC16BF33
:10033000C8DF882321F181B1887F803461F78BE0A9
:100340008093A30083B180938B0116BF04E814EC63
:10035000B8DF8823A1F081B1887F8035B1F4E091C6
:10036000A300EE2381F0E150E093A30083B1F0E01D
:10037000E058FE4F808316BFA4DF882361F780E03A
:100380001F910F91089506BFE3CF84E986BF81E0F6
:10039000F7CF1F9396DF8823B9F081B1887F88302B
:1003A00049F081B1887F803129F084E986BF80E0FF
:1003B0001F91089580915901880F8C5F83B984EC57
:1003C00086BF7FDF882319F480E01F91089581B1F3
:1003D000887F883151F78AE08093F900E0915901D4
:1003E000F0E0E55CFE4F848983B984E886BF14E8B9
:1003F00017C081B1887F8832C1F6E091F900EE2301
:1004000099F0E150E093F90080915901F0E0EE0F8E
:10041000FF1FE80FF11DE55CFE4F808183B916BF19
:1004200050DF882331F7D0CF84E986BF81E0CDCF7C
:1004300080912D0190912E0181749070892B29F06B
:10044000809144018D7F80934401EDE3F1E040E031
:1004500050E020E030E08081480F511D8181280F5D
:10046000311D329681E0E135F807A9F740933B0151
:1004700020933C0184EA86BF80E197E29093F200EA
:100480008093F10086DF882311F484E986BF88E831
:1004900093E1A8950197E9F784EA86BF80E197E2A6
:1004A0009093F2008093F1002DDF882379F0A1E88A
:1004B000B1E0FD0190E08191980F81E0EB38F80701
:1004C000D1F780918001891721F0089584E986BFD2
:1004D000089580915901282F30E0F901E65FFE4F21
:1004E00091E08C9180839D939F5F32969930C9F7FC
:1004F000F901E55DFE4F8AEF8083F9013896DF014F
:10050000AE58BF4F8C91E55AFE4F8083089580917D
:10051000A0009091A100807E9370B79B8160B09BFA
:100520008260B19B8460B49B8860CF9B8061909314
:10053000A1008093A00008956091A0007091A10097
:100540006F717070B79B6062B09B6064B19B6068B4
:10055000B49B7160CF9B72608091A0009091A100CC
:100560006817790769F08091F500882321F41092CB
:100570001F0110921E017093A1006093A0000895C6
:1005800080911B0190911C01909329018093280177
:1005900070931C0160931B01A091F50040E050E0B6
:1005A000E1E0F0E09F01042E02C0220F331F0A9405
:1005B000E2F780911B0190911C0182239323892BE8
:1005C00099F0809128019091290182239323892B0E
:1005D00059F480911E0190911F01822B932B9093CF
:1005E0001F0180931E01AEE14F5F5F4F4A305105FE
:1005F000C9F6A093F500B7CF8091330190913401F3
:100600008C599F4F2091310130913201821793070D
:1006100020F084E08093FB00089580E88093FB0045
:10062000089580913301909134018C599F4F20910E
:100630002F01309130018217930720F080E88093DA
:10064000FB00089584E08093FB00089582E080938E
:100650003D01309117018091150120910F01532F19
:1006600090E032FD94E090934101887F682F85FFF0
:100670003CC085E141E080934301722F21FF31C0EE
:1006800080E241E08093450155FF27C083E141E0CE
:100690008093470137FD58C056FD2BC080E0809302
:1006A000490120912D0130912E0132FF2BC08FE0A6
:1006B00080934B0141E033FF40C081E180934D01C5
:1006C00041E064FF36C088E141E080934F0170FF54
:1006D0002AC088E080933F01089554FF1CC08CE13C
:1006E000D6CF66FF16C085E0CDCF53FF0FC086E0A2
:1006F000C1CF89E18093490120912D0130912E01D4
:1007000032FDD5CF27FF3FC08BE0D2CF40E080E065
:10071000B2CF80E0B7CF72FD43C080910B0187FD5F
:100720004CC080E0B5CF50FF1CC082E080933F01F9
:10073000089563FD0CC080E0C8CFC9018C70907033
:10074000892B39F08DE0BACF81E041E0A8CF8AE172
:10075000BCCF34FD23C023703070232B59F184E1CA
:10076000ADCF51FD17C0442351F580910B0181FDA0
:1007700019C0809139018823C9F08530B9F08DE125
:1007800080933F01089526FF02C087E191CF109228
:100790004B0191CF83E080933F01089580E18ECF9C
:1007A00089E075CF8FE180933F0108958EE18093BA
:1007B0003F01089510924D0184CF81E268CF80E01F
:1007C00089CF80911B0190911C01982F8091390154
:1007D000823021F09B778091FB00982B90933E0113
:1007E00080911B0190911C019093400190910A010E
:1007F000977080911D01817109F090648091E600ED
:10080000817109F090689093420140E08091F70077
:100810009091F8008F5B9040CB9708F441E02091D5
:100820002D0130912E01C9018C789C71892B09F022
:10083000406826FD07C08091200190912101853BF1
:10084000910590F423743070232B09F04064409399
:10085000460180917C0190917D01969587959695B2
:1008600087958093480108954062ECCF40912D0117
:1008700050912E0120E030E061E070E0F901E55A8E
:10088000FE4F8081882349F4FB01022E02C0EE0F47
:10089000FF1F0A94E2F74E2B5F2B2F5F3F4F2D3047
:1008A000310561F750932E0140932D010895109268
:1008B0002E0110922D011092E40020E030E0F901A9
:1008C000E55AFE4FD901AE58BF4F8C9180832F5F00
:1008D0003F4F2D30310599F70895282F90E001C042
:1008E000A8955D9BFDCFE92FF0E0E354FF4F808199
:1008F0008CB99F5F2917A8F70895FC01E65DFF4FAB
:10090000E4918E2F0895FC01E65DFE4FE4918E2F59
:100910000895E091D100E8272E2F30E0C901865DCF
:100920009F4FFC0194918091DF0098279093D10014
:10093000265D3E4FF90184918093DF0008958CB1CC
:100940008BB182728BB91092FA0008951F931091A7
:10095000FA005F9902C01F9108958BB19AB190B5CA
:100960009CB18C71C9F41A30B8F4E12FF0E0E95170
:10097000FF4F90831630E0F01630B1F09091ED000B
:100980008091D1009817D1F01092FA008FEF8093E8
:10099000D1008093DF00DFCF8CB18BB182728BB935
:1009A0001092FA001F91089587E08093FA00D3CF48
:1009B000892FAFDF1F5F1093FA00CDCF9091EE002B
:1009C0008091DF00981701F7A7EEB0E020E030E05B
:1009D0008091EA00F901EE0FFF1FE20FF31FE80F0D
:1009E000F11DEE57FF4F8C9180832D932F5F3F4F6A
:1009F0002630310569F788E08093650183E18093B3
:100A00000201C2CFE82FF0E0EE0FFF1FEE0FFF1F35
:100A1000E859FE4F60817181828193812091F300BA
:100A20003091F40040E050E096DA28EC34E140E008
:100A300050E0B0DAC9010895E82FF0E0EE0FFF1F93
:100A4000EE0FFF1FE859FE4F608171818281938113
:100A500026E030E040E050E09DDAC9010895AA9A0E
:100A600020911D0121FF13C0809103019091040189
:100A7000845C9040C59778F48091E300886080930F
:100A8000E30080912701882341F0AB98089580917D
:100A90000B0181FDFACFAB9A0895AB9A2D7F20937D
:100AA0001D010895AB9A80910B0181FD0CC0AA989D
:100AB00082FD02C0AD9A0895AD988091E6008E7CCB
:100AC0008093E6000895AA9A0895AC9A2091E600D2
:100AD00021FF13C08091200190912101845C9040FE
:100AE000C59778F48091E30084608093E30080915F
:100AF0002601882341F0AD98089580910B0182FD75
:100B0000FACFAD9A0895AD9A2D7F2093E60008950F
:100B1000AD9A80910B01982F82FD0AC08091E6006A
:100B200086FFAC9891FD02C0AB9A0895AB980895EA
:100B3000AC9A8091E60080648093E600089530913D
:100B40001D0180910B01682F70E080FD26C03E7E64
:100B5000306480911E0190911F01877F90931F0147
:100B600080931E01432F45FD10C0CB018270907011
:100B700044FF05C0892BB9F530931D010895892BD9
:100B8000D9F73F7730931D010895CB0182709070A3
:100B900061FFEECF3E7C432FEBCF80912D019091F2
:100BA0002E018C789871892B19F03E76432FDBCF7C
:100BB000432F36FD1CC080911E0190911F0183FFC1
:100BC000D2CF80913901823071F640FF19C03E7654
:100BD00080911E0190911F01877F90931F01809348
:100BE0001E01432FC0CF306830931D0108958091BE
:100BF000390181508230F8F231603F7B432FB3CF0F
:100C00003160E6CF20910301309104018091F7001B
:100C10009091F8008217930748F02817390728F4B5
:100C2000809154018F5F8093540108958091540105
:100C30008150809354010895209120013091210129
:100C40008091F7009091F8008217930748F02817D9
:100C5000390728F4809154018150809354010895FC
:100C6000809154018F5F80935401089580912D01EC
:100C700090912E0182FDAA9A83FDAB9A8C709070A0
:100C8000892B81F480911D0184FF0AC085FD08C075
:100C90008091030190910401853C910550F40895E1
:100CA000DEDE0895DCDE80914401806180934401A2
:100CB0000895F8DE08957091E60060914401E09196
:100CC0002D01F0912E01CF0183749070892B21F4B6
:100CD0008091150185FF44C07E7E64606D7F8091A8
:100CE0001301482F50E09A0120713070A091390112
:100CF000A430D0F08091200190912101855C90403A
:100D0000C397D0F484E680938C01A43009F456C0D4
:100D1000626080910B0182FF1AC06E7F8091130187
:100D2000282F30E020713070232B09F47F777093E7
:100D3000E600609344010895E6FF30C084E68093A6
:100D40008D01EC78F871EF2B09F43FC06E7F809134
:100D50001301282F30E020713070232B39F3E7CFB7
:100D600080910D0185FD17C084FF3CC0A091390121
:100D7000AA2309F05DC080911301482F50E09A0129
:100D80002071307084FF56C0872F807A09F052C0DE
:100D900071606B7FC9CF7E7E7068A1CF80910D019D
:100DA00081FFCCCF84E680938C01A53081F6232B84
:100DB00009F451C0716062606B7FB9CF80918D0181
:100DC000882309F0A5CF7160A3CF80918C0188237F
:100DD00009F0BDCF80911301282F30E020713070D1
:100DE00061E0A2CFA0913901AA2329F2A13009F430
:100DF000AECFA43041F16E7F80911E0190911F0112
:100E000090FF0EC070FF33C07E7E64606D7F809166
:100E10001E0190911F019E7F90931F0180931E01E0
:100E200080911301482F50E09A012071307060CFFB
:100E30007160F6CF8091DD00882309F059CF7E7E66
:100E400064606D7F55CF80911301482F50E09A0167
:100E5000207130704FCF8091DD00882309F066CF7C
:100E60007E7E64606D7F40FF61CF61605FCF7160A7
:100E700062606B7FCCCF9091E600892F817119F46D
:100E80009F7B9093E60020912D0130912E0120FD53
:100E9000AC9A21FDAD9A80910D0185FF04C080912F
:100EA0003901882381F423703070232B49F4809119
:100EB000E60084FF06C02CDE80911D0185FD05C083
:100EC000089503DE089501DE0895C9DD809144018F
:100ED00080618093440108952091E3002E7F209348
:100EE000E3008091200190912101845C9040C5979E
:100EF00018F421602093E300089580910B0182FD96
:100F000008C0AF9905C08091E60082608093E6003A
:100F100008958091E6008D7F8093E600089580918A
:100F20000B0181FD08C0AE9905C080911D01826052
:100F300080931D01089580911D018D7F80931D0177
:100F4000089590910B018091E600682F70E084FF76
:100F500049C0292F30E040E0F901E470F07092FFC1
:100F600079C080911D0184FF49C0D901A270B07081
:100F700021FD6CC087FD04C0446088E28093660157
:100F8000309711F0AF9B4061AB2B11F0AE9B5AC074
:100F900080912001909121018333910528F46171A2
:100FA0007070672B09F445C0855C9040C39708F0CA
:100FB0003EC020FF2DC020912A012460277F809110
:100FC000030190910401855C9040C39708F044C0F0
:100FD00080913901813021F12F7E20932A014093A5
:100FE000E4000895292F30E0F901E470F07092FFD9
:100FF0002BC042E080911D0184FDB7CF88E2809331
:101000006601D901A270B07021FFBACF4860B8CF95
:1010100020912A012B7F2860809139018130E1F6EF
:10102000206120932A0140E04093E4000895406449
:10103000C0CFEF2B09F4BDCF855C9040C39708F477
:10104000B8CFF5CF4062A4CF40E08BCF88E2809349
:10105000660196CF41E085CF4068BACF80912401E8
:10106000882349F480912D0190912E018F7B9093DC
:101070002E0180932D01089590912D0195FD0FC0B3
:1010800080910B0181FF0BC097FD0BC080911D016A
:1010900084FD04C093FF02C0AE98AB9A0895AE9A47
:1010A0000895AE98AB9A089590912D0194FD0FC0CC
:1010B00080910B0182FF0BC096FD0BC08091E60072
:1010C00084FD04C091FF02C0AF98AD9A0895AF9A15
:1010D0000895AF98AD9A089580915301882389F0BF
:1010E00080911B0190911C0181FF0CC080915701E0
:1010F0008F5F80935701109253018091FE008823E7
:1011000091F0089580911B0190911C0186FFF3CF0F
:101110008091570181508093570110925301809123
:10112000FE00882371F78AEF8093FE0084E0AFD839
:1011300060915701861729F384E093D8089510B879
:1011400012B816BE88EF81B981E390E0A8950197A7
:101150002FEF8F3F9207D1F78FE780B987EC90E0B0
:10116000A89501972FEF8F3F9207D1F78AEF8093D1
:101170002B0180932C010895809115018770809335
:101180003901089580910D0182FF05C080914401CD
:101190008460809344018091DA00882369F141DA08
:1011A00020910301309104018091F7009091F800A3
:1011B000281B390B37FD25C02B303105E0F4809119
:1011C000E1009091E200CD97B0F48091CB00909136
:1011D000CC00899780F480911D01806180931D016E
:1011E00080910B0182FF05C08091E600806A8093A8
:1011F000E6001092FB00089505DD84E18093DA009B
:10120000CECF309521953F4FD7CF8091DA008823FC
:10121000D1F0F2D98091FF0090910001CD9790F428
:101220008091800090918100899760F48091E60020
:1012300080618093E60080911D01806280931D0192
:101240001092FB000895F8DC84E18093DA00E1CF8E
:101250001F931091440180910B01282F30E0A901C8
:101260004470507082FD05C08091E6008F7D8093B0
:10127000E60080910D0190E0BC016470707082FF07
:101280001B7F20FD03C01F7E1092FB00452BA9F49D
:1012900021FF2CC020911D0120FF45C081FF4AC0C5
:1012A0008091E60080FF51C08091110181FF4DC007
:1012B0002E7E20931D01106115C08091E600482FFD
:1012C00080FF0DC021FF22C090911D0195FF05C038
:1012D0009E7C90931D011E7F106145FF03C08E7E92
:1012E0008093E600109344011F91089581FD11C081
:1012F0008091E60080FD25C080911D0180FFF2CF26
:10130000672B81F7806180931D01ECCF8F7D8093E7
:10131000E60080911D0180FFE5CF1093440132DF8C
:1013200010914401DFCF2F7E20931D0110934401C3
:101330001F9108951F7E8091E60080FFD3CF65DF67
:10134000D1CF80618093E600CDCF1F7ECBCFE091DF
:101350003A01E8272E2F30E0C901865D9F4FFC013E
:1013600094918091F600982790933A01265D3E4F24
:10137000F90184918093F60008950F931F93082F2D
:101380008FEF80933A018093F60010E0E12FF0E0B8
:10139000E354FF4F8081DBDF1F5F0117B8F71F9118
:1013A0000F910895982F21E02093BD008130F1F135
:1013B0008130D0F486E08093BE001092BF0010927E
:1013C000C0001092C100809154018093C20085E05A
:1013D000D4DF80913A018093C3008091F60080931E
:1013E000C40087E07ADA0895823009F008958FE02A
:1013F0008093BE001092BF009093C0001092C10075
:1014000084E08093C2002093C30080912A018093DE
:10141000C40087E0B2DF80913A018093C5008091DB
:10142000F6008093C60089E058DA089586E080933C
:10143000BE001092BF009093C0001092C100809136
:10144000E000C3CF9F92AF92BF92CF92DF92EF9214
:10145000FF920F931F931ABA1BBA80E687BB83EFE4
:1014600088BB8CEF84BB9FEF95BB82EB81BB92BBAB
:101470008FE780B982E88EBD82ED87B910BE80E02B
:1014800094E0909356018093550186E08093DE00AE
:101490008FE886B9369A8AE088B983EC85BF8BB726
:1014A00080688BBF8BB780648BBF85E083BF82E091
:1014B00085BD89B7846689BF12BCF9D984E0E7D6B7
:1014C000809357018B3F18F086EE809357018091EF
:1014D00057018093540186E0E1D69093F400809305
:1014E000F3008B5E9040849730F080E091E0909321
:1014F000F4008093F3001BB88CE18AB986E880BDC4
:1015000010BC87E689B95D9903C0A8955D9BFDCFA6
:10151000579A81E08093590110921F0110921E0189
:101520001092FB00109244010ADE789410921D0183
:101530001092E60084E680938C0110921C011092B8
:101540001B011FE0D12E1FEFB2E0BB2E0AEAAAEF6B
:10155000FA2EF8ECEF2EE4E6CE2EAA24A39478E03F
:10156000972E27C0F0925401809157018B3F08F4C9
:1015700063C0F0925701E092E00080911D018171FB
:1015800009F466C080910B0185FF62C080912A0139
:1015900081608D7F80932A018091E500882309F482
:1015A00062C081508093E50080915A01882309F040
:1015B0006BC0A8958091E600817171F480910B0158
:1015C00085FD0AC0809157018093540180913901B3
:1015D0008250823008F4D7C080911A01882399F490
:1015E00080915801882309F4AAC081508093580142
:1015F0001092FA0080915801D5DED0921A01109312
:10160000D1001093DF00809115018770809339011C
:101610001DD88091110180FD90C0809154018B3FB5
:1016200008F0A0CF8A3A08F09FCF00935401809130
:1016300057018B3F08F09DCF8A3A08F09CCF00936A
:101640005701E092E00080911D01817109F09ACF6D
:1016500080912A0182608E7F80932A018091E5002B
:10166000882309F09ECFC092E5008091590188231C
:1016700009F468C010925901A895A3D8D9D68091D1
:101680005A01882309F495CF80E0BCD990930401D6
:10169000809303014E9710F49092650181E0B2D9D6
:1016A000909321018093200182E0ACD99093F800BF
:1016B0008093F7008091CB009091CC009093E20052
:1016C0008093E10083E0B8D99093CCFFFFFFFFFF48
:00000001FF
