:1000000014C1E8CDBDCD2CC10FCE93CC29C128C1E0
:10001000BBCC26C125C176CE23C122C16DCB20C168
:1000200094CE1EC11DC11CC11BC100C1814001C0B5
:10003000804101C0804100C1814001C0804100C1B8
:10004000814000C1814001C0804101C0804100C1A8
:10005000814000C1814001C0804100C1814001C098
:10006000804101C0804100C1814001C0804100C188
:10007000814000C1814001C0804100C1814001C078
:10008000804101C0804100C1814000C1814001C068
:10009000804101C0804100C1814001C0804100C158
:1000A000814000C1814001C0804101C0804100C148
:1000B000814000C1814001C0804100C1814001C038
:1000C000804101C0804100C1814000C1814001C028
:1000D000804101C0804100C1814001C0804100C118
:1000E000814000C1814001C0804100C1814001C008
:1000F000804101C0804100C1814001C0804100C1F8
:10010000814000C1814001C0804101C0804100C1E7
:10011000814000C1814001C0804100C1814001C0D7
:10012000804101C0804100C1814000C0C101C303C2
:1001300002C2C60607C705C5C404CC0C0DCD0FCF3F
:10014000CE0E0ACACB0BC90908C8D81819D91BDBAF
:10015000DA1A1EDEDF1FDD1D1CDC14D4D515D717FF
:1001600016D6D21213D311D1D010F03031F133F3AF
:10017000F23236F6F737F53534F43CFCFD3DFF3FFF
:100180003EFEFA3A3BFB39F9F83828E8E929EB2B2F
:100190002AEAEE2E2FEF2DEDEC2CE42425E527E7BF
:1001A000E62622E2E323E12120E0A06061A163A32F
:1001B000A26266A6A767A56564A46CACAD6DAF6FBF
:1001C0006EAEAA6A6BAB69A9A86878B8B979BB7B2F
:1001D0007ABABE7E7FBF7DBDBC7CB47475B577B77F
:1001E000B67672B2B373B17170B0509091519353AF
:1001F000529296565797559594549C5C5D9D5F9F7F
:100200009E5E5A9A9B5B99595898884849894B8BAE
:100210008A4A4E8E8F4F8D4D4C8C4484854587473E
:100220004686824243834181804011241FBECFE530
:10023000D2E0DEBFCDBF10E0A0E6B0E0EAE1FEE133
:1002400002C005900D92AA37B107D9F711E0AAE7CD
:10025000B0E001C01D92AC38B107E1F77BD8DBCD2F
:10026000CFCEA895E199FECF07B600FCFDCF8EBB9F
:100270001FBA6DBB8FB780939C00F894E29AE19A05
:100280008FBFE199FECF07B600FCFDCF08950F9315
:100290001F93182F072FE5DF812F8F5F602FE1DF7E
:1002A0001F910F9108951FBA8EBBE09AE099FECF7F
:1002B0008DB30895FF920F931F93F82E8F5FF3DF96
:1002C000182F00E08F2DEFDF282F30E0202B312B6F
:1002D000C9011F910F91FF90089506B607FC0EC04B
:1002E0008091EC009091ED00009719F40FC00097F9
:1002F00069F0A895019706B607FEF9CF80E197E26D
:100300009093ED008093EC0081E0089580E197E206
:100310009093ED008093EC0080E008950F931F937D
:10032000DCDF8823C1F181B1887F883031F084E936
:1003300086BF80E01F910F91089580915801880F2A
:100340008B5F83B914EC16BFC8DF882321F181B11C
:10035000887F803461F78BE080939D0083B1809328
:100360008A0116BF04E814ECB8DF8823A1F081B13C
:10037000887F8035B1F4E0919D00EE2381F0E1505B
:10038000E0939D0083B1F0E0E158FE4F808316BFFB
:10039000A4DF882361F780E01F910F91089506BFC5
:1003A000E3CF84E986BF81E0F7CF1F9396DF8823F0
:1003B000B9F081B1887F883049F081B1887F803180
:1003C00029F084E986BF80E01F910895809158014B
:1003D000880F8C5F83B984EC86BF7FDF882319F494
:1003E00080E01F91089581B1887F883151F78AE0BC
:1003F0008093F400E0915801F0E0E85CFE4F8489BE
:1004000083B984E886BF14E817C081B1887F883239
:10041000C1F6E091F400EE2399F0E150E093F4008E
:1004200080915801F0E0EE0FFF1FE80FF11DE85C2E
:10043000FE4F808183B916BF50DF882331F7D0CFBC
:1004400084E986BF81E0CDCF80912A0190912B0174
:1004500081749070892B29F0809141018D7F809368
:100460004101EAE3F1E040E050E020E030E080814B
:10047000480F511D8181280F311D329681E0EE34E5
:10048000F807A9F7409338012093390184EA86BF21
:1004900080E197E29093ED008093EC0086DF882363
:1004A00011F484E986BF88E893E1A8950197E9F7FC
:1004B00084EA86BF80E197E29093ED008093EC00A0
:1004C0002DDF882379F0A0E8B1E0FD0190E0819173
:1004D000980F81E0EA38F807D1F780917F018917FA
:1004E00021F0089584E986BF089580915801282F4E
:1004F00030E0F901EA5FFE4F91E08C9180839D939B
:100500009F5F32969930C9F7F901E85DFE4F8AEF97
:100510008083F9013896DF01A459BF4F8C91E65AC8
:10052000FE4F8083089580919A0090919B00807E79
:100530009370B79B8160B09B8260B19B8460B49BD9
:100540008860CF9B806190939B0080939A00089570
:1005500060919A0070919B006F717070B79B6062A0
:10056000B09B6064B19B6068B49B7160CF9B72600C
:1005700080919A0090919B006817790769F08091AB
:10058000F000882321F410921B0110921A0170933D
:100590009B0060939A000895809117019091180133
:1005A00090932601809325017093180160931701A1
:1005B000A091F00040E050E0E1E0F0E09F01042E67
:1005C00002C0220F331F0A94E2F780911701909125
:1005D000180182239323892B99F080912501909112
:1005E000260182239323892B59F480911A0190913B
:1005F0001B01822B932B90931B0180931A01AEE178
:100600004F5F5F4F4A305105C9F6A093F000B7CF56
:1006100082ED87B910BE80E094E0909354018093FE
:10062000530186E08093D80016B8379A329A319AEF
:10063000309A339A369A0895809130019091310121
:100640008C599F4F20912E0130912F0182179307D3
:1006500020F084E08093F600089580E88093F6000F
:10066000089580913001909131018C599F4F2091D4
:100670002C0130912D018217930720F080E88093A0
:10068000F600089584E08093F600089582E0809358
:100690003A01309113018091110120910B01432FF8
:1006A00090E032FD94E090933E01887F782F85FFA3
:1006B0003EC085E161E080934001522F21FD32C0B0
:1006C0001092420145FF2AC083E161E0809344011A
:1006D00037FD4FC046FD2FC080E08093460120913A
:1006E0002A0130912B0127FD2FC080E026FD87E1F4
:1006F00080934801C9018C709070892BB1F18DE015
:1007000080934A0161E073FD2EC080E080934C012C
:1007100050FF23C088E080933C01089544FF19C036
:100720008CE1D3CF80E28093420161E0CBCF43FFE5
:100730000DC086E0BFCF89E18093460120912A0158
:1007400030912B0127FFD1CF8BE0D0CF60E080E04C
:10075000B2CF52FF2AC089E0B8CF40FF0DC082E07F
:1007600080933C0108958AE1D1CF33FF11C080E12D
:10077000C7CF81E061E0B1CF41FD13C06623D9F45A
:100780008091070181FD13C08DE180933C010895A4
:1007900023703070232B11F084E1B2CF10924A0104
:1007A000B2CF83E080933C01089580E08FCF8FE14A
:1007B00080933C01089580E0AECF80911701909125
:1007C0001801982F80913601823021F09B7780911B
:1007D000F600982B90933B0180911701909118019E
:1007E00090933D019091060197708091190181715C
:1007F00009F090648091E100817109F09068909314
:100800003F0140E08091F2009091F3008F5B9040B7
:10081000CB9708F441E020912A0130912B01822FDF
:100820008C7809F0406826FD07C080911C019091EA
:100830001D01853B910590F423743070232B09F042
:1008400040644093430180917B0190917C01969597
:100850008795969587958093450108954062ECCFE2
:1008600040912A0150912B0120E030E061E070E0DE
:10087000F901E65AFE4F8081882349F4FB01022EDC
:1008800002C0EE0FFF1F0A94E2F74E2B5F2B2F5F83
:100890003F4F2C30310561F750932B0140932A01D3
:1008A000089510922B0110922A011092DF0020E08F
:1008B00030E0F901E65AFE4FD901A459BF4F8C919F
:1008C00080832F5F3F4F2C30310599F70895282FF3
:1008D00090E001C0A8955D9BFDCFE92FF0E0E954C1
:1008E000FF4F80818CB99F5F2917A8F70895FC01FD
:1008F000E65DFF4FE4918E2F0895FC01E65DFE4F0B
:10090000E4918E2F0895E091CB00E8272E2F30E060
:10091000C901865D9F4FFC0194918091D900982771
:100920009093CB00265D3E4FF90184918093D900CE
:1009300008958CB18BB182728BB91092F500089535
:100940001F931091F5005F9902C01F9108958BB11C
:100950009AB190B59CB18C71C9F41A30B8F4E12FFA
:10096000F0E0EE51FF4F90831630E0F01630B1F01A
:100970009091E8008091CB009817D1F01092F5008B
:100980008FEF8093CB008093D900DFCF8CB18BB1F8
:1009900082728BB91092F5001F91089587E08093C1
:1009A000F500D3CF892FAFDF1F5F1093F500CDCFB8
:1009B0009091E9008091D900981701F7A2EEB0E07C
:1009C00020E030E08091E500F901EE0FFF1FE20F1B
:1009D000F31FE80FF11DE458FF4F8C9180832D9396
:1009E0002F5F3F4F2630310569F78EE18093640118
:1009F00083E18093FE00C2CFE82FF0E0EE0FFF1FEF
:100A0000EE0FFF1FE959FE4F608171818281938152
:100A10002091EE003091EF0040E050E0BBD928EC8F
:100A200034E140E050E0D5D9C9010895E82FF0E065
:100A3000EE0FFF1FEE0FFF1FE959FE4F608171811E
:100A40008281938126E030E040E050E0C2D9C901C4
:100A50000895AA9A2091190121FF13C08091FF00E7
:100A600090910001805D9040879778F48091DE003E
:100A700088608093DE0080912301882341F0AB9849
:100A800008958091070181FDFACFAB9A0895AB9A42
:100A90002D7F209319010895AB9A8091070181FD64
:100AA0000CC0AA9882FD02C0AD9A0895AD988091BD
:100AB000E1008E7C8093E1000895AA9A0895AC9A93
:100AC0002091E10021FF13C080911C0190911D0134
:100AD0008F5C90408A9778F48091DE0084608093E8
:100AE000DE0080912201882341F0AD980895809125
:100AF000070182FDFACFAD9A0895AD9A2D7F20931C
:100B0000E1000895AD9A8091070182FD07C0AC987D
:100B100081FD02C0AB9A0895AB980895AC9A0895F0
:100B20002091190180910701482F80FD13C02E7E6E
:100B3000206480911A0190911B01877F90931B0183
:100B400080931A01322F35FF02C041FD2E7C209385
:100B50001901089580912A0190912B018C78987049
:100B6000892B19F02E7E322FEECF322F26FD18C0A2
:100B700080911A0190911B0183FFE5CF809136018E
:100B8000823009F730FF14C02E7E80911A019091B7
:100B90001B01877F90931B0180931A01322FD3CFC3
:100BA00080913601833020F321602F7B322FCBCF11
:100BB0002160EBCF2091FF00309100018091F20085
:100BC0009091F3008217930768F02817390748F4CB
:100BD000809151019091520101969093520180931E
:100BE0005101089580915101909152010197909384
:100BF000520180935101089520911C0130911D01F3
:100C00008091F2009091F3008217930768F0281703
:100C1000390748F4809151019091520101979093C6
:100C20005201809351010895809151019091520198
:100C300001969093520180935101089580912A0169
:100C400090912B0182FDAA9A83FDAB9A8C709070D3
:100C5000892B81F48091190184FF0AC085FD08C0A9
:100C60008091FF0090910001843C910550F408951B
:100C7000F0DE0895EEDE80914101806180934101B4
:100C800008950ADF08955091E10020912A013091E2
:100C90002B01C90183749070892B21F4809111017B
:100CA00085FF36C05E7E409136014430F8F0809179
:100CB0001C0190911D01805D9040889740F48091C7
:100CC00024018E7F80932401443009F447C026FF1D
:100CD00010C02C783870232BC9F580918B018823A4
:100CE00029F4809141018160809341015093E1009A
:100CF00008958091070182FF05C0809141018E7F98
:100D00008093410184E680938B015093E100089524
:100D100040913601413051F3443049F28091410114
:100D20008E7F8093410180911A0190911B0190FF69
:100D3000BCCF50FD15C0516080911A0190911B01EC
:100D40009E7F90931B0180931A01AFCF8091410148
:100D50008E7F809341015093E10008955160B7CF99
:100D60005E7EEACF80912A0190912B0180FDAC9AA2
:100D700081FDAD9A83709070892B49F48091E100D8
:100D800084FF06C0BFDE8091190185FD03C0089570
:100D900096DE08955EDE809141018061809341017D
:100DA000089580911C0190911D018F5C90408A975D
:100DB00030F08091DE008E7F8093DE000895809178
:100DC000DE0081608093DE0008958091070182FD3E
:100DD00008C0AF9905C08091E10082608093E10076
:100DE00008958091E1008D7F8093E10008958091C6
:100DF000070181FD08C0AE9905C08091190182608C
:100E0000809319010895809119018D7F80931901B4
:100E10000895909107018091E100482F50E084FFF0
:100E200058C0292F30E060E0F901E470F07092FFC3
:100E30005FC08091190184FF45C0C9018270907024
:100E400021FF50C0309711F0AF9B6061892B11F0EA
:100E5000AE9B4CC041715070452BD1F4EF2BC1F4C7
:100E600020FF21C0209127012460277F8091FF006F
:100E7000909100018F5C90408997B0F58091360188
:100E80008130C9F02F7E209327016093DF00089501
:100E900080911C0190911D01815D9040869700F327
:100EA000606420FDDFCF209127012B7F2860809197
:100EB0003601813039F720612093270160E060938B
:100EC000DF000895C9018270907021FFBBCF686078
:100ED000B9CF292F30E0F901E470F07092FF0AC019
:100EE00062E0A7CF6460AECF6068C8CF6062B2CF67
:100EF00061E09FCF60E09DCF80912001882349F47D
:100F000080912A0190912B018F7B90932B018093EC
:100F10002A01089590912A0195FD0FC08091070143
:100F200081FF0BC097FD0BC08091190184FD04C0A7
:100F300093FF02C0AE98AB9A0895AE9A0895AE980A
:100F4000AB9A089590912A0194FD0FC080910701FA
:100F500082FF0BC096FD0BC08091E10084FD04C0B0
:100F600091FF02C0AF98AD9A0895AF9A0895AF98D7
:100F7000AD9A0895809150018823B9F080911701AE
:100F80009091180181FF12C08091550190915601F6
:100F900001969093560180935501109250018091D3
:100FA000F9009091FA00892BC1F008958091170102
:100FB0009091180186FFF1CF8091550190915601D3
:100FC00001979093560180935501109250018091A2
:100FD000F9009091FA00892B41F780E197E2909314
:100FE000FA008093F90084E065D960915501709111
:100FF000560186179707C9F284E049D9089510B8B9
:1010000012B816BE88EF81B981E390E0A8950197E8
:101010002FEF8F3F9207D1F78FE780B987EC90E0F1
:10102000A89501972FEF8F3F9207D1F78AEF809312
:101030002801809329010895809111018770809380
:10104000360108958091D400882369F10ADB20914C
:10105000FF00309100018091F2009091F300281B75
:10106000390B37FD25C02B303105E0F48091DC00D1
:101070009091DD00CD97B0F48091C5009091C600AD
:10108000899780F480911901806180931901809182
:10109000070182FF05C08091E100806A8093E10032
:1010A0001092F600089586DD84E18093D400CECFBF
:1010B000309521953F4FD7CF8091D4008823D1F030
:1010C000BBDA8091FB009091FC00CD9790F4809169
:1010D0007A0090917B00899760F48091E1008061B3
:1010E0008093E10080911901806280931901109230
:1010F000F600089581DD84E18093D400E1CF1F9351
:101100001091410180910701282F30E0A90144701E
:10111000507082FD05C08091E1008F7D8093E100D9
:1011200020FD03C01F7E1092F600452B69F421FFBD
:1011300024C08091190180FF3DC01F7E8091E10095
:1011400080FF17C0B9DF15C08091E100482F80FFF4
:101150000DC021FF22C09091190195FF05C09E7C12
:10116000909319011E7F106145FF03C08E7E80930E
:10117000E100109341011F9108958091E10080FDED
:1011800020C09091190190FFF4CF8091090182FD58
:10119000F0CF906190931901ECCF8F7D8093E100A7
:1011A0008091190180FFE5CF109341014BDF109131
:1011B0004101DFCF8F7E80931901109341011F9170
:1011C000089580618093E100109341011F9108957B
:1011D000E0913701E8272E2F30E0C901865D9F4F4F
:1011E000FC0194918091F100982790933701265D3E
:1011F0003E4FF90184918093F10008950F931F935E
:10120000082F8FEF809337018093F10010E0E12FDA
:10121000F0E0E954FF4F8081DBDF1F5F0117B8F773
:101220001F910F910895982F21E02093B7008130EE
:1012300009F440C08130E0F486E08093B800109259
:10124000B9001092BA00909151018091520180939F
:10125000BB009093BC0085E0D1DF80913701809383
:10126000BD008091F1008093BE0087E030DB0895DF
:10127000823009F008958FE08093B8001092B90091
:101280009093BA001092BB0084E08093BC0020933E
:10129000BD00809127018093BE0087E0AFDF809181
:1012A00037018093BF008091F1008093C00089E0F6
:1012B0000EDB089586E08093B8001092B9009093F9
:1012C000BA009091DA008091DB00C1CF20917B01C0
:1012D00030917C0140917D0150917E018091F80018
:1012E00090E08E36910518F02436310520F484E61E
:1012F0008093650108958B3A9105E0F384E680932D
:101300006501F8CF84E0D6D79093560180935501BC
:101310008B3F910530F086EE90E0909356018093DC
:1013200055018091550190915601909352018093FF
:10133000510186E0BFD79093EF008093EE008B5E63
:101340009040849730F080E091E09093EF0080939C
:10135000EE0008959F92AF92BF92CF92DF92EF92EC
:10136000FF920F931F93CF93DF931ABA1BBA80E6B5
:1013700087BB83EF88BB8CEF84BB9FEF95BB82EB71
:1013800081BB92BB8FE780B982E88EBD41D98AE0EC
:1013900088B983EC85BF8BB780688BBF8BB78064BF
:1013A0008BBF85E083BF82E085BD89B7846689BF36
:1013B00012BC77DAA7DF1BB88CE18AB986E880BD5A
:1013C00010BC87E689B95D9903C0A8955D9BFDCFE8
:1013D000579A81E08093580110921B0110921A01D4
:1013E0001092F600109241010ADE789410921901D1
:1013F0001092E1001092180110921701AFE0BA2E7E
:10140000DD24DA94F2E0AF2EECECEE2EF12CC4E009
:10141000D1E008EC10E074E6C72E9924939431C013
:10142000D0935201C0935101809155019091560182
:1014300021E08530920708F4D1C0D0935601C093C3
:1014400055011093DB000093DA008091190181713E
:1014500009F45BC08091070185FF57C08091270187
:1014600081608D7F809327018091E000882309F4BB
:1014700057C081508093E00080915901882309F082
:1014800060C0A8958091E100817161F480910701AD
:1014900085FD08C0809155019091560190935201AD
:1014A0008093510180911601882399F4809157010E
:1014B000882309F49EC08150809357011092F50053
:1014C00080915701B0DEB0921601D092CB00D0923D
:1014D000D90080911101877080933601D7D880910F
:1014E0000D0180FD84C0809151019091520121E055
:1014F0008530920708F094CF8C3C910508F094CF8A
:10150000F0925201E09251018FCF809127018260C9
:101510008E7F809327018091E000882309F0A9CF76
:10152000C092E00080915801882309F465C01092B0
:101530005801A89542D988D780915901882309F488
:10154000A0CFC4DE80E058DA909300018093FF00C2
:1015500081E052DA90931D0180931C0182E04CDA05
:101560009093F3008093F2008091C5009091C600A3
:101570009093DD008093DC0083E058DA9093C600FE
:101580008093C50080917A0090917B009093FC003D
:101590008093FB0084E04ADA90937B0080937A008A
:1015A00038DCFFDB5DD980912001882349F48091EC
:1015B0002A0190912B018F7B90932B0180932A011C
:1015C000809136018130D9F485B38C6F85BB109240
:1015D0001B0110921A011092590153CF8C3C9105B6
:1015E00008F02FCFF0925601E09255012ACF59D939
:1015F0007ACFA092570162CF909258019ACFE5DB43
:10160000F6DB41DB8091D7008823B1F083DC88DAF8
:1016100076DD80913601823049F0833049F08130A7
:1016200099F28130C1F29EDB09DBD5CF1092F60032
:10163000A1DC80913601F5CF85DCE8CFCF93DF9335
:10164000482F823009F451C08EB5887F8EBD6CB5AD
:101650007DB58EB582608EBD4330A1F1C42FD0E040
:10166000DE01AA0FBB1FFD01E453FF4F2081318132
:10167000AE0149535F4FFA018081882371F08130B8
:1016800049F0FD01E45DFE4FCB01821B930B91837A
:1016900080830AC062177307A0F3FD01E45DFE4F6B
:1016A0008FEF9FEF91838083A453BF4F6D937C9303
:1016B000CF53DF4F88E7888382E0FA018083DF9190
:1016C000CF9108957093030160930201809102010C
:1016D000909103012091D5003091D600821B930B8D
:1016E0009093F8008093F700B9CF66B577B5709303
:1016F000D6006093D500B2CF1F920F920FB60F9213
:1017000011241F932F933F934F935F936F937F9376
:101710008F939F93AF93BF93CF93DF93EF93FF93F9
:1017200064B175B11091D800103109F4AAC012311A
:1017300009F453C0163009F4F5C0E12FE35080914D
:10174000530190915401009709F44FC00197909371
:101750005401809353018150944028F5103150F08A
:1017600032E06030730730F08FEF93E09C01261B6E
:10177000370BB901E53009F48AC0F0E0EE0FFF1F26
:10178000EE0FFF1FE156FF4F2081318142815381CF
:10179000CB01A0E0B0E0820F931FA41FB51F808390
:1017A0009183A283B38380910101882309F062C0F1
:1017B000369AFF91EF91DF91CF91BF91AF919F91B9
:1017C0008F917F916F915F914F913F912F911F91D9
:1017D0000F900FBE0F901F901895E4E08091530179
:1017E00090915401009709F0B1CF81E080930101FD
:1017F000E53009F47AC0CE2FD0E0CC0FDD1FCC0F3E
:10180000DD1FFE01E156FF4F80819181A281B381EE
:10181000FE01E959FE4F27E0B695A7959795879564
:101820002A95D1F780839183A283B383C156DF4F7A
:10183000188219821A821B828FEF9FEF90931F01EB
:1018400080931E0182E094E09093540180935301B1
:1018500090919E00191709F43FC081E080935901CF
:10186000943088F486E080939E0080919E0080935F
:10187000D800182F87B1807E812B87B91092010183
:1018800097CFE3E05CCF915090939E00EECF9B0109
:1018900040E050E08091B3009091B400A091B50079
:1018A000B091B60082179307A407B50740F42093C0
:1018B000B3003093B4004093B5005093B6008091CC
:1018C0001E0190911F016817790708F06CCF709383
:1018D0001F0160931E0167CF8091070181FF24C023
:1018E00082E18093D80012E1C5CF2091B3003091FE
:1018F000B4004091B5005091B60080911E019091C6
:101900001F01A0E0B0E0281B390B4A0B5B0B2093B2
:101910007B0130937C0140937D0150937E01C4E1B3
:10192000D0E084CFE5E00BCF80E18093D80010E1D8
:10193000A1CF1F920F920FB60F9211242F933F93B6
:101940004F935F936F937F938F939F93AF93BF93C7
:10195000EF93FF9382E072DE88B7806288BF89B719
:101960008F7D89BF439AFF91EF91BF91AF919F9176
:101970008F917F916F915F914F913F912F910F9038
:101980000FBE0F901F9018951F920F920FB60F92D7
:101990001124EF92FF921F932F933F934F935F93E6
:1019A0006F937F938F939F93AF93BF93CF93DF9367
:1019B000EF93FF9380911601882319F08150809353
:1019C00016018091FE00882309F4ADC081508093F8
:1019D000FE008091F000882319F081508093F00080
:1019E0008091E10084FD9BC08091D700882309F09D
:1019F000B9C08091D400882319F081508093D4001D
:101A00008091FD00882309F497C08091FD008150EA
:101A10008093FD008091FD00813009F498C08130F1
:101A200008F098C080D58091DE00482F50E0E7ECA8
:101A3000F0E0A0E2B1E0CCE2D1E020E030E06FEFF6
:101A40007FEF14E1922F8081882309F494C08150A4
:101A500080837A0102C0F594E7949A95E2F7E0FE5C
:101A600088C08C91882311F081508C932F5F3F4F59
:101A70003196119622962430310521F78091DF00AE
:101A8000482F50E0AAE5B1E020E030E00BC08C9197
:101A9000882311F081508C932F5F3F4F119628308F
:101AA0003105A1F0CA01022E02C0959587950A94CE
:101AB000E2F780FDECCFF901E459FF4F80818C9370
:101AC0002F5F3F4F11962830310561F7E2E6F1E0D4
:101AD0008081882311F081508083319681E0E63641
:101AE000F807B1F780918B01882319F0815080931A
:101AF0008B01FF91EF91DF91CF91BF91AF919F91BA
:101B00008F917F916F915F914F913F912F911F9195
:101B1000FF90EF900F900FBE0F901F90189582E0EE
:101B20008093D70066CF8FEF8093CB008093D9004E
:101B300083E18093FE004DCF83E08093FD0081E040
:101B4000809350018091FD00813009F068CFC598E5
:101B5000C69A69CF823091F0833041F083E0809360
:101B6000FD0061CF81508093D70043CFC698C59ABE
:101B70005ACF1C937BCF798368836BCFE9D453CF43
:101B80001F920F920FB60F9211242F933F934F93F2
:101B90005F936F937F938F939F93AF93BF93EF93D5
:101BA000FF9380E04BDD8AB780688ABF8BB78F7761
:101BB0008BBFFF91EF91BF91AF919F918F917F91DB
:101BC0006F915F914F913F912F910F900FBE0F90AA
:101BD0001F9018951F920F920FB60F9211242F93FA
:101BE0003F934F935F936F937F938F939F93AF93A5
:101BF000BF93EF93FF9381E021DD8AB780648ABFB2
:101C00008BB78F7B8BBFFF91EF91BF91AF919F916E
:101C10008F917F916F915F914F913F912F910F9095
:101C20000FBE0F901F9018951F920F920FB60F9234
:101C300011242F933F934F935F936F937F938F93D1
:101C40009F93AF93BF93EF93FF938091F90090918F
:101C5000FA00009729F001979093FA008093F90019
:101C6000809129018823C1F18150809329018091BD
:101C7000C100882329F081508093C100813081F117
:101C80008091C200882329F081508093C200813066
:101C900071F18091C300882329F081508093C300A3
:101CA000813061F18091C400882329F081508093B4
:101CB000C400813099F0FF91EF91BF91AF919F9156
:101CC0008F917F916F915F914F913F912F910F90E5
:101CD0000FBE0F901F90189592D9C9CF439AEBCFA2
:101CE0008AB780688ABF8BB780688BBFC9CF8AB735
:101CF00080648ABF8BB780648BBFCBCF89B780628B
:101D000089BFD0CF1F920F920FB60F9211242F933D
:101D10003F934F935F936F937F938F939F93AF9373
:101D2000BF93EF93FF930CD6FF91EF91BF91AF91CB
:101D30009F918F917F916F915F914F913F912F91E3
:101D40000F900FBE0F901F9018951F920F920FB615
:101D50000F9211242F933F934F935F936F937F9331
:101D60008F939F93AF93BF93EF93FF9383E066DCD2
:101D70004398FF91EF91BF91AF919F918F917F9188
:101D80006F915F914F913F912F910F900FBE0F90E8
:101D90001F901895629FD001739FF001829FE00D04
:101DA000F11D649FE00DF11D929FF00D839FF00DDA
:101DB000749FF00D659FF00D9927729FB00DE11D86
:101DC000F91F639FB00DE11DF91FBD01CF01112463
:101DD0000895A1E21A2EAA1BBB1BFD010DC0AA1F6C
:101DE000BB1FEE1FFF1FA217B307E407F50720F084
:101DF000A21BB30BE40BF50B661F771F881F991FFF
:101E00001A9469F760957095809590959B01AC0147
:0A1E1000BD01CF010895F894FFCF43
:101E1A00640A00C800C80028001027FAFAFAFAFA79
:0A1E2A00646464FA1E1E1E64640066
:00000001FF
