:1000000014C02EC02DC02CC02BC02AC029C028C0AF
:1000100076C426C025C01DC523C022C021C020C073
:100020001FC01EC01DC01CC01BC011241FBECFE5B9
:10003000D2E0DEBFCDBF10E0A0E6B0E0ECE9FAE030
:1000400002C005900D92AE36B107D9F711E0AEE6C9
:10005000B0E001C01D92A931B107E1F78FD31CC5F3
:10006000CFCF80916E0090916F00807EB79B8160B2
:10007000B09B8260B19B8460B49B8860CF9B8061A1
:1000800090936F0080936E0008951F93CF93DF933A
:1000900080916E0090916F00BC016F717070B79B82
:1000A0006062B09B6064B19B6068B49B7160CF9BE1
:1000B0007260C99B7460CA9B7860CB9B7061CC9B5B
:1000C00070626817790781F080919400882321F489
:1000D0001092D2001092D10070936F0060936E0066
:1000E000DF91CF911F910895C091CF00D091D000A2
:1000F000D093DB00C093DA007093D0006093CF0000
:1001000010919400E091D100F091D20040E050E0D5
:10011000A1E0B0E09D01042E02C0220F331F0A941B
:10012000E2F7CB0182239323892B41F0C9018C2371
:100130009D23892B19F4E22BF32B1EE14F5F5F4FB8
:100140004E30510539F710939400F093D200E093AC
:10015000D100BACFCF93DF93AAE0B1E0FD0190E0E8
:100160008191980F81E0E431F807D1F7809109017E
:10017000891719F0DF91CF910895C2EBD0E091E09B
:100180008C9189939D93EA17FB07D1F78FEF8093AA
:1001900009018AE08093DF00DF91CF91089506B6D0
:1001A00007FC0FC0A8958091910090919200009754
:1001B00021F40FC0A895009761F0019706B607FEDD
:1001C000F9CF88E893E1909392008093910081E0C9
:1001D000089588E893E1909392008093910080E0E5
:1001E000089581B1887F803609F181B1887F803898
:1001F00061F081B1887F883A11F181B1887F883BB5
:1002000051F186B7806886BF08959091730083B1DD
:10021000E92FF0E0E75FFE4F8083992371F0915062
:100220009093730086B7806886BF08958AE08093B4
:10023000730086B7806886BF08958CDFE2CF8AE0BE
:10024000809395001092FD008091EB0083B986B7F2
:10025000806886BF0895E0919500EE2339F480917F
:10026000E10083B981E08093FD00CBCFE150E093C2
:100270009500F0E0EF51FF4F808183B9C2CF10921B
:10028000E100E2EEF0E081919091E100890F80932E
:10029000E10080E0EC3EF807B1F7089520919E0060
:1002A00090919F0080919B008093E20020FF1BC0F3
:1002B0002093E300809174008F718093E40020917B
:1002C000CF003091D00035FF03C080628093E400FE
:1002D0003093E5008091E3008093E6008091E00098
:1002E0008093E700089590FF03C09093E300E2CF6E
:1002F0009F709093E300DECF8CB18BB182728BB98B
:1003000087E08093830008951BB8589A8CE18AB9DE
:1003100010BC87E689B986E880BD579A93980895FE
:10032000DF93CF930F92CDB7DEB7939A84E689839C
:100330008981882331F0898181508983898188234B
:10034000D1F781E08BB919825D9903C0A8955D9BB7
:10035000FDCF509A89818CB910927F000F90CF9178
:10036000DF910895DF93CF930F92CDB7DEB79398C7
:1003700085E08093DC005F9904C00F90CF91DF91FE
:1003800008958BB12AB190B59CB1E0918300F0E063
:10039000EC53FF4F90838C71A9F521FF3EC09093E1
:1003A0009300933008F0A6C099838981880F8983D0
:1003B0008981809589838981895F8093FE009093EC
:1003C000FC0086E080938300589850989923A9F602
:1003D000939AE0918300F0E0E354FF4FE0815D9950
:1003E00003C0A8955D9BFDCF5098ECB9E0918300C8
:1003F000F0E0E354FF4F80917F009081890F80935C
:100400007F00BBCF8CB18BB182728BB987E08093B8
:1004100083000F90CF91DF9108958091830088230E
:1004200009F04AC0589A93988091FC00981709F0F7
:10043000A4CF80919300482F50E0FA01EE0FFF1FE8
:10044000E150FF4F24E630E031832083882319F008
:1004500084E18093DE00485F5F4F81E090E0042EEE
:1004600002C0880F991F0A94E2F7485050408095C7
:1004700090952091E00028232093E00081E089837B
:100480008981873008F079CF8981A98190E0FC01CA
:10049000EE0FFF1FE80FF91FE40FF51FE956FF4F9E
:1004A000B0E0AC53BF4F8C91808389818F5F89838B
:1004B0008981873048F361CF8091FC00890F809358
:1004C000FC00809183008150809383008091930091
:1004D000882309F052CF939A5D9903C0A8955D9B3C
:1004E000FDCF80918300882349F4509880917F004C
:1004F0008CB943CF87E08093FE003FCFE09183002B
:10050000F0E0E354FF4F808150988CB96FCF929AFE
:10051000DE9A8091740080FF0FC0959882FF0FC013
:10052000979884FF0FC0DD98DE9A81FF0FC09698E0
:1005300083FD0FC0D89A0895959A82FDF1CF979ABE
:1005400084FDF1CFDE98DD9A81FDF1CF969A83FF8D
:10055000F1CFD89808955091E000EFEFF0E020E05F
:1005600030E061E070E080819181892B41F4CB0122
:10057000022E02C0880F991F0A94E2F7582B2F5FB2
:100580003F4F32962430310571F75093E0000895C3
:100590001092E00084E690E0909300018093FF00C9
:1005A00090930201809301019093040180930301D1
:1005B0009093060180930501089585B38C6085BBF7
:1005C00008952091CF003091D00035FF19C01092CE
:1005D000E2001092E3008091740082FD15C0AC9A95
:1005E000AC9902C033FD0BC088EE93E090930601F6
:1005F000809305018091E000877F8093E00008955B
:100600008091E30081FFEBCFAC98EACF809174003A
:1006100083FD04C08091B40086FD02C0AE9A0895A7
:10062000AE9808958091B40087FD02C0AF980895F8
:10063000AF9A08958091E30082FD02C0C39A0895A5
:10064000C39808958091CF009091D00095FF06C087
:100650008091B50080FF10C0AD9808958091A400EE
:1006600090E083709070892BB9F78091A50090E09D
:1006700083709070892B81F7AD9A089510928B004A
:100680001092FB001092F8002091B2008091CF00F0
:100690009091D00092FD0EC02F772093BE008091E4
:1006A000B3008093BF001092C0008091B50080938A
:1006B000C100089520682093BE00F1CF8091D10041
:1006C0009091D20081FF0CC02091740020FD4CC09D
:1006D0002160209374008D7F9093D2008093D1008D
:1006E00086FF0CC02091740021FD3AC02260209347
:1006F00074008F7B9093D2008093D10082FF0CC056
:100700002091740022FD28C02460209374008B7F08
:100710009093D2008093D10087FF0CC02091740089
:1007200023FD16C02860209374008F779093D20029
:100730008093D1008091CF009091D00083FD18C0AC
:1007400090FF05C0809174008F7E8093740008959F
:10075000277F20937400E9CF2B7F20937400D7CF9D
:100760002D7F20937400C5CF2E7F20937400B3CFCC
:10077000809174008061809374000895DF92EF92FD
:10078000FF920F931F93CF93DF9381E68ABB9FEF76
:100790009BBB88E687BB98BB8CEF84BB95BB8EEF79
:1007A00081BB87EF82BB15BC1FBC13BE8FE780B92E
:1007B00082E08EBD89B7846089BF86E082B984E417
:1007C00086BF78948AE090E09093900080938F00A9
:1007D000E2EBF0E0119220E0EC3BF207D9F781E088
:1007E0008093CC0080E1809374008AE08093DF00E6
:1007F00085E08093940088E191E09093EE008093EF
:10080000ED0082DD84E68093DE001092E00084E655
:1008100090E0909300018093FF00909302018093F9
:10082000010190930401809303019093060180934A
:100830000501C4E6D0E018EF0FE766E0F62E54E4B9
:10084000E52E4AE0D42E07C006B607FC30C08091E2
:10085000DF008823B1F1A8958091B40085FF12C014
:100860001092E000D0930001C093FF00D0930201EA
:10087000C0930101D0930401C0930301D0930601FA
:10088000C0930501FBDE67DE19DF41DE85B38C60B6
:1008900085BB97DEBBDEC6DECDDED4DE8091FD00FB
:1008A000882391F2FBDCEBDC06B607FED0CF99DCA7
:1008B00080917B008F5F80937B008091DF00882395
:1008C00051F610B812B816BE11B981E390E0A895A0
:1008D00001972FEF8F3F9207D1F700B9F2B8E6BE2C
:1008E000D092DF0087EC90E0A89501972FEF8F3F23
:1008F0009207D1F79093D6008093D500ACCF1F928A
:100900000F920FB60F9211242F933F934F935F9343
:100910006F937F938F939F93AF93BF93EF93FF93C7
:1009200080919400882319F08150809394008091E5
:10093000AE00882309F45EC08091AE0081508093A0
:10094000AE008091AE00813009F45CC0813008F0C7
:100950005CC087DB939B08C08091DC00882309F48E
:100960005FC081508093DC008091DC00882309F413
:1009700057C08091DE00882309F45BC081508093CA
:10098000DE008091FE00882309F45CC081508093D2
:10099000FE00809184008F5F809384008091DF004F
:1009A000882319F081508093DF00EFEFF0E0808121
:1009B0009181009719F0019791838083329681E0AD
:1009C000E730F807A1F784E090E090938D008093E2
:1009D0008C00FF91EF91BF91AF919F918F917F918B
:1009E0006F915F914F913F912F910F900FBE0F909C
:1009F0001F90189583E08093AE008091AE00813007
:100A000009F0A4CFC598C69AA5CF823001F18330F2
:100A100021F083E08093AE009DCFC698C59A9ACF0F
:100A2000939885E08093DC008091DE00882309F0B4
:100A3000A5CF6ADC82E38093DE008091FE008823EC
:100A400009F0A4CF6DDC87E08093FE00A2CF1DDB10
:100A500081CF1F920F920FB60F9211242F933F93C5
:100A60004F935F936F937F938F939F93AF93BF93B6
:100A7000EF93FF9377DCFF91EF91BF91AF919F913F
:100A80008F917F916F915F914F913F912F910F9037
:0C0A90000FBE0F901F901895F894FFCF38
:0E0A9C00640006F4010788130A6400E80300F2
:00000001FF
