:100000001CC035C0EBCA33C0A1CB31C08ACB2FC0D6
:100010002EC024CCD3CB2BC02AC029C007CB27C0ED
:10002000BCCA25C024C023C022C0E7CBE9CBEBCBA0
:10003000EDCBEFCBF1CBF3CBF5CB11241FBECFE54E
:10004000D2E0DEBFCDBF11E0A0E6B0E0E8EBFAE120
:1000500002C005900D92AE31B107D9F711E0AEE1C3
:10006000B1E001C01D92A939B107E1F73DC6C8CF83
:100070006817790710F4CB0108958417950708F4E1
:10008000CA01089508959C0180914E0190914F01FD
:10009000892BC9F48091630181FF09C02F5F3F4F15
:1000A00084E190E090934F0180934E010CC08091C9
:1000B000630182FF08C02150304084E190E09093BA
:1000C0004F0180934E01C901089590E0999B91E002
:1000D0009E9B92609A9B94609C9B98609B99906178
:1000E000829B9062839B9064819B906880911F01AA
:1000F000981711F49093630190931F010895FC01E8
:1001000087E2E031F80710F0EFE0F7E228EE33E0A5
:10011000CF01B901BDDC60937601CF01B901B8DC34
:10012000FC0124E630E0B901B3DC60937501CF0136
:10013000B901AEDCFC012AE030E0B901A9DC609332
:100140007401CF01B901A4DC809373010895603478
:1001500022E472072FE0820720E0920720F06FE38D
:1001600072E48FE090E020E030E0603A46E8740707
:1001700041E0840740E0940770F0605A764881407F
:1001800090402F5F3F4F603A46E8740741E0840794
:1001900040E0940790F72093780120E030E0603150
:1001A00047E2740740E0840740E0940770F0605134
:1001B0007742804090402F5F3F4F603147E27407A5
:1001C00040E0840740E0940790F720937701CB014B
:1001D00096DF08951FBA8EBBE09AE099FECF8DB3EB
:1001E00099270895DF92EF92FF920F931F93D82ED5
:1001F0008E5FF0DFE82EFF24002711278701FF2400
:10020000EE248D2D8F5FE6DF9927982F8827AA2768
:10021000BB27E82AF92A0A2B1B2B8D2DDBDF992718
:10022000AA27BB27E82AF92A0A2B1B2BC801B701EA
:100230001F910F91FF90EF90DF90089580918701BB
:100240009091880163E070E023DC8091540199274C
:10025000869FA001879F500D969F500D1124CA01C3
:10026000880F892F881F990B9195860F971F909360
:100270003F0180933E010895809183019091840114
:1002800065E070E005DC809165019927869FA001FB
:10029000879F500D969F500D1124CA010024880F8E
:1002A000991F001C880F991F001C892F902D860F05
:1002B000971F90936201809361010895809181015D
:1002C000909182019C012E5F3F4F8091610190913E
:1002D00062012817390760F4809148019091490123
:1002E0000097E9F0019790934901809348010895A0
:1002F00080918101909182019C0122503040809137
:100300006101909162018217930748F4809148013E
:100310009091490101969093490180934801089575
:1003200008958091610190916201AC010024440F15
:10033000551F001C440F551F001C452F502D809148
:100340006D0190916E018417950720F0841B950B29
:10035000AC0102C040E050E060E070E0E0E0CA01C3
:10036000039720913E0130913F012817390728F467
:10037000BA01621B730BE1E00CC0CA010396209125
:100380003E0130913F018217930718F4B901641BB5
:10039000750B6031710538F07695679576956795A0
:1003A0007695679507C0672B19F061E070E002C091
:1003B00060E070E08E2F9927009719F00197D9F02F
:1003C000089580913E0190913F014817590750F5DB
:1003D00080914801909149018617970738F0861B54
:1003E000970B909349018093480108951092490119
:1003F00010924801089580913E0190913F01841729
:10040000950780F480917F01882311F061E070E00E
:100410008091480190914901860F971F909349015F
:10042000809348010895089580916101909162013F
:100430009C010024220F331F001C220F331F001CBD
:10044000232F302D80916D0190916E01821B930BB3
:100450009C0180915D01813061F42D5F3F4F80915F
:100460003E0190913F0128173907A0F410925D01D9
:1004700011C080918101909182019C012C5F3F4FBE
:1004800080916101909162012817390718F481E089
:1004900080935D0180915D01813011F40FDF01C017
:1004A00040DF80914801909149018434910530F0FA
:1004B00083E490E090934901809348010895089562
:1004C00080EC87B98AE08093790110924A0116B8CE
:1004D000379A329A319A339A369A0895CF93DF93A6
:1004E000CDB7DEB7C158D0400FB6F894DEBF0FBE0F
:1004F000CDBF81E8ACE9B0E0FE0131960D900192EC
:100500008A95E1F74AE050E020918501309186011B
:10051000249FC001259F900D349F900D1124292FF9
:1005200033278091850190918601280F391F3695D8
:100530002795369527953695279560918901709175
:100540008A01649FC001659F900D749F900D1124D6
:10055000692F77278091890190918A01680F791F0F
:100560007695679576956795769567958DE790E092
:10057000689FA001699F500D789F500D1124CA01FA
:10058000B90186DA6138710510F060E870E0FE01AB
:10059000E60FF71F818199279093460180934501CB
:1005A000CF57DF4F0FB6F894DEBF0FBECDBFDF9140
:1005B000CF91089528B539B58091480190914901AE
:1005C0002817390721F1AC0166EA70E0E2E0A8954E
:1005D00080916C018823B1F428B539B542175307CF
:1005E00018F42150304005C02417350710F42F5F50
:1005F0003F4FCB01821B930B39BD28BD9BBD8ABDEC
:10060000E0936C0188B599B58417950701F70895B3
:10061000809148019091490126EA30E0281B390B6E
:1006200099BD88BD3BBD2ABD089597EF88B1892348
:1006300088B980B7892380BF88B1807388B988B1B1
:100640008C7F88B988B1836088B9439A089583E61E
:1006500080938F0110929001109291018091450139
:10066000909146014CDD809175012DE830E0F90153
:10067000E80FF11D80818093920180917401F9014E
:10068000E80FF11D80818093930180917301F9013E
:10069000E80FF11D808180939401089580915501A8
:1006A000909156012CDD809175012DE830E0F90123
:1006B000E80FF11D808180938F0180917401F90111
:1006C000E80FF11D80818068809390018091730113
:1006D000F901E80FF11D80818093910108958091C7
:1006E0007101909172010BDD809175012DE830E070
:1006F000F901E80FF11D808180938F0180917401D1
:10070000F901E80FF11D808180688093900180914C
:100710007301F901E80FF11D808180939101089523
:1007200080913B0190913C01EADC809175012DE8BC
:1007300030E0F901E80FF11D8081809392018091F2
:100740007401F901E80FF11D8081806880939301A5
:1007500080917301F901E80FF11D8081809394016C
:1007600008958091670190916801C9DC80917501BD
:100770002DE830E0F901E80FF11D808180939201AE
:1007800080917401F901E80FF11D808180688093E8
:10079000930180917301F901E80FF11D808180932D
:1007A0009401089580915001909151016AE070E0A8
:1007B0006FD9CB01A4DC87E780938F011092900161
:1007C000809176012DE830E0F901E80FF11D80817C
:1007D0008093910180917501F901E80FF11D8081ED
:1007E0008093920180917401F901E80FF11D8081DD
:1007F00080688093930180917301F901E80FF11DE6
:10080000808180939401089580918B0190918C0157
:10081000A0918D01B0918E01BC01CD0198DC809139
:1008200078012DE830E0F901E80FF11D8081809317
:100830008F0180917701F901E80FF11D808180938C
:10084000900180917601F901E80FF11D808180937C
:10085000910180917501F901E80FF11D808180936C
:10086000920180917401F901E80FF11D8081806887
:100870008093930180917301F901E80FF11D80814C
:10088000809394010895A895E199FECF07B600FCE6
:10089000FDCF8EBB1FBA6DBB8FB780932001F8943C
:1008A000E29AE19A8FBFE199FECF07B600FCFDCF37
:1008B0000895DF92EF92FF920F931F93D82E7A0143
:1008C0008B01642FE0DFEF2CF02E012F11276E2D0E
:1008D0008D2D8F5FD8DFEF2CF02E012F11276E2D7D
:1008E0008D2D8E5FD0DF1F910F91FF90EF90DF90E5
:1008F000089580E177DCDC01CB0180938B0190933C
:100900008C01A0938D01B0938E0180549244AF402E
:10091000B04040F010928B0110928C0110928D012A
:1009200010928E0184E056DC80934101853010F0F6
:10093000109241018091410180933401089580918A
:1009400097019091980182FF09C0A8DE87E7809304
:100950009201109293011092940108958091970151
:100960009091980180FF09C099DE86E780939201FB
:1009700010929301109294010895809197019091A3
:10098000980186FF0FC08EE380938F018BE58093E3
:100990009001109291011092920110929301109285
:1009A00094010895809197019091980181FF0FC063
:1009B0008EE380938F0186E08093900110929101E5
:1009C00010929201109293011092940108958091D7
:1009D0009701807A71F062DE80916F01882311F0B7
:1009E0009FDE08951092920110929301109294014B
:1009F00008958091970190919801892F992780FF00
:100A00000FC08EE380938F018FE38093900110924B
:100A10009101109292011092930110929401089505
:100A2000809197019091980184FF02C010DE089593
:100A3000809197019091980183FF0EC08EE380937F
:100A40008F0189E38093900110929101109292019D
:100A500010929301109294010895089590917D0150
:100A6000992309F0E2C090935A0180916F01882385
:100A700019F090936F0103C081E080936F0182E3CE
:100A800080937D0180913401823060F4809148012F
:100A900090914901892B31F080915A0182618093B4
:100AA0005A010FC080913401843059F4809148017B
:100AB00090914901892B29F080915A018660809399
:100AC0005A018091630181FF12C08091630182FF0E
:100AD0000EC080914B01882311F0B9DD08958091FB
:100AE0003401833010F45EDE08958EDE0895809127
:100AF0001E01853171F480915A01886080935A01FA
:100B0000CDDD8EE3809392011092930110929401B7
:100B1000089580911E01843171F480915A0188609A
:100B200080935A01FDDD87E780938F011092900139
:100B300010929101089580911E01863171F4809187
:100B40005A01816080935A01CADD8EE3809392013D
:100B50001092930110929401089580911E018731A3
:100B6000F9F480915A01816080935A018091670164
:100B7000909168018159914010F4F3DD09C086E637
:100B8000809392018FE38093930187E38093940194
:100B900087E780938F011092900110929101089540
:100BA00080911E01843168F48091630182FF09C045
:100BB00096DD8EE38093920110929301109294013E
:100BC000089580911E018431F0F48091630181FFCA
:100BD0001AC080916701909168018159914010F489
:100BE000C0DD09C086E6809392018FE38093930174
:100BF00087E38093940187E780938F01109290019F
:100C000010929101089584E080934B0180919701A7
:100C100090919801892B39F080915A0180628093DC
:100C20005A018DDE08953ADD7BDD089508958091A7
:100C30008B0190918C01A0918D01B0918E01805417
:100C40009244AF40B04040F010928B0110928C0162
:100C500010928D0110928E0180E1C4DADC01CB018B
:100C600040918B0150918C0160918D0170918E01AA
:100C7000481759076A077B0711F080E11ADE0895CB
:100C8000089584E0A7DA60914101681711F084E0CB
:100C9000FADD089508951092490110924801B8DCD8
:100CA00028DE1092510110925001809187008093AC
:100CB000360185E090E090935301809352011092A9
:100CC0007C01109298011092970182B3806582BBDB
:100CD00089B7806189BF84E18093210183E080939B
:100CE0007F01809340010895CFE5D2E0DEBFCDBF04
:100CF00082EA87BB88B3836F88BB80EA84BB85B3F5
:100D00008FEF85BB80E881BB8FE782BB1EB882E78F
:100D10008DB96F9A86EA90E097BD86BD82EB8FBD54
:100D200081E18EBD109249011092480171DC89E881
:100D300092E090936A0180936901A89501972FEF43
:100D40008F3F9207D1F790936A018093690180EBFE
:100D500081BB88E085BF8BB780688BBF85E083BF90
:100D600089B7816089BF84E085BD89B7806489BF08
:100D7000A7DB5BDC90DF7894A8D910927B011092FE
:100D8000980110929701E6E8FBE185919491909388
:100D9000720180937101E4E8FBE185919491909355
:100DA000680180936701E2E8FBE18591949180936B
:100DB0005401ECE8FBE18591949180936501EAE8A8
:100DC000FBE18591949180935701E8E8FBE18591DF
:100DD000949180937E0110925D0177D98091630197
:100DE000992787709070079721F484E180931E0102
:100DF0000DC080916301992787709070069721F448
:100E000086E180931E0102C010921E0110926001C3
:100E100010925F0180916301992787709070892BF0
:100E200009F462C0C1E0D0E014E10EE3FF2468944D
:100E3000F3F80F2EF7E7EF2EF02D82E080933D01BF
:100E40002ADF80915F0190916001892B09F042C0F7
:100E5000A895D0936001C0935F0110929001109209
:100E60009101109292011092940183E080937F018E
:100E70001093210180911E01992785319105A1F0E0
:100E8000863191051CF4449739F024C086319105D0
:100E900091F04797C1F01EC000938F01F092950129
:100EA00085E180931E0116C0E0928F01F0929501BA
:100EB00010931E010FC0E0928F01C093950187E14E
:100EC00080931E0107C000938F01C093950186E1B6
:100ED00080931E01A895F9D88091630199278770A6
:100EE0009070892B09F0A9CFA89540EF50E06CE2F3
:100EF00071E08091710190917201BAD89093720162
:100F000080937101909329018093280142E350E07E
:100F100061E971E08091670190916801A9D890938F
:100F20006801809367019093270180932601809147
:100F3000540144E150E064E670E0992799D8809329
:100F40005401992790932501809324018091650194
:100F500041E050E068EC70E099278AD88093650101
:100F6000992790932F0180932E018091570141E0A2
:100F700050E062E870E099277BD880935701992769
:100F800090932D0180932C0180917E0141E050E0EF
:100F900064E670E099276CD880937E01992790933E
:100FA0002B0180932A0180913D01882331F4CFD613
:100FB0003EDE67DE82E080933D0150DD809163017B
:100FC00085FF09C08091970190919801846090936A
:100FD0009801809397018091630180FF26C08091E2
:100FE0003401843071F480916B0180FD18C010923F
:100FF000410110923401809159018F5F8093590112
:101000000EC080916B0180FD0AC084E08093410195
:1010100080933401809159018F5F809359018091B1
:101020006B01816080936B010CC080915E0188230D
:1010300041F480916B018E7F80936B0182E38093FA
:101040005E0143D880916301992786709070892B47
:1010500019F084E18093210180912101882311F40A
:1010600080931E018091700180FF92C280913E01A9
:1010700090913F0120915501309156012817390771
:1010800038F4C9010196909356018093550111C01F
:1010900080913E0190913F01209155013091560180
:1010A0008217930730F4C9010197909356018093FA
:1010B0005501809161019091620120913B01309135
:1010C0003C012817390738F4C901019690933C0177
:1010D00080933B0111C08091610190916201209148
:1010E0003B0130913C018217930730F4C90101970D
:1010F00090933C0180933B0180913401833030F523
:1011000080919701909198018F75917090939801BB
:101110008093970180916D0190916E0161E08D3116
:10112000960730F4019690936E0180936D0106C08E
:101130008DE191E090936E0180936D018091670144
:1011400090916801909382018093810177D894D81F
:10115000C5D980919701909198018F759170892BD5
:10116000C9F4809140018823A9F480911E01863141
:1011700088F4AD9859D98091480190914901892B03
:1011800039F0AF9880915A01826080935A010CC067
:10119000AF9A0AC0109249011092480185B3806A43
:1011A00085BB83E080937F0105DA10927001809106
:1011B0004501909146018535910590F08091660139
:1011C000882321F081508093660123C0809197018C
:1011D000909198018061909398018093970119C034
:1011E00080916601823320F48F5F8093660111C085
:1011F00080914501909146018135910550F480918F
:101200009701909198018F7E9170909398018093AF
:10121000970180913E0190913F018252914050F49C
:1012200080919701909198018D7F91709093980192
:101230008093970180913401992781309105D9F1EC
:10124000823091051CF4892B49F04EC18230910502
:1012500009F461C0049709F478C046C180919701F0
:10126000909198018F759170909398018093970158
:1012700080915D01813021F48AE08093420134C184
:10128000809197019091980188759070892B21F039
:101290008AE08093420128C180914201882309F0AD
:1012A00023C181E0809334018AE08093420188E287
:1012B00080933A0119C180918101909182019C0132
:1012C0003695279536952795809161019091620119
:1012D0002817390720F48AE08093420113C08091D7
:1012E00097019091980188759070892B21F08AE080
:1012F0008093420107C080914201882319F482E063
:101300008093340180913A01882309F0EDC082E096
:1013100080933401E9C080913E0190913F0145974F
:1013200050F4809197019091980191609093980169
:1013300080939701D9C080919701909198019E70F8
:101340009093980180939701CFC0209171013091C3
:10135000720130936E0120936D0110925101109231
:101360005001409197015091980145FD47C08091EF
:101370005D018130C1F5CA01806890939801809326
:1013800097013695279580913E0190913F018217F4
:10139000930760F480915B0190915C01009761F08C
:1013A000019790935C0180935B0106C088EC90E00C
:1013B00090935C0180935B0180915B0190915C0153
:1013C000892B09F068C08091970190919801806203
:1013D000909398018093970188EC90E090935C0142
:1013E00080935B0158C080919701909198018F770D
:1013F000917090939801809397014DC020916D0159
:1014000030916E01409167015091680182E390E054
:10141000289FB001299F700D389F700D1124CB01BA
:10142000BA0136D3709344016093430180913E0129
:1014300090913F016817790790F480916101909134
:101440006201CC9760F480915B0190915C01009700
:1014500061F0019790935C0180935B0106C088EC7A
:1014600090E090935C0180935B0180915B0190918F
:101470005C01892B81F480919701909198018F7D77
:101480009170909398018093970188EC90E09093ED
:101490005C0180935B0180916701909168018159A3
:1014A000914050F080919701909198018F7D9170BB
:1014B0009093980180939701809197019091980162
:1014C00085FF07C082E390E09093820180938101C1
:1014D00008C0809167019091680190938201809388
:1014E00081018AE08093420180911E01863171F46E
:1014F0008091710190917201C6D590937201809391
:10150000710110924901109248013DC080911E0165
:10151000873171F48091670190916801B4D59093FF
:1015200068018093670110924901109248012BC015
:1015300080911E01853191F48091630188233CF0F4
:101540008091540199279FD5809354011CC08091AC
:101550005701992798D58093570115C080911E0196
:10156000843189F48091630188233CF08091650186
:10157000992789D58093650106C080917E019927BE
:1015800082D580937E01809170018E7F809370015F
:1015900080915A0180939501A7CC1F920F920FB6AC
:1015A0000F9211248F939F938091970190919801AE
:1015B0008260909398018093970110924901109254
:1015C000480119BC18BC86EA90E09BBD8ABD9F917A
:1015D0008F910F900FBE0F901F9018951F920F9232
:1015E0000FB60F9211248F939F9380917F018823D0
:1015F000B1F48BB78F778BBF809197019091980151
:101600008160909398018093970110924901109204
:10161000480119BC18BC86EA90E09BBD8ABD9F9129
:101620008F910F900FBE0F901F9018951F920F92E1
:101630000FB60F9211242F933F938F939F93EF93A5
:10164000FF9324B135B180914A01882361F48091E0
:101650007E0199272817390718F0281B390B12C06B
:1016600020E030E00FC080914A01823059F480912F
:10167000570199272817390718F0281B390B02C082
:1016800020E030E080917901882389F081508093B7
:1016900079018B3090F58091380190913901821752
:1016A000930758F5309339012093380126C02091D3
:1016B0004A01822F9927880F991FFC01ED57FE4F91
:1016C0008091380190913901808391831092390182
:1016D000109238018CE080937901222349F48091A3
:1016E000700181608093700183E080934A0105C09E
:1016F00080914A01815080934A0187B1807E87B9E9
:1017000097B180914A01892B87B9369AFF91EF9161
:101710009F918F913F912F910F900FBE0F901F902F
:1017200018951F920F920FB60F9211248F938091EC
:101730006C01882329F080916C01815080936C01A9
:101740008F910F900FBE0F901F9018951F920F92C0
:101750000FB60F9211242F938F939F93EF93FF93C4
:1017600014BC80916401882321F481E0809364019A
:101770001BC01092640180917B01873030F480910E
:101780007B018F5F80937B0102C010927B011092DE
:1017900037016F9AC19A20917B018FE891E0FC019B
:1017A000E20FF11D80818FB9FF91EF919F918F9191
:1017B0002F910F900FBE0F901F9018951F920F92B0
:1017C0000FB60F9211248F939F93AF93BF93EF9314
:1017D000FF9380913701882341F5809137018F5F16
:1017E0008093370180917B019927AA27BB27FC01B1
:1017F000089748F5EB5EFF4F09948EEF8FB923C031
:101800008DEF8FB920C08BEF8FB91DC087EF8FB9D7
:101810001AC08FEE8FB917C08FED8FB914C08FEB40
:101820008FB911C08FE78FB90EC0C1986F988EEF36
:1018300084BD88B7806488BF89B7806489BF84E02D
:1018400085BD10926401FF91EF91BF91AF919F917F
:101850008F910F900FBE0F901F9018951F920F92AF
:101860000FB60F9211242F933F938F939F93AF93B3
:10187000BF938BB780688BBF439A8091630184FFCD
:1018800013C0809197019091980180649093980182
:1018900080939701109249011092480119BC18BC1D
:1018A00086EA90E09BBD8ABD80917D01882319F076
:1018B000815080937D0180915E01882319F08150D1
:1018C00080935E0180914E0190914F01009729F025
:1018D000019790934F0180934E0180917C0181305C
:1018E000C1F48091520190915301009731F001971A
:1018F000909353018093520119C0AD988091970144
:1019000090919801877F91709093980180939701AF
:101910000DC0AD9A85E090E0909353018093520101
:1019200088E090E090939801809397018091630103
:1019300083FF0EC080913601882331F080913601FB
:1019400081508093360118C081E080937C0114C0DF
:1019500080913601282F3327809187009927880F9F
:10196000991F2817390734F4809136018F5F8093CF
:10197000360102C010927C0180915801882321F029
:1019800081508093580179C08DE3809358018091F4
:101990007F01882329F080917F01815080937F010E
:1019A00080914B01882329F080914B0181508093D5
:1019B0004B0180913D01882329F080913D018150A8
:1019C00080933D0180914001882329F0809140015E
:1019D00081508093400180915F0190916001009758
:1019E00029F001979093600180935F01809121011C
:1019F000882329F0809121018150809321018091D9
:101A00004C0190914D01009731F0019790934D0159
:101A100080934C0132C087E691E090934D01809312
:101A20004C0180918B0190918C01A0918D01B0911E
:101A30008E010196A11DB11D80938B0190938C01A5
:101A4000A0938D01B0938E0180913A01882319F003
:101A5000815080933A0180913401823070F48091FA
:101A60005001909151012091610130916201820FEA
:101A7000931F9093510180935001BF91AF919F911B
:101A80008F913F912F910F900FBE0F901F9018953F
:101A9000AA1BBB1B51E107C0AA1FBB1FA617B70794
:101AA00010F0A61BB70B881F991F5A95A9F78095B0
:101AB0009095BC01CD01089532042201031400C8A1
:101AC00000280A1403A600430064141D012C01F031
:101AD000008201C8016401910132001011129C3290
:101AE00005003D67013F065B4F666D7D077F6F0A0E
:101AF0005500500064646464646464646464646392
:101B00006261605F5E5D5C5B5A595857565554532D
:101B10005251504F4E4C4A48464544434241403F43
:101B20003E3E3D3C3C3B3A3A39383837373636351D
:101B300035343433333232313130302F2F2E2E2D95
:101B40002D2D2C2C2B2B2A2A2929282828272727FA
:101B50002626252524242323232222212120201F59
:101B60001F1F1E1E1E1D1D1C1C1B1B1A1A1A1A19B4
:101B70001919181817001700FFFFFFFFFFFFFFFFDD
:101B8000000061008F010E0117005E00720000006E
:101B90000000FFFFFFFFFFFFFFFFFFFFFFFFFFFF53
:101C0000CF93DF93CDB7DEB725970FB6F894DEBF3D
:101C10000FBECDBF19828981893008F03EC022E213
:101C200031E041E007B600FE04C0A89507B600FC0D
:101C3000FCCF898199278A839B838A819B81880F26
:101C4000991F8A839B838A819B8180689B618A8399
:101C50009B8389819927880F991FFC01E20FF31F4D
:101C6000808191818C839D838C819D81082E8C81C4
:101C70009D81892F9927182E8A819B81282E8A8100
:101C80009B81892F9927382E47BFF101E8958981DB
:101C90008F5F89838981893028F225960FB6F89461
:101CA000DEBF0FBECDBFDF91CF9108950F2EFBE1B8
:101CB0003F2EF02D0F2EF0E82F2EF02D07B600FE50
:101CC00004C0A89507B600FCFCCF83E087BFF101F4
:101CD000E89507B600FE04C0A89507B600FCFCCF47
:101CE00081E187BFE89507B606FE0CC007B600FE87
:101CF00004C0A89507B600FCFCCF87BFE89507B6DF
:101D000006FCF4CF08950F2EFBE13F2EF02D0F2E91
:101D1000F0E82F2EF02D07B600FE04C0A89507B6F8
:101D200000FCFCCF85E087BFF101E89507B606FE11
:101D30000DC081E107B600FE04C0A89507B600FCFF
:101D4000FCCF87BFE89507B606FCF4CF0895CF9384
:101D5000DF93CDB7DEB727970FB6F894DEBF0FBE7F
:101D6000CDBF1092350119828981883008F03CC0BE
:101D700042E251E007B600FE04C0A89507B600FC99
:101D8000FCCF898199278A839B838A819B81880FD5
:101D9000991F8A839B838A819B8180689B618A8348
:101DA0009B8389819927880F991FFC01E40FF51FF8
:101DB000808191818E839F83EA81FB8185919491BB
:101DC0008C839D832C813D818E819F8128173907CB
:101DD00029F08091350182608093350189818F5F80
:101DE00089838981883030F280913501882351F0D0
:101DF000F89480917A018F5F80937A0157DF00DF3A
:101E000082DF789427960FB6F894DEBF0FBECDBF61
:101E1000DF91CF910895FFFFFFFFFFFFFFFFFFFF5F
:00000001FF
