:10000000FF662D30FF33FFFFFFFFFFFFFFFFFFFF06
:10001000460100FF2003FFFFFFFFFFFFFFFFFFFF81
:10002000030A81FFAD98089508958091BB089091CF
:10003000BC08892F992780FF0BC080918E09909171
:100040008F0991609F7790938F0980938E0908950F
:1000500080918E0990918F099C01306830938F09AF
:1000600020938E098091780A9091790A80359105C4
:1000700030F4C9019E7F90938F0980938E09089573
:100080000895EF92FF920F931F93CF93DF93809188
:10009000790990917A099C01442755278091050A96
:1000A0009091060ADC01CC27DD27BD01CE010E941C
:1000B00045207B018C0180910509909106099C01E6
:1000C000442755278091CF099091D009DC01CC2796
:1000D000DD27BD01CE010E944520DC01CB01E80EE9
:1000E000F91E0A1F1B1F8091FA089091FB089C01C2
:1000F000442755278091E2089091E308DC01CC2742
:10010000DD27BD01CE010E944520DC01CB01E80EB8
:10011000F91E0A1F1B1FC801B70128EE33E040E09B
:1001200050E00E94782079018A013093520920938F
:1001300051098091710990917209DC01CC27DD276A
:10014000A1328EE4B80780E0C80780E0D80728F025
:10015000A052BE44C040D04004C0A0E0B0E0C0E027
:10016000D0E0A13787E1B80780E0C80780E0D80772
:1001700020F0A0E7B7E1C0E0D0E0BD01CE019D01D5
:10018000AE010E9445202EE135E040E050E00E94A3
:100190007820CA01B901A80197010E944520DC011D
:1001A000CC27DD278091F408282F332744275527B3
:1001B000BD01CE010E944520EC01DB01689416F8D8
:1001C000D695C795B795A7951694D1F78091510903
:1001D000909152098A1B9B0B9093970980939609E3
:1001E000DF91CF911F910F91FF90EF900895CF93E2
:1001F000DF93A0912E0AB0912F0AC091300AD091BE
:00000001FF
