:1000000034C04EC04DC04CC04BC04AC049C048C0AF
:1000100080CC46C045C072CD43C042C008CC40C071
:100020003FC03EC03DC03CC03BC0BFC564C586C5E7
:1000300032C542C54DC59EC5ADC5E7C681C6CBC656
:10004000BCC6B3C6A2C602C729C649C750C752C755
:1000500056C758C759C791C72AC7FFC706C808C897
:100060000CC80EC80FC81FC8E0C711241FBECFE5BB
:10007000D2E0DEBFCDBF10E0A0E6B0E0ECEAFBE1ED
:1000800002C005900D92A239B107D9F711E0A2E99B
:10009000B0E001C01D92AB3DB107E1F7AED984CD10
:1000A000AFCF8CB18BB182728BB988E08093BB00EB
:1000B00008951BB8589A8CE18AB910BC87E689B9B3
:1000C00086E880BD579A93980895DF93CF930F9257
:1000D000CDB7DEB7939A84E689838981882331F08E
:1000E00089818150898389818823D1F781E08BB907
:1000F0009091B70099835D9903C0A8955D9BFDCF52
:10010000509A89818CB99093A7000F90CF91DF917D
:100110000895DF93CF930F92CDB7DEB793985F9991
:1001200004C00F90CF91DF9108958BB12AB190B5A3
:100130009CB1E091BB00F0E0E65CFE4F90838C71D7
:10014000B1F521FF3FC09093CF00973008F0ADC0CC
:100150002091B700921708F0AFC0822F891B8983C6
:100160008981880F8093A50190939C0187E08093FB
:10017000BB00589850989217A1F6939AE091BB0053
:10018000F0E0EF5CFE4FE0815D9903C0A8955D9BB8
:10019000FDCF5098ECB9E091BB00F0E0EF5CFE4F72
:1001A0008091A7009081890F8093A700BACF8CB16E
:1001B0008BB182728BB988E08093BB000F90CF9196
:1001C000DF9108958091BB00882309F04EC0589AB2
:1001D000939880919C01981709F0A3CF9091CF003C
:1001E000492F50E0FA01EA5EFE4F8CE38083809154
:1001F000B700981719F087E28093590181E090E0E9
:10020000042E02C0880F991F0A94E2F780959095FA
:100210002091260128232093260181E0898389816A
:10022000883008F07ECF21E08981A98190E0FC012F
:10023000EE0FFF1FEE0FFF1FEE0FFF1FE81BF90B66
:10024000E40FF51FEE52FF4FB0E0A65CBE4F8C915D
:100250008083E981F0E0E65CFE4F208389818F5F37
:1002600089838981883000F35CCF80919C01890F5C
:1002700080939C018091BB0081508093BB00909142
:10028000CF008091B700981709F04BCF939A5D99F2
:1002900003C0A8955D9BFDCF8091BB008823D1F45E
:1002A00050988091A7008CB93CCF8091B700880FFF
:1002B000825F8093A50135CF892F821B8983898135
:1002C000880F89838981809589838981815F809363
:1002D000A5014ACFE091BB00F0E0EF5CFE4F8081CA
:1002E00050988CB958CF96B390959170B19B92600D
:1002F000B29B9460B39B9860869B9061829B906256
:10030000849B906480919700981711F490934C010E
:10031000909397000895FC0147E28031940710F014
:10032000EFE0F7E2CF0168EE73E02ADC60938A0128
:1003300028EE33E0629FC001639F900D729F900D85
:100340001124E81BF90BCF0164E670E019DC60931F
:10035000890124E630E0629FC001639F900D729F87
:10036000900D1124E81BF90BCF016AE070E008DC66
:1003700060938801CB019B01220F331F220F331F93
:10038000220F331F880F991F280F391FE21BF30B11
:10039000E09387010895A895E199FECF07B600FC88
:1003A000FDCF8EBB1FBA6DBB8FB780939B00F894B7
:1003B000E29AE19A8FBFE199FECF07B600FCFDCF2C
:1003C000089580EC87B980B78F7180BF88EE93E085
:1003D000909393018093920187E08093BC0016B8BC
:1003E000379A329A359A309A339A369A08958FE826
:1003F00091E0A89501972FEF8F3F9207D1F7809159
:100400008A01805D8FB98FE891E0A89501972FEF61
:100410008F3F9207D1F780918901805D8FB98FE876
:1004200091E0A89501972FEF8F3F9207D1F7809128
:100430008801805D8FB98FE891E0A89501972FEF33
:100440008F3F9207D1F780918701805D8FB9089522
:100450005D9903C0A8955D9BFDCF80918901805D6A
:100460008CB95D9903C0A8955D9BFDCF80918801F3
:10047000805D8CB95D9903C0A8955D9BFDCF80918F
:100480008701805D8CB908955D9903C0A8955D9B37
:10049000FDCF8CE08CB90895282F8BE291E0A895D0
:1004A00001973FEF8F3F9307D1F78FE18FB98BE231
:1004B00091E0A89501973FEF8F3F9307D1F784E232
:1004C0008FB98BE291E0A89501973FEF8F3F93079B
:1004D000D1F72FB98BE291E0A89501972FEF8F3FCD
:1004E0009207D1F71FB88BE291E0A89501973FEFF3
:1004F0008F3F9307D1F76FB98BE291E0A8950197F1
:100500002FEF8F3F9207D1F71FB80895803C08F076
:1005100080545D9903C0A8955D9BFDCF8CB908956B
:1005200006B607FC0EC08091CD009091CE000097DA
:1005300019F40FC0009769F00197A89506B607FE59
:10054000F9CF80E197E29093CE008093CD0081E0D7
:10055000089580E197E29093CE008093CD0080E0F3
:1005600008951F93DDDF8823A1F081B1887F883053
:1005700049F081B1887F803129F084E986BF80E02D
:100580001F91089584E083B984EC86BFC9DF882376
:1005900019F480E01F91089581B1887F883169F74F
:1005A0008AE08093D1008091850183B984E886BF79
:1005B00014E811C081B1887F8832F9F6E091D1004A
:1005C000EE2369F0E150E093D100F0E0E558FE4FF2
:1005D000808183B916BFA4DF882361F7DACF84E96D
:1005E00086BF81E0D7CF0F931F939ADF8823A9F1AD
:1005F00081B1887F883031F084E986BF80E01F9127
:100600000F91089585E083B914EC16BF89DF882324
:1006100021F181B1887F803479F78BE080939C0051
:1006200083B18093D90116BF04E814EC79DF8823E5
:10063000A1F081B1887F8035B1F4E0919C00EE2378
:1006400081F0E150E0939C0083B1F0E0E253FE4F73
:10065000808316BF65DF882361F780E01F910F91CB
:10066000089506BFE3CF84E986BF81E0F7CFCF933B
:10067000DF9310927B01ECE7F1E0819190917B0197
:10068000890F80937B0121E0E638F207B1F78BE018
:1006900090E09093AD008093AC0084EA86BF80E147
:1006A00097E29093CE008093CD005BDF882311F416
:1006B00084E986BF80E090E0A895019623E1883820
:1006C0009207D1F7CFECD1E0CE01019621E0893D30
:1006D0009207D9F78BE090E09093AD008093AC0047
:1006E0008091CE018093A6011092A70184EA86BF73
:1006F00080E197E29093CE008093CD0074DF882351
:10070000B1F020E08991280F81E0C93DD807D1F7E9
:100710008BE090E09093AD008093AC002093A40117
:100720008091CE01821741F0DF91CF91089584E945
:1007300086BFDF91CF91089522E030E0F901E95DB5
:10074000FE4FD901A353BE4F8C9180832F5F3F4F43
:100750002A30310599F789E090E09093AD008093BD
:10076000AC0086E980935A01DF91CF910895809182
:10077000B700813009F4AFC048E050E260E89091E2
:100780004C0190937C018091DA01882309F457C0D1
:100790002091A2003091A30080917D01816080931F
:1007A0007D0194FF5BC080917D01846080937D0119
:1007B00020FF5BC080917D01806180937D0121FFDE
:1007C0005BC080917D01886080937D018091E7000E
:1007D000482309F45BC080917D01806280937D0194
:1007E0009091E000592309F45BC080917D01806401
:1007F00080937D01692309F45BC080917D0180684D
:1008000080937D018091EE0081FF5BC080917D012E
:10081000826080937D0180919D0180937E01809113
:10082000B60080937F018091B50080938001809114
:100830009D00863008F04BC01092810108952091F0
:10084000A2003091A3002115310509F0A5CF8091B8
:100850007D018E7F80937D0194FDA5CF80917D01E8
:100860008B7F80937D0120FDA5CF80917D018F7EC0
:1008700080937D0121FDA5CF80917D01877F8093AD
:100880007D018091E700482309F0A5CF80917D018B
:100890008F7D80937D019091E000592309F0A5CFD1
:1008A00080917D018F7B80937D01692309F0A5CF25
:1008B00080917D018F7780937D018091EE0081FD95
:1008C000A5CF80917D018D7F80937D01A4CF81E0B4
:1008D00080938101089544E050E160E450CF60913D
:1008E0004C01262F30E080915801482F50E0CA017A
:1008F0008227932780739070892B69F064FD0CC068
:1009000025FF07C045FD05C080919D018150809362
:100910009D0160935801089544FDF2CF80919D019F
:100920008F5F80939D0160935801F5CF80911301F3
:1009300090911401909398018093970120919401D4
:10094000309195018217930720F4309398012093FA
:10095000970120912101309122018091970190917E
:1009600098018217930720F4309398012093970100
:1009700008955091DA01E8EAF1E020E030E061E02A
:1009800070E080819181892B41F4CB01022E02C05D
:10099000880F991F0A94E2F7582B2F5F3F4F32962A
:1009A0002830310571F75093DA0108958091B7002E
:1009B000843041F124E080919D008230E9F09091F3
:1009C000BF00392F3D7F833099F0997F853001F545
:1009D000892F8860982F9F788091E700282321F045
:1009E0008091E00082FF10C09F779093BF00089530
:1009F000832F8460877FEECF8091BF0082608B7FE2
:100A0000877FE8CF28E0D7CF90689093BF00089504
:100A1000892F877FDFCF8091B7008130D1F1E1E06E
:100A20008091DA018823C1F4F0E0EE52FF4F878114
:100A300084FD26C08091FB0083FF0AC010929200C3
:100A400080919D00E82FF0E0E830F105B0F00895C6
:100A50008091F80083FDF2CF809192008F5F8093A8
:100A600092008B3018F08AE08093920080919D0074
:100A7000E82FF0E0E830F10550F7EB5EFF4F099406
:100A800080914C0184FDE8CF8091FB0083FFE0CF93
:100A9000D5CFE4E0C5CF8091C40081FDB3C0809183
:100AA0009200893008F0AEC080914C0182FDCFCF1A
:100AB00084E080939D0008958091C40081FD05C06D
:100AC00080919200893008F4A0C010929D00089592
:100AD0008091C40081FD90C080919200893008F01F
:100AE0008BC080914C018A708A3009F0B0CF86E0CB
:100AF00080939D0008958091C40081FD80C0809105
:100B00009200893008F07BC08091CC019091CD019A
:100B10008F55914060F082E080939D0084E690E0E4
:100B200090934401809343018AEF8093120188ECF3
:100B300090E090931E0180931D0108958091C40060
:100B400081FD57C080919200893008F052C0809199
:100B50001201823360F780914C0182FFE8CF8091CF
:100B60001D0190911E01892B09F071CF83E08093C4
:100B70009D0008958091C40081FD38C0809192004D
:100B80008930A0F580914C0184FF61CF87E080938C
:100B90009D0008958091C40081FD04C08091920061
:100BA0008930B8F110929D0008958091C40080FFB3
:100BB0000DC080919200882349F48091A200909109
:100BC000A300892B19F481E080939D0084E690E0D6
:100BD00090934401809343018CE291E09093CD0186
:100BE0008093CC018AEF80931201089510929D00AA
:100BF000C9CF10929D00ABCF10929D0072CF109282
:100C00009D0082CF10929D004FCF85E080939D0084
:100C100008958091A2009091A300892B19F617CF17
:100C20009091B700913009F456C09430F9F094E0F7
:100C300020919D008091DA01882309F441C09091B0
:100C400092009F5F90939200809134018160809325
:100C500034019B3018F08AE080939200E22FF0E09C
:100C6000E830F10560F5E35EFF4F099480912601BD
:100C700081FD5FC08091D90082FF5BC08091E80058
:100C800081708093270120919D00222329F4809177
:100C9000340181608093340198E0CCCF809134019D
:100CA000816080933401809193008E3130F4809183
:100CB000A2009091A300892B11F010929D0008953D
:100CC0008091D9008923F1F08091FB0083FF29C036
:100CD00010929200C3CF8091260184FD0DC08091B7
:100CE000D90083FF09C08091EB00817080932701B8
:100CF00094E020919D009ECF9093270194E0209155
:100D00009D0098CF8091F500982381F090919200FA
:100D10009F5F90939200809134018E7F8093340185
:100D200098CF8091F80083FFF1CFD2CF90919200BD
:100D300090CF81E08093270198E020919D007ACFA9
:100D4000809193008F3110F010929D00209134011A
:100D50008091CC019091CD018F55914060F082E05F
:100D600080939D0084E690E090934401809343013A
:100D70008AEF8093120188EC90E090931E0180939B
:100D80001D012E7F209334010895809193008E31B0
:100D900010F010929D0080914C018A708A3009F009
:100DA0008ECF86E080939D000895809193008E31D0
:100DB00008F46AC010929D000895809193008E31CE
:100DC00010F010929D0080914C0182FD78CF84E05C
:100DD00080939D000895809193008E3110F01092C1
:100DE0009D0080911201843608F047C080914C012B
:100DF00082FF43C080911D0190911E01892B09F053
:100E00005ECF83E080939D000895809192008823B7
:100E100069F480912701882349F08091A200909184
:100E2000A300892B19F481E080939D0084E690E073
:100E300090934401809343018CE291E09093CD0123
:100E40008093CC018AEF80931201089580919300E2
:100E50008E3110F010929D008091520190915301BB
:100E6000C29720915001309151018217930708F0E9
:100E700026CF87E080939D00089588EC90E09093C2
:100E80001E0180931D01089585E080939D000895C3
:100E90008091E70087FD12C091E080919D00E82FCE
:100EA000F0E0E830F10548F4EB5DFF4F09948091E4
:100EB000C40083FF76C0AC9AAF9808958091B700C4
:100EC000813009F469C0843011F090E0E6CF909150
:100ED000DA0092959695977090959170DECF959ADD
:100EE000AD9AAE98AB9AAA9AAC9AAF9A0895AE9A78
:100EF000AD980895AE9AAD9AAA9AAB980895AE9A15
:100F0000AB9A0895AB9A0895209150013091510108
:100F100080915201909153018217930708F03FC0CE
:100F2000959AAE9AAB9AAA988091C40083FD31C07D
:100F300020919200293068F582FF09C0222339F4FC
:100F400080918E0190918F0184369105A0F080915F
:100F5000B700813009F44FC08430E1F48091DC00A7
:100F600084FF18C02223B1F480918E0190918F01EB
:100F70008436910578F4AC980DC0AE9A959AAB9AE8
:100F8000AA988091C40083FD04C02091920029306A
:100F900078F1AC9AAF9808959091DD009ACF95982A
:100FA000C0CF913009F088CF82FF07C080918E01B9
:100FB00090918F0184369105C0F08091B700813007
:100FC000F9F0843009F078CF8091DC0084FF74CF91
:100FD00080919200882309F06FCF80918E019091CB
:100FE0008F018436910508F067CFAC98AF9865CF34
:100FF000913081F6A1CF8091DF0084FDB3CFCACFBD
:101000008091DF0084FDE4CFAF9857CF8091E70057
:1010100087FD13C091E080919D00E82FF0E0E8305B
:10102000F10550F4E35DFF4F0994809193008E31F8
:1010300008F442C0AC9AAF9808958091B70081300F
:10104000C1F1843011F090E0E6CF9091DA009295F2
:101050009695977090959170DECF959AAD9AAE98CF
:10106000AB9AAA9AAC9AAF9A0895AE9AAD980895A1
:10107000AE9AAD9AAA9AAB980895AE9AAB9A089593
:10108000AB9A0895AE9A2091500130915101809110
:101090005201909153018217930730F09598AB9AC3
:1010A000AA98AF980895AE9A959AAB9AAA98AF98D5
:1010B00008959091DD00CBCF913009F0BCCF8091A5
:1010C0008E0190918F018436910508F0B4CF809104
:1010D000DC00282F82FD25C08091DF00982F82FD43
:1010E00020C08091E00080FD1CC021FD1DC091FF4B
:1010F000A2CF8091D90080FF02C081FD9CCF80915A
:101100002601817171F48091B700813089F08430BB
:1011100021F48091DA0082FF04C08091EE0080FF0C
:101120008ACFAC98AF9888CF91FFE3CFAC98FACF35
:101130008091DD0082FDF1CFAC98F4CF1092DA01FE
:101140001092BF0020E030E0F901E855FE4FD901D0
:10115000A958BF4F8D919C91918380832E5F3F4F03
:101160002031310589F71092A3001092A20080EA85
:1011700090E09093A6008093A50008950F931F938D
:10118000082F10E0E12FF0E0E957FF4F8081BED932
:101190001F5F0117B8F71F910F9108952091BA01B1
:1011A0003091BB018091CC019091CD0182179307C2
:1011B00048F02817390728F401979093CD018093C0
:1011C000CC01089501969093CD018093CC010895B0
:1011D0002091C6013091C701809143019091440153
:1011E0008217930748F02817390728F4019790933E
:1011F00044018093430108950196909344018093A4
:10120000430108952091C6013091C7014091120118
:10121000842F90E08217930758F488EC8093C000E5
:10122000809198008823A9F08150809398000895B8
:101230002817390768F488EC809398008091C000E3
:10124000882371F482E08093C000415040931201E2
:1012500008954F5F4093120182E0809398000895B3
:1012600081508093C00008952091BC013091BD0150
:1012700040E050E06091CA007091CB0080E090E0C7
:1012800060D4472F582F692F772720915001309134
:101290005101C901A0E0B0E084179507A607B70780
:1012A00088F42E5C3F4FC901A0E0B0E022533040EB
:1012B00084179507A607B707E8F4509351014093A8
:1012C00050010895481759076A077B0790F4225385
:1012D0003040C901A0E0B0E02E5C3F4F48175907ED
:1012E0006A077B0750F3215030403093510120931F
:1012F000500108952F5F3F4F3093510120935001CB
:1013000008954091BE015091BF0120918E0130910E
:101310008F012417350750F4C901C2968417950729
:10132000A0F450938F0140938E0108954217530704
:1013300058F4C901C2974817590798F32150304013
:1013400030938F0120938E0108952F5F3F4F30938C
:101350008F0120938E0108958091C0019091C10169
:10136000909314018093130108958091C20190918C
:10137000C301909395018093940108958091C401D5
:101380009091C50190932201809321010895E6E197
:10139000F1E082E3819391E0ED31F907D9F7109202
:1013A000260108951FBA8EBBE09AE099FECF8DB357
:1013B0000895FF920F931F93F82E8F5FF3DF182F7E
:1013C00000E08F2DEFDF282F30E0202B312BC901DB
:1013D0001F910F91FF90089586E0EBDF9093CB0073
:1013E0008093CA008B5E9040849730F080E091E05B
:1013F0009093CB008093CA0008952F923F924F9212
:101400005F926F927F928F929F92AF92BF92CF9294
:10141000DF92EF92FF920F931F93CF93DF931ABA4D
:101420001BBA80EA87BB88B39FEF98BB8CEF84BB65
:1014300085B395BB8AE281BB87EF82BB8FE780B91A
:1014400087EE9DEFA89501972FEF8F3F9207D1F779
:10145000909357018093560182E88EBD89B78460CE
:1014600089BF27D682E78DB91EB8ABD782EC8EBD77
:1014700089B7846089BF62DEAFDF81E080932B0192
:1014800010922C0110922E011092C5001092C400EF
:101490001092150185E08093D00010929D0010926B
:1014A000CD011092CC0188EC90E0909344018093A0
:1014B0004301109251011092500110928F0110922D
:1014C0008E01109214011092130110929501109246
:1014D000940110922201109221018091B700809313
:1014E000A50188EC80939400789482E380939B011B
:1014F0001092E8001092EB00109234011092320129
:10150000E6E1F1E081930DE111E0E017F107D1F799
:101510001092260180E590E0909349018093480164
:1015200080EA90E09093A6008093A5001092A3001B
:101530001092A200109292005524539464E0462E1B
:101540005CE2C52E51E0D52E48E4A42E43E0B42E33
:1015500030E5832E912C20EA222E312C92E3F92EB5
:1015600088EFE82EBFE77B2EA6E96A2EE9C08091BE
:1015700050019091510121E08C32920738F089544A
:10158000934020F43092A6002092A5008091F800AC
:1015900082FDF6C08091FB0082FDFFC080912C018E
:1015A00087FDFBC06091DA01662309F004C18091D8
:1015B000A2009091A300892B09F0FDC08091320117
:1015C0008E7F8093320180914C01282F30E0C90139
:1015D00080769070892B09F009C180913201826078
:1015E00080933201A9014071507024FF09C180919C
:1015F000320184608093320180919D00882309F438
:10160000E0C080919400882309F0DBC08091320112
:1016100088608093320180912D0180FFDBC0452BD3
:1016200009F4FEC080913201806180933201809183
:1016300032018062809332018091E7008093330110
:101640008091500190915101969587959695879537
:10165000809335016093360180919E00809337011D
:10166000D0912B01C0E080912C0190E08C2B9D2B20
:101670009093C5008093C40091DDAADDC3DDF4DD45
:1016800040DE6ADE72DE7ADE51D980919701909158
:1016900098018C5D924020F490924901809248011B
:1016A00085D980912B0180FFB1C0B5D9F1DB61D91B
:1016B00080915A01882339F410B812B816BEE1B8E7
:1016C00070B860925A018091C100882309F4A1C0CA
:1016D00081508093C10007D685B390E01CD680E08E
:1016E00060E0DAD684D680912C0190E014D688E2AE
:1016F00060E0D2D67CD680919D0090E00CD680E54B
:1017000060E0CAD674D68091C4009091C50003D61B
:1017100080E061E0C1D66BD68091920090E0FBD56D
:1017200088E261E0B9D663D68091DA0190E0F3D522
:1017300080E561E0B1D65BD61092AD001092AC00AE
:10174000A89580919B01882331F080912B0181FF26
:101750006BC04092B700D0925301C0925201B09238
:101760009A01A092990180919D00863008F0FFCEE9
:101770009092A6008092A5008091F80082FF0ACF87
:10178000DDDCE6E1F1E0F1920E171F07E1F71092C0
:1017900026018091FB0082FF01CFD0DCE6E1F1E081
:1017A000F1920E171F07E1F7109226016091DA01FE
:1017B000662309F4FCCE809132018160809332016E
:1017C00002CF80913201877F8093320180912D0179
:1017D00080FD25CF809132018F7E80933201452B91
:1017E00009F025CF8F7D8093320126CF8091320181
:1017F0008D7F80933201A9014071507024FDF7CE96
:10180000809132018B7F80933201F6CE09DAFEDBC4
:101810004ECF8EE18093C100A895A9D728D75BCF82
:10182000809132018F7EDECF5092B70094CF1F920D
:101830000F920FB60F9211242F933F934F938F93D4
:101840009F93EF93FF9324B135B1809192019091D2
:101850009301009721F10197909393018093920156
:10186000895E934058F480919F009091A000821768
:10187000930720F43093A00020939F0080912001D3
:10188000882391F5369AFF91EF919F918F914F9117
:101890003F912F910F900FBE0F901F90189581E0F0
:1018A0008093200180919E008F5F80939E00209105
:1018B000BC0080919F009091A000E22FF0E0EE0F1D
:1018C000FF1FE854FE4F918380831092A000109276
:1018D0009F008AEE93E090939301809392012130D0
:1018E00061F487E08093BC0087B1807E9091BC005A
:1018F000892B87B910922001C5CF21502093BC00BD
:1019000087B1807E9091BC00892B87B9109220010D
:10191000B9CF1F920F920FB60F9211242F933F93BE
:101920004F935F936F937F938F939F93AF93BF93E7
:10193000EF93FF9380919400882319F08150809356
:10194000940080919200882309F4C2C08091930092
:101950008F5F8093930080911D0190911E010097ED
:1019600029F0019790931E0180931D0180914801F9
:1019700090914901009709F4A1C001979093490102
:10198000809348018091A5009091A600009709F4EA
:101990008BC001979093A6008093A50080919B0136
:1019A000882319F0815080939B0140912601E6E144
:1019B000F1E020E030E061E070E008C08150808319
:1019C0002F5F3F4F31962730310589F08081882382
:1019D000A9F7DB01022E02C0AA0FBB1F0A94E2F78F
:1019E0004A2B2F5F3F4F31962730310579F74093CF
:1019F000260180915901882309F46DC0815080939C
:101A000059018091A501882309F470C08091A50136
:101A100081508093A5018091BF00482F50E0E8EAF3
:101A2000F1E0A7E7B0E020E030E00EC080819181D6
:101A3000009719F00197918380832F5F3F4F329673
:101A4000129628303105A9F0CA01022E02C09595E0
:101A500087950A94E2F780FDE9CF8D919C911197CB
:101A6000918380832F5F3F4F329612962830310545
:101A700059F788E08093CC0080915A01882319F0AF
:101A8000815080935A01FF91EF91BF91AF919F9147
:101A90008F917F916F915F914F913F912F910F9017
:101AA0000FBE0F901F9018958091A2009091A300F7
:101AB00082609093A3008093A20070CF8091A200D7
:101AC0009091A30081609093A3008093A2005ACFCD
:101AD0001092930040CFEDD28091B700895D809342
:101AE00059018091A501882309F090CFEED2809111
:101AF000B700880F815F8093A5018DCF1F920F9251
:101B00000FB60F9211242F933F934F935F936F93D0
:101B10007F938F939F93AF93BF93EF93FF93F9D2EC
:101B2000FF91EF91BF91AF919F918F917F916F91B5
:101B30005F914F913F912F910F900FBE0F901F908B
:101B40001895629FD001739FF001829FE00DF11DF7
:101B5000649FE00DF11D929FF00D839FF00D749F27
:101B6000F00D659FF00D9927729FB00DE11DF91FD3
:101B7000639FB00DE11DF91FBD01CF011124089530
:101B8000AA1BBB1B51E107C0AA1FBB1FA617B707A3
:101B900010F0A61BB70B881F991F5A95A9F78095BF
:0C1BA0009095BC01CD010895F894FFCF92
:101BAC0008C86400C80032002C0164005E01148077
:101BBC00019001102796083200E803640064006469
:101BCC0000640064006400202020202020202020BD
:021BDC00000007
:00000001FF
