:1000000034C04EC04DC04CC04BC04AC049C048C0AF
:100010006BCD46C045C04ACE43C042C08ECC40C026
:100020003FC03EC03DC03CC03BC012C532C555C5F7
:1000300078C589C597C5A9C5BAC559C679C69DC62B
:10004000BCC6C9C6D3C6E1C6FFC636C73DC73FC793
:1000500043C745C746C78AC7B9C70BC812C814C823
:1000600018C81AC81BC835C83AC811241FBECFE526
:10007000D2E0DEBFCDBF10E0A0E6B0E0ECE5FFE1EE
:1000800002C005900D92A838B107D9F721E0A8E881
:10009000B0E001C01D92AD3DB207E1F719DA5CCFC7
:1000A000AFCF8CB18BB182728BB988E08093B500F1
:1000B00008951BB8589A8CE18AB910BC87E689B9B3
:1000C00086E880BD579A93980895CF93DF931F9247
:1000D000CDB7DEB7939A84E689838981882331F08E
:1000E00089818150898389818111FACF81E08BB91F
:1000F0008091B10089835D9903C0A8955D9BFDCF78
:10010000509A89818CB98091B1008093A1000F90A1
:10011000DF91CF910895CF93DF931F92CDB7DEB7D4
:1001200093985F9BDEC09BB12AB180B58CB1E09102
:10013000B500F0E0EA5CFE4F80839C7111F0B1DF06
:10014000D0C021FF4DC08093C900873038F0809126
:10015000B100880F825F8093A901C3C09091B10064
:10016000891738F4981B99839981990F9093A90165
:100170000DC0282F291B29839981990F9983998173
:10018000909599839981915F9093A90180939C01A7
:1001900087E08093B500589850989091C90080915D
:1001A000B10098139EC0939A84E68150F1F7E091D4
:1001B000B500F0E0E35DFE4F80815D9903C0A89536
:1001C0005D9BFDCF50988CB9E091B500F0E0E35D08
:1001D000FE4F9091A1008081890F8093A10081C082
:1001E0009091B500992399F190919C01890F80938A
:1001F0009C018091B50081508093B5009091C90019
:100200008091B10098136DC0939A5D9903C0A89531
:100210005D9BFDCF8091B500811105C05098809104
:10022000A1008CB95EC0E091B500F0E0E35DFE4F47
:10023000808150988CB9E091B500F0E0E35DFE4F0D
:100240009091A1008081890F8093A1004AC0589AA3
:10025000939890919C01891344C04091C900242F28
:1002600030E0F901EE5EFE4F8CE380838091B100B7
:10027000481719F087E28093550181E090E002C0B1
:10028000880F991F4A95E2F78095909590912201E9
:1002900089238093220181E089838981883008F550
:1002A00041E08981A98190E0FC01EE0FFF1FEE0F74
:1002B000FF1FEE0FFF1FE81BF90BE20FF31FE253C6
:1002C000FF4FB0E0AA5CBE4F8C918083E981F0E0E3
:1002D000EA5CFE4F408389818F5F89838981883002
:1002E00000F30F90DF91CF91089586B380958170D0
:1002F000B19B8260B29B8460B39B8860869B806167
:10030000829B8062849B806490918D00891302C0DF
:100310008093480180938D000895482F592F4031D4
:1003200087E2580710F04FE057E29A01369527957B
:100330003695279536952795A5ECB0E2F7DD929591
:1003400082958F7089279F7089278093860168EE38
:1003500073E0869F9001879F300D969F300D11248A
:10036000421B530B9A013695279536952795ABE797
:10037000B4E1DCDD969587958093850164E6689FFE
:100380009001699F300D1124421B530B9A01ADEC73
:10039000BCECCCDD96958795969587959695879537
:1003A000809384019C01220F331F880F991F880FAF
:1003B000991F880F991F820F931F481B590B409359
:1003C0008301089580EC87B980B78F7180BF88EE74
:1003D00093E090938F0180938E0187E08093B60025
:1003E00016B8379A329A359A309A339A369A0895CF
:1003F00080E991E0A8950197E9F780918601805DF9
:100400008FB980E991E0A8950197E9F7809185017E
:10041000805D8FB980E991E0A8950197E9F7809117
:100420008401805D8FB980E991E0A8950197E9F793
:1004300080918301805D8FB908955D9903C0A8956F
:100440005D9BFDCF8CE08CB9089524E833E0A8953E
:1004500021503109E1F79FE19FB92CE231E0A895E5
:1004600021503109E1F794E29FB92CE231E0A895DF
:1004700021503109E1F78FB98CE291E0A8950197FD
:10048000E9F71FB88CE291E0A8950197E9F76FB9F9
:100490008CE291E0A8950197E9F71FB80895803C98
:1004A00008F080545D9903C0A8955D9BFDCF8CB981
:1004B000089506B607FE15C01BC0009751F00197BE
:1004C0009093C8008093C700A89506B607FEF5CFA5
:1004D0000FC080E197E29093C8008093C70080E04E
:1004E00008958091C7009091C800009741F7F1CF1F
:1004F00080E197E29093C8008093C70081E008955F
:10050000CF93D7DF882309F443C081B1887F883037
:1005100021F081B1887F803141F484E083B984EC9B
:1005200086BFC7DF811105C035C084E986BF80E082
:1005300034C081B1887F883151F48AE08093CD0046
:100540008091810183B984E886BFC4E804C084E94E
:1005500086BF80E022C0ADDF8823F1F081B1887FC3
:10056000883291F4E091CD00EE2351F0E150E09318
:10057000CD00F0E0E958FE4F808183B9C6BFEBCFD4
:1005800084E986BF81E009C084E986BF80E005C0B8
:1005900080E003C080E001C080E0CF910895CF9358
:1005A000DF9387DF8823F1F181B1887F883041F4C0
:1005B00085E083B984EC86BF7CDF811105C034C03F
:1005C00084E986BF80E033C081B1887F803459F4EC
:1005D0008BE08093960083B18093DB0184EC86BF2F
:1005E000D4E8C4EC04C084E986BF80E020C061DFA9
:1005F0008823E1F081B1887F803581F4E091960015
:10060000EE2351F0E150E093960083B1F0E0E05327
:10061000FE4F8083C6BFEBCFD6BFE9CF84E986BF4C
:1006200081E005C080E003C080E001C080E0DF9190
:10063000CF9108950F931F93CF93DF93109277017B
:10064000E8E7F1E082E891E0A7E7B1E031912C9191
:10065000230F2C93E817F907C9F78BE090E09093EC
:10066000A7008093A60084EA86BF80E197E290937A
:10067000C8008093C70044DF811109C084E986BFA8
:1006800088E893E19093A7008093A60056C088E87D
:1006900093E19093A7008093A6004FC0A89501977F
:1006A000E9F701ED11E0CBEDD1E0C80101968C171F
:1006B0009D07E1F78BE090E09093A7008093A60060
:1006C0008091D0018093AA011092AB0184EA86BF89
:1006D00080E197E29093C8008093C70060DF882391
:1006E00049F1E1EDF1E020E08191280FCE17DF071D
:1006F000D9F78BE090E09093A7008093A600209319
:10070000A8018091D00182131DC0E5E2F1E089EDDE
:1007100091E0D8012D918D012193A817B907C9F750
:1007200089E090E09093A7008093A60086E98093EB
:10073000560108C084E986BF05C08091A60090914B
:10074000A700ACCFDF91CF911F910F9108958091B9
:10075000B100813021F430E440E154E003C030E8DE
:1007600040E258E020914801209378018091DC011B
:10077000811106C080919C0090919D00892B31F0E1
:10078000E9E7F1E080818160808305C0E9E7F1E07D
:1007900080818E7F808324FF06C0E9E7F1E08081BD
:1007A0008460808305C0E9E7F1E080818B7F8083EE
:1007B00090919C0090FF06C0E9E7F1E080818061A4
:1007C000808305C0E9E7F1E080818F7E808391FF1F
:1007D00006C0E9E7F1E080818860808305C0E9E731
:1007E000F1E08081877F80838091E300852331F071
:1007F000E9E7F1E080818062808305C0E9E7F1E00C
:1008000080818F7D80838091DC00942F982331F04C
:10081000E9E7F1E090819064908305C0E9E7F1E0B9
:1008200090819F7B9083832331F0E9E7F1E0808121
:100830008068808305C0E9E7F1E080818F7780835D
:100840008091EA0081FF06C0E9E7F1E080818260E3
:10085000808305C0E9E7F1E080818D7F808380910E
:100860009D0180937A018091B00080937B018091FB
:10087000AF0080937C0180919700863020F081E06A
:1008800080937D01089510927D0108958091480123
:1008900090915401292F28272073A9F084FF08C0C4
:1008A00094FD06C090919D019F5F90939D0109C0AA
:1008B00085FF07C095FD05C090919D0191509093D3
:1008C0009D0180935401089580910F019091100132
:1008D0009093940180939301209190013091910124
:1008E0008217930720F43093940120939301809111
:1008F0001D0190911E0120919301309194012817C0
:10090000390720F490939401809393010895709196
:10091000DC01ECEAF1E080E090E041E050E0219180
:100920003191232B41F49A01082E02C0220F331F6C
:100930000A94E2F7722B01968830910581F7709343
:10094000DC0108958091B100843011F024E001C0F1
:1009500028E080919700823039F48091B90082605C
:100960008B7F8093B90016C09091B9009D7F9093C2
:10097000B900833021F494609093B9000BC090913A
:10098000B9009B7F9093B900853021F498609093D3
:10099000B90005C08091B900877F8093B90080912C
:1009A000B900382F3F789091E300922341F0909165
:1009B000DC0092FD04C030683093B90008958F7058
:1009C0008093B90008958091B100813011F0E1E089
:1009D00001C0E4E08091DC01882331F0809188003F
:1009E0008F5F8093880023C0F0E0E253FF4F878140
:1009F00084FF0AC08091480184FF06C0809188006E
:100A00008F5F8093880013C08091F70083FF03C03D
:100A10001092880013C08091F40083FF03C01092ED
:100A200088000CC0809188008F5F8093880080913F
:100A300088008B3018F08AE080938800E09197005E
:100A4000F0E0E830F10508F0C2C0EB5EFF4F09941A
:100A50008091BE0080FF0DC080918800811109C087
:100A600080919C0090919D00892B19F481E08093E6
:100A7000970084E690E09093400180933F018CE2E0
:100A800091E09093CF018093CE018AEF80930E0185
:100A900008958091BE0081FD04C080918800893056
:100AA00010F0109297008091CE019091CF018F3578
:100AB000914060F082E08093970084E690E090930C
:100AC000400180933F018AEF80930E0188EC90E013
:100AD00090931A018093190108958091BE0081FDC1
:100AE00004C080918800893010F0109297008091A6
:100AF0000E01823378F48091480182FF0BC080910F
:100B0000190190911A01892B09F061C083E080934B
:100B10009700089588EC90E090931A018093190152
:100B200008958091BE0081FD04C0809188008930C5
:100B300010F0109297008091480182FD48C084E037
:100B40008093970008958091BE0081FD04C080913C
:100B50008800893018F010929700089585E08093FE
:100B6000970008958091BE0081FD04C080918800A7
:100B7000893010F010929700809148018A708A3075
:100B800031F586E08093970008958091BE0081FD45
:100B900004C080918800893010F0109297008091F5
:100BA000480184FF14C087E08093970008958091E6
:100BB000BE0081FD0AC080918800893030F48091A8
:100BC0009C0090919D00892B11F010929700089540
:100BD0008091B1008130C9F48091220184FF05C069
:100BE00081E08093230194E037C08091D50083FF9A
:100BF00007C08091E70081708093230194E02CC0AE
:100C000081E08093230194E027C0843011F5809126
:100C1000220181FF05C081E08093230198E01CC080
:100C20008091D50082FF10C08091E4008170809394
:100C300023018091970081110EC0E0E3F1E08081F3
:100C40008160808398E008C081E08093230198E070
:100C500003C094E001C098E08091DC01882359F042
:100C6000809188008F5F80938800E0E3F1E08081CD
:100C7000816080832BC08091D5008923C9F0809149
:100C8000F70083FF03C01092880027C08091F40012
:100C900083FF03C01092880020C0809188008F5F7E
:100CA00080938800E0E3F1E080818E7F80830EC036
:100CB0008091F100982351F0809188008F5F80939C
:100CC0008800E0E3F1E080818E7F8083809188005E
:100CD0008B3018F08AE080938800E0919700F0E074
:100CE000E830F10508F0C1C0E35EFF4F0994809140
:100CF000880081110DC080912301882349F08091E3
:100D00009C0090919D00892B19F481E080939700BD
:100D100084E690E09093400180933F018CE291E063
:100D20009093CF018093CE018AEF80930E010895B6
:100D3000809189008F3110F010929700E0E3F1E08C
:100D400080818E7F80838091CE019091CF018F35FD
:100D5000914060F082E08093970084E690E0909369
:100D6000400180933F018AEF80930E0188EC90E070
:100D700090931A01809319010895809189008E3112
:100D800010F01092970080910E01843678F48091D3
:100D9000480182FF0BC08091190190911A01892BA3
:100DA00009F063C083E080939700089588EC90E099
:100DB00090931A01809319010895809189008E31D2
:100DC00010F0109297008091480182FD4EC084E09F
:100DD000809397000895809189008E3118F01092C9
:100DE0009700089585E08093970008958091890089
:100DF0008E3110F010929700809148018A708A30ED
:100E0000A1F586E0809397000895809189008E3146
:100E100010F01092970040914E0150914F014253B3
:100E2000510960E070E08091970190919801A09144
:100E30009901B0919A01481759076A077B07A8F4EE
:100E400087E0809397000895E0E3F1E0808181607E
:100E50008083809189008E3130F480919C00909144
:100E60009D00892B11F01092970008958091E30066
:100E70008823ACF48091B100813039F42091D900FD
:100E800025FB222720F928270DC0843051F420911A
:100E9000D60025FB222720F981E0282703C021E086
:100EA00001C020E0E0919700F0E0E830F10508F0A3
:100EB000B8C0EB5DFF4F0994959AAD9AAE98AB9A86
:100EC000AA9AAC9AAF9A0895AE9AAD980895AE9A40
:100ED000AD9AAA9AAB980895AE9AAB9A0895AB9A38
:100EE000089540914E0150914F0160E070E0809173
:100EF000970190919801A0919901B0919A0148179A
:100F000059076A077B0710F4959A01C09598AE9A25
:100F1000AB9AAA988091BE0083FD04C0909188008E
:100F2000993010F0AC9A20C02130F1F482FF0BC050
:100F300091111AC080918A0190918B01843691059C
:100F400098F4AC9811C091110FC080918A019091D2
:100F50008B018436910540F48091DB0084FD03C051
:100F60008091D80084FDAC98AF980895AE9A959A78
:100F7000AB9AAA988091BE0083FD04C0909188002E
:100F8000993010F0AC9A20C02130F1F482FF0BC0F0
:100F900091111AC080918A0190918B01843691053C
:100FA00098F4AC9811C091110FC080918A01909172
:100FB0008B018436910540F48091DB0084FD03C0F1
:100FC0008091D80084FDAC98AF9808958091BE00C0
:100FD00083FF02C0AC9A24C0213011F582FF0DC0FE
:100FE0008091880081111CC080918A0190918B01B1
:100FF00084369105A8F4AC9813C0809188008111C3
:101000000FC080918A0190918B018436910540F444
:101010008091DB0084FD03C08091D80084FDAC98F2
:10102000AF9808958091E3008823B4F48091B100D3
:10103000813041F48091D90085FB882780F991E0C7
:1010400089270DC0843051F49091D60095FB9927E3
:1010500090F981E0892703C081E001C080E0E09140
:101060009700F0E0E830F10508F085C0E35DFF4F40
:101070000994959AAD9AAE98AB9AAA9AAC9AAF9AFF
:101080000895AE9AAD980895AE9AAD9AAA9AAB9883
:101090000895AE9AAB9A0895AB9A0895AE9A40918E
:1010A0004E0150914F0160E070E080919701909166
:1010B0009801A0919901B0919A01481759076A07C0
:1010C0007B0710F4959A01C09598AB9AAA98AF98AF
:1010D0000895AE9A959AAB9AAA98AF980895909170
:1010E00089009E3110F0AC9A45C0813009F042C0B1
:1010F00080918A0190918B0184369105D8F5809179
:10110000D80082FD04C09091DB0092FF02C0AC9831
:1011100031C02091DC0020FF02C0AC982BC081FFC1
:1011200004C091FF02C0AC9825C0892B81FF22C06A
:101130008091D50080FF02C081FD1CC080912201FA
:10114000817111F0AC9816C08091B100813031F4FA
:101150008091D90082FD0AC0AC980CC0843031F473
:101160008091D60082FD02C0AC9804C08091EA0054
:1011700080FDAC98AF9808951092DC011092B900F0
:10118000E7E7F0E0ACEAB1E027E830E08191919147
:101190008D939D93E217F307C9F710929D0010926B
:1011A0009C0080EA90E09093A00080939F000895B7
:1011B0002091BE013091BF018091CE019091CF016D
:1011C0008217930730F401969093CF018093CE015C
:1011D00008952817390728F401979093CF01809339
:1011E000CE0108952091CA013091CB0180913F0139
:1011F000909140018217930730F40196909340013B
:1012000080933F0108952817390728F40197909398
:10121000400180933F0108952091CA013091CB0194
:1012200040910E01842F90E08217930790F488EC90
:101230008093BA0080918E00882321F081508093A2
:101240008E0008954F5F40930E0182E080938E00E0
:1012500008952817390788F488EC80938E008091D0
:10126000BA00882321F081508093BA00089582E06B
:101270008093BA00415040930E010895CF92DF92BF
:10128000EF92FF926091A2017091A3018091A4015D
:101290009091A50128EE33E040E050E025D6CA0148
:1012A000B90153D5BCD5C090C400D090C500E12C85
:1012B000F12C1FD59B01AC01C701B60106D6BB2797
:1012C000A92F982F872F8093970190939801A0932F
:1012D0009901B0939A01FF90EF90DF90CF9008951D
:1012E0002091C2013091C30180918A0190918B01BC
:1012F0008217930788F4AC014E5C5F4F4217530787
:1013000028F430938B0120938A01089501969093DD
:101310008B0180938A0108952817390780F4AC0166
:10132000425351092417350728F430938B01209339
:101330008A010895019790938B0180938A01089503
:101340008091C4019091C5019093100180930F0189
:1013500008958091C6019091C70190939101809367
:10136000900108958091C8019091C90190931E0148
:1013700080931D01089582E38093120180931301ED
:1013800080931401809315018093160180931701B7
:10139000809318011092220108951FBA8EBBE09A23
:1013A000E099FECF8DB308951F93CF93DF93182F4D
:1013B0008F5FF3DFD82F80E0C82F812FEEDFC82B9F
:1013C0008C2F9D2FDF91CF911F91089586E0ECDF48
:1013D0009C012B5E31092432310528F49093C5001D
:1013E0008093C40006C080E091E09093C500809394
:1013F000C40088E0D9DF873722E0920728F48A33D7
:1014000022E0920720F005C088E592E002C088E55E
:1014100092E090939601809395018AE0C5DF8B3F1F
:10142000910520F48639910520F005C088EC90E004
:1014300002C088EC90E090934F0180934E018CE0C5
:10144000B3DF8F3E22E0920728F48A3822E0920729
:1014500020F005C086EC92E002C086EC92E090930A
:10146000CC008093CB000895C09880EE96EEABE060
:10147000B0E0A8950197A109B109D9F7C09A80E019
:1014800090E0A8950196883823E19207D1F78BE187
:101490008FB980E090E0A8950196883823E1920703
:1014A000D1F784E78FB980E090E0A895019688385D
:1014B00023E19207D1F781E18FB980E090E0A89510
:1014C0000196883823E19207D1F78CE08FB908950F
:1014D0001ABA1BBA80EA87BB88B38FEF88BB9CEF30
:1014E00094BB95B385BB8AE281BB87EF82BB8FE754
:1014F00080B987EE9DEFA8950197E8F78FEF9FEFF2
:10150000909353018093520182E88EBD89B7846025
:1015100089BFCFD580E78DB91EB8A6DF53D782EC3F
:101520008EBD89B7846089BF27DE50DF81E080935C
:1015300027011092280110922A011092BF001092E8
:10154000BE001092110185E08093CA0010929700AE
:101550001092CF011092CE0188EC90E09093400160
:1015600080933F0110929701109298011092990177
:1015700010929A0110928B0110928A011092100120
:1015800010920F01109291011092900110921E0181
:1015900010921D018091B1008093A90110922E013B
:1015A00088EC80938A00789482E380939B01109268
:1015B000E4001092E70010923001DDDE80E590E05B
:1015C000909345018093440180EA90E09093A000BD
:1015D00080939F0010929D0010929C0010928800B2
:1015E0000F2EF7E2EF2EF1E0FF2EF02D99249394C9
:1015F0006894882482F80F2EF0E5AF2EB12CF02DE0
:101600000F2EF7EF6F2EF0E07F2EF02D0F2EF8E269
:10161000CF2EF1E0DF2EF02DCEE2D1E00F2EF9E259
:101620004F2EF1E05F2EF02D0F2EFFE22F2EF1E076
:101630003F2EF02DA89580919B01882349F0F7015A
:10164000808181FF03C08092B10002C09092B100FE
:1016500080919700863028F18091970190919801B0
:10166000A0919901B0919A0140914E0150914F0182
:1016700060E070E084179507A607B707B0F04091C7
:1016800095015091960160E070E0481759076A078C
:101690007B0758F020EA30E03093A00020939F00B1
:1016A00004C0B092A000A0929F00E4EFF0E080811F
:1016B00082FF02C061DD5FDEF301808182FD04C034
:1016C000F6018081882314F457DD55DE2091DC017A
:1016D000211106C080919C0090919D00892B21F0E2
:1016E00088818160888303C088818E7F8883809110
:1016F0004801982F907621F498819260988303C0D6
:1017000098819D7F9883982F907184FF04C0888171
:101710008460888303C088818B7F88838091970051
:10172000882341F080918A00811104C088818860FB
:10173000888303C08881877F8883F201808180FF4E
:1017400007C0992309F4F6C088818061888305C0A9
:1017500088818F7E8883992321F0888180628883A5
:1017600002C08F7D8883E3EEF0E08081F101808309
:1017700080914C0190914D0196958795969587950E
:10178000E1E3F1E08083209332018091980080931F
:101790003301F701108100E0F60180819801282BC8
:1017A000C9019093BF008093BE0002DD1BDD34DDD4
:1017B00065DD96DDC5DDCDDDD5DD86D820919301D3
:1017C000309194018091CB009091CC00281739077B
:1017D00020F4B0924501A0924401B4D8F701808171
:1017E00080FF03C0F0D842DB02C0F2D91BDC8FD8E7
:1017F0008091560181110AC010B812B816BE88EF48
:1018000081B98FE780B986E9809356018091BB004A
:10181000882321F081508093BB0006C08EE1809325
:10182000BB00A89594D706D760D58091CB00909146
:10183000CC0073D560E080E008D6DAD580E991E08D
:10184000A8950197E9F780E28FB984E893E0A8951D
:101850000197E9F780919701909198015ED560E03A
:1018600088E2F3D5C5D580E991E0A8950197E9F71D
:1018700080E28FB984E893E0A8950197E9F7809119
:1018800093019091940149D560E080E5DED5B0D513
:1018900080E991E0A8950197E9F780E28FB984E8A3
:1018A00093E0A8950197E9F78091BE009091BF0061
:1018B00034D5692D80E0C9D59BD580E991E0A89504
:1018C0000197E9F780E28FB984E893E0A895019742
:1018D000E9F78091880090E020D5692D88E2B5D5A0
:1018E00087D580E991E0A8950197E9F780E28FB963
:1018F00084E893E0A8950197E9F78091DC0190E0F6
:101900000CD5692D80E5A1D573D580E991E0A89526
:101910000197E9F780E28FB984E893E0A8950197F1
:10192000E9F788E592E00197F1F71092A70010928D
:10193000A60080CE88818F7E14CF1F920F920FB6A3
:101940000F9211240F931F932F933F934F935F9305
:101950006F937F938F939F93AF93BF93EF93FF9377
:10196000A4B1B5B180918E0190918F01009791F152
:10197000019790938F0180938E01893E934008F0E8
:1019800093C08091990090919A008A179B0720F448
:10199000B0939A00A09399008091B600823009F02C
:1019A00083C09D01C3D200919200109193002091B9
:1019B000940030919500DC01CB01800F911FA21F94
:1019C000B31F8093920090939300A0939400B093E0
:1019D00095006AC02091B6002230C9F5809192002E
:1019E00090919300A0919400B09195008093A201F2
:1019F0009093A301A093A401B093A501109292002B
:101A000010929300109294001092950081E08093C0
:101A10001C01809198008F5F8093980080919900BD
:101A200090919A009093C1018093C00110929A0006
:101A3000109299008FEF93E09093510180935001A1
:101A40008AEE93E090938F0180938E012AC081E00B
:101A500080931C01809198008F5F80939800809103
:101A6000990090919A00E22FF0E0EE0FFF1FE454EE
:101A7000FE4F9183808310929A00109299008FEF0D
:101A800093E090935101809350018AEE93E09093FC
:101A90008F0180938E01213021F487E08093B6007E
:101AA00003C021502093B60080911C01882341F08F
:101AB00087B1807E9091B600892B87B910921C0166
:101AC000369AFF91EF91BF91AF919F918F917F9146
:101AD0006F915F914F913F912F911F910F910F90B7
:101AE0000FBE0F901F9018951F920F920FB60F9276
:101AF00011242F933F934F935F936F937F938F9313
:101B00009F93AF93BF93EF93FF9380918A008823B5
:101B100019F0815080938A0080918800882331F0E9
:101B2000809189008F5F8093890002C010928900A4
:101B30008091190190911A01009729F001979093D3
:101B40001A018093190180914401909145010097F9
:101B500031F00197909345018093440109C0809131
:101B60009C0090919D00816090939D0080939C00CB
:101B700080919F009091A000009731F00197909381
:101B8000A00080939F0009C080919C0090919D00CF
:101B9000826090939D0080939C0080919B0188239C
:101BA00009F46AC0815080939B0166C03081332361
:101BB00019F03150308308C0DA01082E02C0AA0F94
:101BC000BB1F0A94E2F76A2B019631968730910584
:101BD00069F76093220180915501882321F081509B
:101BE0008093550106C065D28091B100895D8093D4
:101BF00055018091A901882331F08091A90181507C
:101C00008093A90107C061D28091B100880F815FE4
:101C10008093A9014091B90050E0ECEAF1E0A7E718
:101C2000B0E080E090E09A01082E02C0359527953B
:101C30000A94E2F720FF0AC0208131812115310585
:101C400051F0215031093183208305C02D913C9101
:101C50001197318320830196329612968830910530
:101C600011F788E08093C60080915601882369F0BF
:101C700081508093560109C060912201E2E1F1E0B8
:101C800080E090E041E050E091CFFF91EF91BF9173
:101C9000AF919F918F917F916F915F914F913F9104
:101CA0002F910F900FBE0F901F9018951F920F92BB
:101CB0000FB60F9211242F933F934F935F936F931F
:101CC0007F938F939F93AF93BF93EF93FF9323D211
:101CD000FF91EF91BF91AF919F918F917F916F9104
:101CE0005F914F913F912F910F900FBE0F901F90DA
:101CF000189570D088F09F5790F0B92F9927B75159
:101D0000A0F0D1F0660F771F881F991F1AF0BA95BF
:101D1000C9F712C0B13081F077D0B1E0089574C036
:101D2000672F782F8827B85F39F0B93FCCF38695B5
:101D300077956795B395D9F73EF490958095709512
:101D400061957F4F8F4F9F4F0895E89409C097FB8F
:101D50003EF490958095709561957F4F8F4F9F4F82
:101D60009923A9F0F92F96E9BB279395F6958795C6
:101D700077956795B795F111F8CFFAF4BB0F11F489
:101D800060FF1BC06F5F7F4F8F4F9F4F16C0882330
:101D900011F096E911C0772321F09EE8872F762F66
:101DA00005C0662371F096E8862F70E060E02AF0A7
:101DB0009A95660F771F881FDAF7880F9695879593
:101DC00097F9089557FD9058440F551F59F05F3FFC
:101DD00071F04795880F97FB991F61F09F3F79F04D
:101DE00087950895121613061406551FF2CF4695CF
:101DF000F1DF08C0161617061806991FF1CF869551
:101E00007105610508940895E894BB276627772734
:101E1000CB0197F9089511F40EF44DC03EC0DADFFE
:101E2000D0F39923D9F3CEF39F57550B87FF46D0B4
:101E30000024A0E640EA900180585695979528F432
:101E4000805C660F771F881F20F02617370748072A
:101E500030F4621B730B840B202931294A2BA69581
:101E600017940794202531254A2758F7660F771FC6
:101E7000881F20F026173707480730F4620B730BD2
:101E8000840B200D311D411DA09581F7B901842FD0
:101E90009158880F9695879508959F3F31F09150FE
:101EA00020F4879577956795B795880F911D96953E
:101EB000879597F908959FEF80EC089591505040D1
:101EC000660F771F881FD2F70895DB018F939F93CA
:101ED00039D0BF91AF91A29F800D911DA39F900D0E
:101EE000B29F900D11240895A1E21A2EAA1BBB1BCC
:101EF000FD010DC0AA1FBB1FEE1FFF1FA217B307D6
:101F0000E407F50720F0A21BB30BE40BF50B661FEB
:101F1000771F881F991F1A9469F7609570958095AF
:101F200090959B01AC01BD01CF010895A29FB00126
:101F3000B39FC001A39F01D0B29F700D811D1124DA
:101F4000911D0895F3DFA59F900DB49F900DA49F60
:0C1F5000800D911D11240895F894FFCF1E
:101F5C000896102790018001145E0164002C013258
:101F6C0000C8006400C8083200E803640064006420
:081F7C00006400640064000031
:00000001FF
