:1000000026C098CE3FC03EC036CC96CC3BC03AC04E
:10001000F8CC38C062CC6BCE35C034C08ECB32C089
:1000200031C030C02FC02EC02DC01AC325C332C36B
:100030003EC34AC356C366C374C380C38DC331CDA8
:100040004ECD52CD53CD57CD58CD5CCD5DCD112485
:100050001FBECFE5D2E0DEBFCDBF10E0A0E6B0E02E
:10006000E4EDFDE102C005900D92AA38B107D9F781
:1000700021E0AAE8B0E001C01D92AE37B207E1F777
:1000800093D9A6CEBDCF8CB18BB182728BB988E0EB
:100090008093B300089581E08BB98CE18AB910BCDC
:1000A00087E689B986E880BD579AC2980895CF93AC
:1000B000DF931F92CDB7DEB7C29A84E68983898128
:1000C000882331F089818150898389818111FACF18
:1000D0005D9903C0A8955D9BFDCF8091B100898398
:1000E000589A509A99819CB98093AF000F90DF91F4
:1000F000CF9108955F9BC2C0C2989BB12AB180B5D1
:100100008CB1E091B300F0E0EC5FFE4F80839C7116
:1001100011F0B9DF089521FF4BC08093C6008730EE
:1001200038F08091B100880F825F8093520108956A
:100130009091B1002091C600291738F42091C60093
:10014000921B990F9093520109C02091C600291B60
:10015000922F990F9095915F9093520180934F0148
:1001600087E08093B300589850989091C600809192
:10017000B100981383C0C29A84E68150F1F75D996B
:1001800003C0A8955D9BFDCFE091B300F0E0E55082
:10019000FF4F808150988CB9E091B300F0E0E550BA
:1001A000FF4F90818091AF00890F8093AF00089539
:1001B0009091B300992399F190914F01890F809309
:1001C0004F018091B30081508093B3009091C6009D
:1001D0008091B100981352C0C29A5D9903C0A8954E
:1001E0005D9BFDCF8091B300811105C08091AF0070
:1001F00050988CB90895E091B300F0E0E550FF4FBE
:10020000808150988CB9E091B300F0E0E550FF4F49
:1002100090818091AF00890F8093AF000895589A24
:10022000C29890914F01891329C087E280933501CC
:100230002091C60030E08091B10090E0019628172F
:100240003907E1F484E68093610180913601909151
:1002500037019F7B909337018093360181E090E0D6
:1002600031E0FC01EC5FFE4F2081DC01A551BF4F66
:100270002C93308301968830910599F70895209149
:100280008A0030918B00C9018C77907D85998160BF
:1002900087998260CC9B8068CD9B9160CE9B926059
:1002A000CF9B9460CA9B9860B09B90628217930723
:1002B00069F420913D01222329F0215020933D0132
:1002C000211104C0909321018093200190938B0011
:1002D00080938A00089520918A0030918B00C90193
:1002E000837F85998460879988608217930739F4A2
:1002F00020913D01222319F0215020933D0190933C
:100300008B0080938A00089520918A0030918B00A1
:10031000C9018F7C859980618799806282179307D4
:1003200039F420913D01222319F0215020933D0101
:1003300090938B0080938A00089520918A003091D9
:100340008B00C9018F7B9F7E85999061879980641E
:100350008217930739F420913D01222319F021508F
:1003600020933D0190938B0080938A000895803103
:1003700027E2920728F08FE097E220E030E007C004
:10038000883E43E09407C8F720E030E008C0885E6C
:1003900093402F5F3F4F883E43E09407C0F7209380
:1003A00045018436910550F020E030E084569109F3
:1003B0002F5F3F4F84369105C8F702C020E030E040
:1003C000209344018A30910548F020E030E00A97FC
:1003D0002F5F3F4F8A309105D0F702C020E030E018
:1003E000209343018093420108951FBA8EBBE09A87
:1003F000E099FECF8DB308951F93CF93DF93182F0D
:100400008F5FF3DFD82F80E0C82F812FEEDFC82B5E
:100410008C2F9D2FDF91CF911F91089580EC87B98C
:1004200087E08093480180934B0110928D001092D9
:10043000B50016B8379A329A319A309A339A369A6A
:1004400008952091630130916401A091C200B091A0
:10045000C300B2DCBB27A92F982F872F873122E05A
:10046000920708F453C09C0127513240ACE6B0E03B
:10047000A3DCBB27A92F982F872F4091B600242FEC
:1004800030E02817390770F482E380937B01809174
:100490002F01811117C04F5F4093B60085E0809314
:1004A0002F0110C08217930768F482E380932F0115
:1004B00080917B01811106C085E080937B014150D2
:1004C0004093B6008091B600893C50F08091BB000B
:1004D0009091BC0091609093BC008093BB00089504
:1004E000853050F48091BB009091BC009160909356
:1004F000BC008093BB0008958091BB009091BC002C
:100500009E7F9093BC008093BB0008954091B600FD
:10051000242F30E080E090E0C5CF20916901309138
:100520006A01243883E0380750F08091BB00909135
:10053000BC0092609093BC008093BB0016C025362F
:10054000310550F48091BB009091BC009260909373
:10055000BC008093BB0009C08091BB009091BC009F
:100560009D7F9093BC008093BB00209346018091B7
:100570007A0190E08217930758F482E38093A600F3
:100580008091B700811111C082E08093B7000DC047
:100590002817390750F482E38093B7008091A600B2
:1005A000811103C082E08093A600A091C200B091A7
:1005B000C30002DC70937A010895E0914501F0E0F8
:1005C000EF59FF4F808180937301E0914401F0E087
:1005D000EF59FF4F808180937401E0914301F0E077
:1005E000EF59FF4F808180937501E0914201F0E067
:1005F000EF59FF4F80818093760108952091B600D6
:10060000223330F0822F90E0C297B1DED6DF09C0EE
:1006100082E390E0821B9109AADECFDF80E4809321
:10062000740183E680937301089580917A0190E0CC
:100630009EDEC3DF83E780937301E0914301F0E026
:10064000EF59FF4F80818068809375010895E82FEE
:10065000F0E0EA30F10508F08BC0EB5EFF4F099443
:10066000939880911E0190911F0124EB2093B40078
:100670002091B4002CBF7EC093988091C2009091CD
:10068000C30088519C4F2FEF2093B4002091B400F9
:100690002CBF70C080917A0190E08053984F2FEF6B
:1006A0002093B400939A2091B4002CBF63C0809132
:1006B000B60090E08854944F25EA2093B400939AB2
:1006C0002091B4002CBF56C080914D0190914E01F5
:1006D0008056904F20EA2093B4002091B4002CBFA4
:1006E00049C08091200190912101992788579C4E03
:1006F00025B32E6125BB2BE92093B4002091B400D3
:100700002CBF38C08091210190E08059984E25B3CC
:100710002E6125BB26E92093B4002091B4002CBFA4
:1007200029C08091C9009091CA00885A944E21E94D
:100730002093B4002091B4002CBF1CC080912001F4
:10074000909121019927805C904E2CE82093B40071
:100750002091B4002CBF0EC08091A70090E0885D6E
:100760009C4D2CE82093B4002091B4002CBF02C013
:1007700087E098E0FCDD21DF089580912D019091C4
:100780002E012091C4003091C500821B930B209153
:100790001E0130911F014091C7005091C800241BD9
:1007A000350BAC01992324F444275527481B590BDA
:1007B0004932510514F0880F991FA901332324F4FD
:1007C00044275527421B530B4F3151051CF03595DB
:1007D000279504C035952795359527954091BE00FE
:1007E0005091BF00820F931F840F951F9093BF00FD
:1007F0008093BE002091BE003091BF008091A9007F
:100800009091AA008217930720F49093BF008093E1
:10081000BE002091BE003091BF0080913E019091BA
:100820003F012817390720F49093BF008093BE0042
:100830000895CF93DF9300D0CDB7DEB780914D01FF
:1008400090914E018E35914050F020914D013091A4
:100850004E018EE591E0821B930B4E9738F480E9B0
:1008600091E09093BF008093BE0075C08091A4007A
:100870009091A5002091AB003091AC0082179307B6
:10088000C0F1821B930B9A83898320912D013091B3
:100890002E018091C7009091C8002817390708F4ED
:1008A0005AC040912D0150912E0129813A812A315F
:1008B000310508F450C0481B590B4531510508F467
:1008C0004AC08091400190914101892B09F043C0B9
:1008D0008091A9009091AA00845691099093BF003D
:1008E0008093BE0084EF91E090934101809340019A
:1008F00032C0281B390B3A83298320912D01309176
:100900002E018091C7009091C8002817390718F56B
:1009100040912D0150912E0129813A812A313105D2
:10092000D0F0841B950B4597B0F0809140019091D9
:100930004101892B81F48EE591E09093BF00809373
:10094000BE0090933F0180933E0184EF91E090932D
:100950004101809340010F900F90DF91CF91089556
:100960000F931F93CF93DF93CDB7DEB7A0970FB64A
:10097000F894DEBF0FBECDBFBE016F5F7F4FFB019E
:1009800080E090E0DC01AA0FBB1FA553BF4F2D9163
:100990003C912193319301968031910599F7809193
:1009A000B200811105C010921F0110921E01DBC020
:1009B0001092390110923A0110923B0110923C01C1
:1009C00029813A818B819C81AC0148515C4F42174F
:1009D000530748F44F8D58A148515C4F42175307B5
:1009E00010F49A83898329813A81AC01485E53408F
:1009F0002417350748F44F8D58A1485E53402417FB
:100A0000350710F49A8389832F8D38A18D8D9E8DA3
:100A1000AC0148515C4F4217530750F449815A8149
:100A2000FA01E851FC4FE217F30710F458A34F8F77
:100A30002F8D38A1885E93402817390708F08DC0A4
:100A400089819A81AC01485E53402417350708F02C
:100A500084C098A38F8F81C0DF018281938124811C
:100A60003581A90148515C4F4817590748F4408126
:100A7000518148515C4F4817590710F43383228342
:100A800012968D919C91139714962D913C911597E8
:100A9000A901485E53408417950760F44D915C911D
:100AA0001197485E53408417950720F413963C93A2
:100AB0002E9312973296E017F10771F600913901E3
:100AC00010913A0120913B0130913C01E1E0F0E0CE
:100AD000EC0FFD1FB096DB018D919D91BD01080FBC
:100AE000191F211D311DA895AE17BF07A1F700934F
:100AF000390110933A0120933B0130933C01A90145
:100B00009801689412F8569547953795279516944D
:100B1000D1F76AE979E385E790E02CD9C9013093F0
:100B20001F0120931E012091A2003091A300821783
:100B3000930720F49093A3008093A200809120015A
:100B40009091210180789170892B69F080E496E082
:100B50009093A3008093A20006C08E01035E1F4FF6
:100B6000FE01319679CFA0960FB6F894DEBF0FBE86
:100B7000CDBFDF91CF911F910F91089580912001FA
:100B80009091210191FF0BC080913301909134012C
:100B900091FD05C08091F40081508093F400809114
:100BA000F400833018F082E08093F40008954091BF
:100BB000B000809120019091210187FF06C0209113
:100BC000330127FD02C04F5F08C090FF06C020918F
:100BD00033013091340130FF41504A3008F040E099
:100BE00090933401809333014093B0000895809135
:100BF00020019091210192FF10C0809133019091CA
:100C0000340192FD0AC08091F500882319F01092FA
:100C1000F500089581E08093F5000895E091F200D9
:100C2000E83208F4E8E2E33308F0E2E38091B90047
:100C30009091BA00825D91092091BE003091BF0071
:100C40008217930740F02091BE003091BF00BC0195
:100C5000621B730B02C060E070E080912B019091E9
:100C60002C01AC01435D5F4F5695479556954795CE
:100C7000569547957695679576956795649F90010B
:100C8000659F300D749F300D1124AC014E0F511D26
:100C90003695279536952795A1E2BDE08DD8969596
:100CA0008795481B590B5093F8004093F70008951F
:100CB00080911E0190911F018139914030F0809107
:100CC00032018160809332010895809132018E7FDC
:100CD0008093320108958091200182FD11C080919E
:100CE0001E0190911F018837910550F48091BB003F
:100CF0009091BC0088609093BC008093BB000895E5
:100D00008091BB009091BC00877F9093BC00809342
:100D1000BB00089580914D0190914E012091BE003D
:100D20003091BF00821B930B1AF491958195910924
:100D3000893C910570F08091B400883C50F480911A
:100D4000BB009091BC0084609093BC008093BB007A
:100D500008958091BB009091BC008B7F9093BC0064
:100D60008093BB00089580915001811106C084E6F4
:100D7000809350018091B0006ADC0895CF93DF9397
:100D8000C0913601D09137018091F00084FD03C0FD
:100D9000CF7CDF7A02C0CF78DC7280918C0081300A
:100DA00021F080918C00823019F4209709F480DFC3
:100DB00080918C00823009F449C130F4882359F0C5
:100DC000813009F055C217C1833009F48FC18430D6
:100DD00009F04EC21CC2CD2B21F084E080938C0020
:100DE00047C280917801813009F49DC020F08430A1
:100DF00009F0FAC0EAC080914D0190914E014E97E2
:100E000050F48091BB009091BC0094609093BC0022
:100E10008093BB00E9C0809130018111E5C08091D1
:100E2000B400843708F46DC0A89580914D0190916D
:100E30004E012091B9003091BA002E5531408217F1
:100E4000930750F48091BB009091BC009B7F9093DE
:100E5000BC008093BB0009C08091BB009091BC0096
:100E600094609093BC008093BB008091A80088237D
:100E700041F080914D0190914E019093FA00809342
:100E8000F90080915101811108C08AE080935101DD
:100E90008091B40081508093B40020914D01309135
:100EA0004E018091F9009091FA002817390708F057
:100EB0009BC08091F9009091FA0020914D013091F2
:100EC0004E01821B930B0A9708F48EC080914D014E
:100ED00090914E019093FA008093F900E0914D01BA
:100EE000F0914E018091B4000024EE0FFF1F001C12
:100EF000EE0FFF1F001CEF2FF02DE257FF4F8083F6
:100F000073C080914D0190914E012091B9003091B4
:100F1000BA002E5531408217930708F065C081E072
:100F20008093780161C08091B4008F3A08F049C085
:100F3000A89580915101811108C08AE080935101E8
:100F40008091B4008F5F8093B40020914D01309167
:100F50004E018091F9009091FA008217930708F0F2
:100F600043C080914D0190914E012091F900309144
:100F7000FA00821B930B0A97B8F18091BB00909105
:100F8000BC009B7F9093BC008093BB0080914D017F
:100F900090914E019093FA008093F900E0914D01F9
:100FA000F0914E018091B4000024EE0FFF1F001C51
:100FB000EE0FFF1F001CEF2FF02DE35FFE4F80832D
:100FC00013C084E0809378010FC093988FEF8093D3
:100FD000B4008091BD00811107C080917D01811115
:100FE00003C081E080938C00809132018260809305
:100FF000320178943DC1CF7CDF7ECD2B09F038C122
:101000006ADE809120019091210182FD31C1209101
:101010001E0130911F012739310508F429C192FDC5
:1010200027C182E080938C008EE591E09093BF0011
:101030008093BE00809132018D7F8093320188EED3
:1010400093E09093C8008093C70012C1CD2B19F094
:1010500084E080938C008091BD00882319F084E0A7
:1010600080938C0080911E0190911F0187329240E5
:10107000C8F08091C4009091C5008732924090F0F2
:101080008CED95E090932C0180932B0183E080936D
:101090008C008CE692E09093BF008093BE0010928B
:1010A00047010CC08EE591E09093BF008093BE0095
:1010B00088E795E09093C8008093C700809147012E
:1010C0008111D6C080912D0190912E019093C50081
:1010D0008093C40080911E0190911F0190932E0176
:1010E00080932D018AE080934701C2C02091BB000C
:1010F0003091BC00277F3093BC002093BB008091CF
:101100001E0190911F01803941E0940728F424606A
:101110003093BC002093BB0020917A012A3070F4F8
:10112000893522E0920750F02091BB003091BC003D
:1011300020643093BC002093BB0009C02091BB0009
:101140003091BC002F7B3093BC002093BB00CE7C41
:10115000DE70CD2B19F024E020938C002091BD008F
:10116000222321F084E080938C004BC02091470122
:1011700021112BC02091C7003091C8004091F70089
:101180005091F8002417350738F42F5F3F4F309304
:10119000C8002093C70009C04217530730F42150FC
:1011A00031093093C8002093C70020912D01309160
:1011B0002E013093C5002093C40090932E0180939C
:1011C0002D01DBDA8FE0809347018091310181119D
:1011D00018C08091A4009091A5009093AC008093DA
:1011E000AB0080911E0190911F019093A500809308
:1011F000A4008091B600873408F01BDB86E0809362
:1012000031018091320182608093320131C08FEFD1
:101210008093B4008091A9009091AA009093BF00A0
:101220008093BE0077DD7894809132018D7F80932A
:10123000320186E080937D0180911E0190911F0113
:10124000883C910560F410928C008091BB009091D5
:10125000BC008E7F9093BC008093BB0009C080913E
:10126000BB009091BC0081609093BC008093BB0058
:10127000DF91CF910895209136013091370180E0C0
:1012800090E061E070E0FC01ED5AFE4F40814111B9
:1012900009C0AB01082E02C0440F551F0A94E2F7A3
:1012A000242B352B01968031910569F73093370156
:1012B000209336010895ECE6F0E09F018CE790E082
:1012C000DF01A21BB30B4191AD5ABE4F4C93E817FF
:1012D000F907B1F710923701109236011092BC0055
:1012E0001092BB000895EDE0F1E0AEE8B0E08DE1D2
:1012F00091E03AEA2DE731932D93E817F907D9F7F2
:101300000895809120019091210185FF0BC093FDEC
:1013100002C083FD04C08FEF8093BD00089510923A
:10132000BD0008958091EC0080FF03C01092BD00C5
:1013300008958FEF8093BD0008952091EE00922FC5
:1013400080E02091ED00822B813925E0920710F496
:1013500081E995E0883226E0920710F087E296E076
:1013600090932C0180932B018091EC0083FF04C0AB
:1013700081E08093F50008951092F5000895909112
:101380001E0180911F019093FD008093FE009091BB
:101390003601809137019093FF0080930001809186
:1013A000B6008093010108951ABA84EF8BBB8EEECC
:1013B00087BB88B3836F88BBCFEFC4BBC5BB8AE153
:1013C00081BB8FEE82BB1EB882E78DB96F9A63D660
:1013D00085B7836085BF8BB780648BBF1FBC81ECF2
:1013E0008EBDC093B4008091A9009091AA00909303
:1013F000BF008093BE0089B7846289BF89E683BF3E
:10140000CCBF83E085BD89B7806489BF07D81092BF
:101410004C0188E0F1D79093C3008093C2008AE02A
:10142000E4D78093A700949A789410928C0088E770
:1014300095E09093C8008093C70081E090E090937E
:101440001F0180931E0137DF8FE08093B8008CED81
:1014500095E090932C0180932B011092F5009398C6
:1014600084E68093A8001092780110927A018BE4B0
:101470008093B6008091A9009091AA009093BF003C
:101480008093BE0080E991E090933F0180933E01FC
:101490002ADF8FEA8093B40084E180933001809149
:1014A000B100815F80933501F8948091B4008CBFC6
:1014B00078941092BD001092B0006894CC24C1F8CA
:1014C0000F2EF5E0DF2EF02D0F2EF0EEEF2EF6E0D2
:1014D000FF2EF02D00EF10E0C7E7D1E0A895809136
:1014E00030018823D9F080914D0190914E01909365
:1014F000BA008093B90080914D0190914E01909374
:10150000AA008093A900809120019091210195FF6C
:1015100003C0D092B10002C0C092B100F2DE2FDF52
:10152000809120019091210180FF09C02091BB0092
:101530003091BC0020623093BC002093BB0086FD3C
:101540000AC02091BB003091BC0020683093BC00E1
:101550002093BB0009C02091BB003091BC002F77C5
:101560003093BC002093BB0084FF0AC02091BB00D5
:101570003091BC0020613093BC002093BB0009C0B7
:101580002091BB003091BC002F7E3093BC00209393
:10159000BB0094FD0AC02091BB003091BC003062BA
:1015A0003093BC002093BB0009C02091BB00309158
:1015B000BC003F7D3093BC002093BB009C01207891
:1015C00032702038324031F4F0921F01E0921E0157
:1015D000970108C020911E0130911F01273DE6E0D0
:1015E0003E0750F04091BB005091BC0042605093C8
:1015F000BC004093BB0009C04091BB005091BC00AF
:101600004D7F5093BC004093BB00253A364050F0CC
:101610002091BB003091BC0038603093BC00209317
:10162000BB0009C02091BB003091BC00377F3093D4
:10163000BC002093BB00807891708038914019F0F5
:10164000F801808182FD37DE16DE67D7FAD68091F9
:101650007901882319F084D9109279018091C90009
:101660009091CA00479750F48091BB009091BC00C4
:1016700090619093BC008093BB0009C08091BB0037
:101680009091BC009F7E9093BC008093BB008091A2
:10169000B6008C3950F08091BB009091BC009068EE
:1016A0009093BC008093BB0009C08091BB009091D7
:1016B000BC009F779093BC008093BB008091F500A5
:1016C000882321F088818860888303C08881877F90
:1016D000888349DB6CDA8091200185FF14C08091FA
:1016E000BB009091BC009F7B9093BC008093BB009B
:1016F00080913601909137019F7B909337018093C1
:10170000360175DA0AC019DE8091BB009091BC00E9
:1017100090649093BC008093BB0030DA8091F50018
:10172000882311F07BDADACE80912B0190912C0185
:101730009093F8008093F700D1CE1F920F920FB6CE
:101740000F9211242F933F934F935F938F939F9307
:10175000AF93BF93CF93DF93EF93FF9324B135B152
:101760008091B500813009F06DC030934E01209317
:101770004D0180918D00882309F452C055C041501D
:10178000FC01E85BFE4F4083483008F045C0FC0197
:10179000EE0FFF1FED5DFE4F40815181241735078D
:1017A00038F4FC01EE0FFF1FED5DFE4F3183208307
:1017B000FC01EE0FFF1FE559FE4F4081518142179A
:1017C000530750F5FC01EE0FFF1FE559FE4F318323
:1017D000208322C09C01220F331FE901CD59DE4F27
:1017E000D901AD5DBE4FF901E559FE4F4D915C91B8
:1017F000119720813181240F351F36952795398324
:1018000028832FEF3FEF2D933C9311821082FC0130
:10181000E85BFE4F29E0208381E08093B5000AC099
:1018200083E080938D0002C010928D0080918D0026
:101830008093B50087B1807E9091B500892B87B9E0
:10184000369A08C090E0FC01E85BFE4F40814111F0
:1018500096CFC0CFFF91EF91DF91CF91BF91AF9124
:101860009F918F915F914F913F912F910F900FBE5C
:101870000F901F9018951F920F920FB60F92112480
:101880008F93EF93FF9389B7806289BF8091220184
:10189000811104C081E08093220117C010922201BF
:1018A00080914C01843020F48F5F80934C0102C002
:1018B00010924C011092A1006F9AC19AE0914C01D4
:1018C000F0E0ED58FE4F80818FB9FF91EF918F913D
:1018D0000F900FBE0F901F9018951F920F920FB68A
:1018E0000F9211248F939F938091A100811111C0B9
:1018F0008091A1008F5F8093A10081E090E0009033
:101900004C0102C0880F991F0A94E2F780958FB9A5
:101910000CC0C1986F9888B7806488BF89B780640D
:1019200089BF84E085BD109222019F918F910F9015
:101930000FBE0F901F9018951F920F920FB60F9227
:1019400011242F933F934F935F938F939F93EF9324
:10195000FF9389B78F7D89BF26B537B58091C000C9
:101960009091C1002817390720F02091B200213052
:1019700021F02091B20021110CC0E091B800F0E0FC
:10198000EE0FFF1FE553FF4F8FEF9FEF9183808393
:101990000EC026B537B5E091B800F0E0A901481BAC
:1019A000590BEE0FFF1FE553FF4F5183408386B560
:1019B00097B59093C1008093C0008091B8008823B0
:1019C00021F081508093B80006C08FE08093B8006A
:1019D00081E08093790182E08093B20088B78460CF
:1019E00088BF89B7806289BFFF91EF919F918F91E6
:1019F0005F914F913F912F910F900FBE0F901F90CD
:101A000018951F920F920FB60F9211242F933F93A8
:101A10004F935F936F937F938F939F93AF93BF93F6
:101A2000EF93FF938091AD009091AE00009731F05D
:101A300001979093AE008093AD001DC08AEF90E0B7
:101A40009093AE008093AD008091B000883051F447
:101A5000A99B04C085B3857E85BB0DC085B38E610F
:101A600085BB09C0A99B04C085B3897E85BB03C023
:101A700085B38E6185BB8091F600882331F080911B
:101A8000F60081508093F60003C087E08093F60053
:101A9000E091F600F0E0E830F105F0F5E15EFF4F8F
:101AA0000994EDD38091A600882319F0815080938A
:101AB000A60080917B01882319F0815080937B01DF
:101AC0008091B700882319F081508093B7008091EE
:101AD0002F01882321F1815080932F0120C085B3ED
:101AE0008E7185BBA89A1BC0F6D319C085B38E71C1
:101AF00085BBAD9A14C008D412C085B38E7185BB66
:101B0000AE9A0DC01AD40BC085B38E7185BBAF9A47
:101B100084E080933D0103C087E08093F6008091CC
:101B20009F009091A000969587959093CA0080930E
:101B3000C9001092A00010929F008091510188234B
:101B400029F0809151018150809351018091A8002A
:101B5000882329F08091A80081508093A80080916B
:101B6000400190914101009729F001979093410124
:101B70008093400180914701882329F0809147019B
:101B800081508093470180913101882329F0809111
:101B9000310181508093310180915001882329F0D7
:101BA00080915001815080935001809138018823A9
:101BB00021F081508093380171C0809130018823D9
:101BC00039F09091BD00911103C081508093300194
:101BD00087E08093380180915201882331F0809111
:101BE000520181508093520107C061D28091B100AF
:101BF000880F815F8093520180913501882331F0F5
:101C00008091350181508093350157C044D2809135
:101C1000B100895D8093350150C09B01082E02C040
:101C2000220F331F0A94E2F72E233F23232B69F060
:101C3000DC01AD5ABE4F2C91222379F0DC01AD5A64
:101C4000BE4F2C9121502C9308C0DC01A459BF4FEA
:101C50002C91DC01AD5ABE4F2C9301968031910539
:101C6000E1F680913201982F80FD04C086E08093D8
:101C70007C0107C080917C01882319F081508093FA
:101C80007C0191FF08C080917D01882339F081504B
:101C900080937D0103C086E080937D018091B20036
:101CA000882331F08091B20081508093B2000EC041
:101CB00010921F0110921E0109C0E091BB00F0912B
:101CC000BC0080E090E061E070E0A7CFFF91EF9171
:101CD000BF91AF919F918F917F916F915F914F9144
:101CE0003F912F910F900FBE0F901F9018951F924C
:101CF0000F920FB60F9211242F933F934F935F9340
:101D00006F937F938F939F93AF93BF93EF93FF93C3
:101D1000F1D1FF91EF91BF91AF919F918F917F9101
:101D20006F915F914F913F912F910F900FBE0F9048
:101D30001F9018951F920F920FB60F9211248F9338
:101D40009F9380919F009091A00001969093A00096
:101D500080939F008BB78F7B8BBF8AB780648ABFCD
:101D60008BB780648BBF9F918F910F900FBE0F90A8
:101D70001F901895A1E21A2EAA1BBB1BFD010DC0D6
:101D8000AA1FBB1FEE1FFF1FA217B307E407F5072B
:101D900020F0A21BB30BE40BF50B661F771F881F07
:101DA000991F1A9469F760957095809590959B019D
:101DB000AC01BD01CF010895A29FB001B39FC00146
:101DC000A39F01D0B29F700D811D1124911D089514
:041DD000F894FFCFB5
:101DD400073F065B4F666D7D077F6F06FA02FA6464
:101DE4003C1E96191919FA023CC864195E010E01C9
:0A1DF400D6065E019001C800080049
:00000001FF
