:0A000000AEC1FECFFDCFFCCFFBCF59
:10000A00FACFF9CFF8CFF7CFF6CFF5CFF4CFF3CFBA
:10001A00CFC1F1CFF0CFEFCFEECFEDCF28405F00C9
:10002A00C0002F405F00000137405F00C0002F4032
:10003A005F00000137405F00C0002F405F000001F1
:10004A0037405F00C0002F405F00000128405F007A
:10005A00C0002F405F00000137405F00C0002F4002
:10006A005F00000137405F00C0002F405F000001C1
:10007A003B000037415F00C1002F415F0081000053
:10008A00800040000028415F00C1002F415F00014D
:10009A000137C13900802500C1002F405F000001EF
:1000AA0037405F00C0002F405F0000014700003763
:1000BA00415F00C1002F415F0001014500002D4151
:1000CA005F00C10034415F0001013DC13900802554
:1000DA0000C10034405F0000013D405F00C00034B1
:1000EA00405F0000014000003D415F00C100344113
:1000FA005F00010143000030415F00C10037415FEA
:10010A0000010145000040415F00C10037415F0026
:10011A00010142000032415F00C10039415F00C164
:10012A003A0040263E000039415F000101400000CC
:10013A0028415F00C1002F415F00010137C139002A
:10014A00802500C1002F405F00000137405F00C0DA
:10015A00002F405F00000147000037415F00C100E7
:10016A002F415F0001014A00002F415F00C10036A4
:10017A00415F0001013EC13900802500C1003640BF
:10018A005F0000013E405F00C00036405F00000192
:10019A004900003E415F00C10036415F0001014A4B
:1001AA0000002B415F00C10032415F0001014C0099
:1001BA00003B415F00C10032415F0001014900007C
:1001CA002D415F00C10034415F0001013DC139008A
:1001DA00802500C1004500003441604700002F41DE
:1001EA005F00C10036415F0001013FC1390080252F
:1001FA0000C10036405F0000013D00603640603BB0
:10020A0000603640602F405F00C00036405F00004B
:10021A00014701003E405F00C00036405F00000118
:10022A005601004A00603640603EC0390041264E01
:10023A0001003640604C010028405F00C0002F409A
:10024A005F00000138C03900812500C00047010065
:10025A002F406047010028405F00C0002F405F0028
:10026A00000138C03900812500C0002F405F00001E
:10027A000128405F00C0002F405F0000014C0100D0
:10028A0038405F00C0002F405F0000015301004763
:10029A0000602F405F00000137C03900812500C08F
:1002AA00005801004C40604E01002F405F00C00022
:1002BA0036405F0000013EC03900812500C000477A
:1002CA00010036405F0000015301004700603640DC
:1002DA00603EC0390041263640602F405F00C000B2
:1002EA0036405F0000013E405F00C00036405F00BC
:1002FA0000014501003200603940604701004200B8
:10030A00603940604801002D405F00C00034405F02
:10031A000000015601004A006034405F00000153AA
:10032A0001004700603640603EC03900F8FF6F7E2A
:10033A005777A370516A5A64B85E67596254A54FD9
:10034A002E4BF546F9420000002D223506008000AA
:10035A0050030000F894EE27ECBBE5BFF8E1A4B720
:10036A00A77FA4BFF1BDE1BD8DE0A2E0ED938A9520
:10037A00E9F780E8A0E6ED938A95E9F7E6E5F3E088
:10038A0085919591009761F0A591B5910590159089
:10039A00BF01F00105900D920197E1F7FB01F0CF43
:1003AA00E0E0E3BBE4BBE5BBEFEDEDBFC0E822C094
:1003BA000A921A92FA926A937A938A939A93AA93CE
:1003CA00BA93EA93FA93EFB7EA9302D1E991EFBFAE
:1003DA00F991E991B991A991999189917991699143
:1003EA00F990199009901895E6E2F0E0FA93EA93E9
:1003FA0047D10895E0E8E6BDE0E0E6BDEBBBEABB25
:10040A00E8BBE7BBE2BBEFE7E1BBE2E0E0BFE3BF8B
:10041A00E0E0E2BFEDE7E6BFE0E0ECBFEFBDEEBD36
:10042A00EDBDECBDE5BDE4BDEBBDEABDE9BDE8BD92
:10043A00EBBFE5BFE1E0E9BFE0E0EDB9EAB9E0E82A
:10044A00E8B9E0E0E1B97894E6E2F0E0FA93EA93F9
:10045A0017D1FFCFFFCFA7D1E0918200E0938300AD
:10046A00E0918300E274E0938300A0918300A030BE
:10047A0021F0A0918300A23408F002C011E001C06B
:10048A0010E0A0918400B0E0E7E021D10E2FE091C6
:10049A008400EE0FE0938400E0918400E12BE09366
:1004AA008400A0918500B0E0E7E011D11E2FE09111
:1004BA008500EE0FE0938500E0918500E02BE09344
:1004CA008500E0918200EE0FE0938200E0918200C5
:1004DA00E12BE0938200E09182006FD1089563D10D
:1004EA00EA81F0E0A3E8B0E053D1EA1BFB0B1E2F30
:1004FA00A12FB0E0ECE0F0E02DD10E2F612F77278D
:10050A00E02FF0E0ACE0B0E00DD1DF01FB01EA1B27
:10051A00FB0B1E2FE12FA8E3B3E0F0E0EE0FFF1F65
:10052A00EA0FFB1F32D1E02FDBD044D1CAC037D14A
:10053A00E0918000F0918100319623D19F01E091F2
:10054A008000F09181000491E22FE7701E2F36950A
:10055A0027953695279536952795EFEFFFE1E21710
:10056A00F30711F441DF31C0E02FF0E0C2D0E870A8
:10057A001E2B0F77A8E8E12FEE0FEE0FAE0FE0E08B
:10058A00F0E0ED93FC93003019F440E050E008C02D
:10059A00013019F441E050E003C00A93A0DFAF0133
:1005AA00A8E8E12FEE0FEE0FEA0F42835383A0E88B
:1005BA00ED91FD913396FE93EE93022E032A09F4F0
:1005CA00B7CF2093860030938700F0D026960895FF
:1005DA00E8D0E0918000F0918100309709F44DC095
:1005EA00E0918600F0918700309709F4A0DFA6E831
:1005FA00ED91FD913197FE93EE9310E038E800E01B
:10060A000430E8F4E32FA281B381119711F423DFB8
:10061A0011C0E32F2E2F00801180A32FAE5FADD023
:10062A00E00DF11DA22FED93FC93A32FA6D0DF01BD
:10063A00EDE056D0E1701E0F3C5F0F5FE1CFE12F76
:10064A00F0E059D0E17011F4C39801C0C39AE12FC8
:10065A00F0E053D0E17011F4C29801C0C29AE12FC0
:10066A00F0E0F595E795E17011F4C19801C0C19ADF
:10067A0010FD02C0C09801C0C09A9AD0249608956D
:10068A00E8E8EA93E0E0EA93E0E1EA9310D0E0E0F8
:10069A00F0E0E0938600F0938700F894E881F9810E
:1006AA00E0938000F0938100789422960895A881BF
:1006BA00AA2331F0FF27EA8169816193AA95E9F7B4
:1006CA00EA8123960895F195E195F0400895EE2385
:1006DA000E2EFD0121F0F595E7950A94E1F70895AC
:1006EA00EE230E2EFD0121F0F695E7950A94E1F727
:1006FA000895F595E795F595E795F595E795F595B7
:10070A00E79508950A2E1B2E81E1AA27BB1B05C077
:10071A0010F4A00DB11DB695A795F795E7958A95A2
:10072A00B9F708951CD0EEDF0EF4CDDF089500244A
:10073A00112490E1AA0FBB1F001C111C0E1A1F0ADC
:10074A0018F40E0E1F1E01C0A1609A9599F7FD01BB
:10075A00D001089504D0EBDF0EF4B5DF0895E894D4
:10076A00F7FF02C0B0DF6894B7FF06C0A095B09546
:10077A00119600F8039400FA0895ED91FC91AA9558
:10078A0008950590F491E02D0895A591B4910895E6
:10079A001B2EBF2FF12D1A2EAE2FE12D08955A933D
:1007AA004A933A932A931A930A9308955D814C8146
:1007BA003B812A8119810881089509911991089527
:00000001FF
