:1000000014C02EC02DC02CC02BC02AC029C028C0AF
:100010001CC226C025C024C023C022C021C020C0CD
:100020001FC01EC01DC01CC01BC011241FBECFE5B9
:10003000D2E0DEBFCDBF10E0A0E6B0E0E0EEF7E03A
:1000400002C005900D92A037B107D9F720E0A0E7D4
:10005000B0E001C01D92A43DB207E1F7C1D2BEC31A
:10006000CFCFC6982091700030917100622FC9994E
:1000700052C06160CA994DC06260CB9948C064604B
:10008000CC9943C06860B09913C06061862F90E03E
:100090002817390799F020918700211104C0109288
:1000A0009E0010929D0090937100809370000895BF
:1000B0006F7E862F90E02817390769F740919B00E3
:1000C00050919C005093A2004093A10090939C00FB
:1000D00080939B00762F707120919D0030919E003F
:1000E000E091870065E040715527772329F041159D
:1000F000510511F42061EEE16150B9F730939E0093
:1001000020939D00E0938700C6CF677FBCCF6B7FB5
:10011000B7CF6D7FB2CF6E7FADCFA9ECB0E0FD0160
:1001200080E09191890F90E0E33DF907D1F790913C
:10013000C80089130895EDE8F0E08D91819380E087
:10014000A33DB807D1F78AE08093A40082E390E052
:100150009093BF008093BE008091A5008E7F809316
:10016000A500089506B607FC13C0A89580918500E8
:1001700090918600009721F413C0A895009781F014
:100180000197909386008093850006B607FEF5CF11
:1001900088E893E1909386008093850081E008953C
:1001A00088E893E1909386008093850080E008952D
:1001B00081B1887F803679F181B1887F803861F0A4
:1001C00081B1887F883AC9F081B1887F883B51F13D
:1001D00086B7806886BF08958091750093B1E82F37
:1001E000F0E0E853FF4F9083882399F0815080938B
:1001F000750086B7806886BF08958AE0809388007E
:100200001092BD008091B00083B986B7806886BF28
:10021000089583DFDDCF8AE08093750086B780681C
:1002200086BF0895E0918800E1110AC08091A60080
:1002300083B981E08093BD0086B7806886BF08954A
:10024000E150E0938800F0E0EA55FF4F808183B9E8
:10025000BFCF1092A600E7EAF0E080E09191890F0D
:100260008093A60090E0E13BF907C1F708958091E3
:100270007D008F5F80937D00909176009093A90020
:100280008093AA008091A5008093AB0080919B0091
:100290008093AC00089582B3846B82BB8BB381667C
:1002A0008BBB8091760083FD02C0969A0895969844
:1002B00008957091A500EEEBF0E080E090E041E061
:1002C00050E021913191232B39F49A01082E01C07D
:1002D000220F0A94EAF7722B01968530910589F76F
:1002E0007093A50008951092A50082E390E090938A
:1002F000BF008093BE0084EF91E09093C100809393
:10030000C0009093C3008093C2009093C500809377
:10031000C4009093C7008093C60008958091760032
:1003200083FD08C080918F0086FD06C08091A500E6
:100330008E7111F4AE9A0895AE98089580919D0043
:1003400090919E0084FF0CC02091760023FD16C082
:100350002860209376008F7E90939E0080939D006E
:1003600080919B0090919C0083FD0CC090FF05C084
:10037000809176008F7E809376000895277F20936A
:100380007600E9CF809176008061809376000895B1
:1003900080918D0084FD05C080918E0084FDAD9A12
:1003A0000895AD980895AB9A8091A50081FD0AC08B
:1003B00080919B0080FD06C080918300811102C066
:1003C000AA980895AA9A0895AA9A8091A50082FDF4
:1003D0000AC080919B0081FD06C080919900811127
:1003E00002C0AB980895AB9A0895C39A8091A50076
:1003F00083FD0AC080919B0082FD06C0809184002D
:10040000811102C0AC980895AC9A0895AC9A80917D
:10041000A50084FD0AC080919B0083FD06C08091E9
:100420009A00811102C0C3980895C39A0895AA9BA7
:100430000AC080E0AB9B8460AC9B8860C39B8061FA
:1004400080938200089582E0F5CF1F920F920FB63D
:100450000F9211242F933F934F935F936F937F934A
:100460008F939F93AF93BF93EF93FF9380918700F8
:10047000882319F081508093870080918B00882316
:1004800009F46FC080918B00815080938B00809124
:100490008B00813009F46DC0813008F06DC0E1DD62
:1004A00080917D008F5F80937D008091A4008823E0
:1004B00019F081508093A4008091BE009091BF00FC
:1004C000009729F001979093BF008093BE00409160
:1004D000820050E0E0ECF0E0A2E6B0E081E090E0E5
:1004E0009A01082E02C0359527950A94E2F720FF5D
:1004F0004FC0208131812115310521F02150310972
:10050000318320830196329612968530910541F70A
:10051000AB9944C08FE080938300AA9949C08FE0D3
:1005200080939900C3994EC08FE080938400AC9B68
:1005300053C080919A00882319F0815080939A00CB
:10054000FF91EF91BF91AF919F918F917F916F91AB
:100550005F914F913F912F910F900FBE0F901F9081
:10056000189583E080938B0080918B00813009F097
:1005700093CFC598C69A94CF823009F490CF833038
:1005800021F083E080938B008BCFC698C59A88CFEB
:100590002D913C91119731832083B4CF80918300BA
:1005A000882309F4BACF815080938300AA9BB7CFE8
:1005B00080919900882309F4B5CF815080939900E8
:1005C000C39BB2CF80918400882309F4B0CF8150BF
:1005D00080938400AC99ADCF8FE080939A00B0CF28
:1005E00081E68ABB8FEF8BBB98E697BB88BB9CEFFD
:1005F00094BB85BB8EEF81BB87EF82BB15BC1FBC54
:1006000013BE8FE780B982E08EBD89B7846089BF51
:1006100086E082B984E486BF7894EDE8F0E0119238
:1006200080E0E739F807D9F781E08093980080E10E
:10063000809376008AE08093A40085E08093870011
:100640001092A50082E390E09093BF008093BE00DB
:1006500084EF91E09093C1008093C0009093C30019
:100660008093C2009093C5008093C4009093C7000C
:100670008093C60082E3E82EF12C04EF11E0C1E084
:10068000D0E098EFB92ECC24CA94DC2C2FE7722E40
:1006900036E0832E44E4942E5AE0A52EA89580914E
:1006A0008F0080FF16C01092A500F092BF00E0926C
:1006B000BE001093C1000093C0001093C3000093CC
:1006C000C2001093C5000093C4001093C7000093AC
:1006D000C6005091A500EEEBF0E080E090E02191A3
:1006E0003191232B39F49E01082E01C0220F0A9468
:1006F000EAF7522B01968530910589F75093A500B2
:1007000096DE1CDE45DE80918D0080FD56C0909106
:100710008E0090FD56C095B39C6095BB81FD4BC08B
:1007200080918E0081FD51C0AC9AC39AB4DDF6DD94
:100730008091BD00882301F180917D008F5F8093BF
:100740007D00909176009093A9008093AA008091FB
:10075000A5008093AB0080919B008093AC00109229
:10076000A600E7EAF0E080E09191890F8093A6006F
:1007700090E0E13BF907C1F706B607FC28C080917D
:10078000A40081118BCF10B812B816BEB1B882E3A5
:1007900090E0A8950197E9F770B882B896BEA0924C
:1007A000A40088EC90E0A8950197E9F7D092A0000A
:1007B000C0929F0073CF19DEB9CFF5DD80918D0017
:1007C000ADCF02DE80918D00A9CF20DEAFCFF0DC6F
:1007D000809179008F5F80937900D1CFF894FFCF1B
:1007E0003200F401F401F401F4010A88130F0F0040
:00000001FF
