:1000000014C02EC02DC02CC02BC02AC029C028C0AF
:10001000C0C526C025C068C623C022C05BC520C09D
:100020001FC01EC01DC01CC01BC011241FBECFE5B9
:10003000D2E0DEBFCDBF10E0A0E6B0E0E0E7FDE03B
:1000400002C005900D92AE37B107D9F711E0AEE7C7
:10005000B0E001C01D92A835B107E1F79FD486C674
:10006000CFCF99B396959695969590959170CC9B98
:100070009260CD9B946080917E00981711F49093CC
:10008000050190937E00089580EC87B910BE80E052
:1000900094E090932A018093290116B8379A329AF6
:1000A000319A309A339A369A089506B607FC0EC0F4
:1000B00080918E0090918F00009719F40FC00097E7
:1000C00069F00197A89506B607FEF9CF80E197E29F
:1000D00090938F0080938E0081E0089580E197E2F5
:1000E00090938F0080938E0080E008951F93DDDF52
:1000F0008823B9F081B1887F883049F081B1887F49
:10010000803129F084E986BF80E01F9108958091B5
:100110002B01880F8C5F83B984EC86BFC6DF8823F0
:1001200019F480E01F91089581B1887F883151F7DB
:100130008AE080939100E0912B01F0E0EF5EFE4FAA
:10014000848983B984E886BF14E817C081B1887FA9
:100150008832C1F6E0919100EE2399F0E150E093EE
:10016000910080912B01F0E0EE0FFF1FE80FF11DD1
:10017000EF5EFE4F808183B916BF97DF882331F78A
:10018000D0CF84E986BF81E0CDCF0F931F938DDF61
:100190008823C1F181B1887F883031F084E986BF3E
:1001A00080E01F910F91089580912B01880F8B5F44
:1001B00083B914EC16BF79DF882321F181B1887FE0
:1001C000803461F78BE080937F0083B18093560188
:1001D00016BF04E814EC69DF8823A1F081B1887FA1
:1001E0008035B1F4E0917F00EE2381F0E150E0939F
:1001F0007F0083B1F0E0E55BFE4F808316BF55DFE3
:10020000882361F780E01F910F91089506BFE3CF27
:1002100084E986BF81E0F7CFEF92FF920F931F939F
:10022000CF93DF931092110110921201E3E1F1E0FC
:10023000808190911101890F8093110181819091AA
:100240001201890F80931201329621E0E732F20702
:1002500079F78BE090E0909387008093860084EAA2
:1002600086BF80E197E290938F0080938E003EDFFF
:10027000882311F484E986BF80E090E0A895019678
:10028000A3E188389A07D1F70CE411E0E801219640
:10029000B1E0C635DB07D9F78BE090E0909387009B
:1002A0008093860025EFE22E2FEFF22EEC0EFD1E3E
:1002B000F701808180932F011092300184EA86BF7C
:1002C00080E197E290938F0080938E005EDF882319
:1002D000D9F0F701319620E08191280FCE17DF0782
:1002E000D9F78BE090E0909387008093860020936D
:1002F0002D0180914B01821781F0DF91CF911F91E9
:100300000F91FF90EF90089584E986BFDF91CF9120
:100310001F910F91FF90EF90089580912B018823FA
:10032000D9F4E2EEF0E0D8018D918D018083329610
:10033000B1E004351B07B9F789E090E0909387009E
:100340008093860084E180930D0188EC90E0909387
:10035000440180934301D1CF813079F6E3EEF0E0A0
:10036000D8018D918D0180833296B1E006351B074F
:10037000B9F78BE090E0909387008093860084E14A
:1003800080930E0188EC90E09093460180934501A4
:10039000B4CF8091AD008330E0F420910B01287F31
:1003A000309182008091BE0087FD08C080910F01CE
:1003B0009091100186779070892BD9F02860209356
:1003C0000B013234F8F03B3418F02F7E20930B01F0
:1003D000089520910B01822F2260309182003535E3
:1003E000A8F0282F26608091C5008D37B0F02160DD
:1003F000D9CF8091E9008E7109F7277F20930B01F7
:10040000323408F7206120930B0108953D3358F7EB
:100410002B7F8091C5008D3750F7893718F62E7FD6
:10042000C1CF8CB18BB182728BB988E08093880088
:1004300008951BB8589A8CE18AB910BC87E689B92F
:1004400086E880BD579A93980895DF93CF930F92D3
:10045000CDB7DEB7939A84E689838981882331F00A
:1004600089818150898389818823D1F781E08BB983
:1004700019825D9903C0A8955D9BFDCF509A898133
:100480008CB9109285000F90CF91DF910895DF9382
:10049000CF930F92CDB7DEB793985F9904C00F90BA
:1004A000CF91DF9108958BB12AB190B59CB1E091C5
:1004B0008800F0E0E550FF4F90838C71A9F521FF93
:1004C0003EC090939000973008F0AEC09983898128
:1004D000880F89838981809589838981815F809351
:1004E0002E0190932C0187E08093880058985098B3
:1004F0009923A9F6939AE0918800F0E0EE50FF4F1F
:10050000E0815D9903C0A8955D9BFDCF5098ECB943
:10051000E0918800F0E0EE50FF4F809185009081DF
:10052000890F80938500BBCF8CB18BB182728BB960
:1005300088E0809388000F90CF91DF91089580919B
:100540008800882309F052C0589A939880912C0112
:10055000981709F0A4CF80919000482F50E0FA013D
:10056000EE0FFF1FEF5CFE4F2AEF30E03183208358
:10057000882319F087E280930C0121E030E0042EFB
:1005800002C0220F331F0A94E2F720953095809124
:100590000F01909110018223932390931001809377
:1005A0000F0181E089838981883008F078CF92E05B
:1005B000E981A981F0E0EE0FFF1FEE0FFF1FEE0FA4
:1005C000FF1FE40FF51FED56FF4FB0E0A550BF4FE2
:1005D0008C918083E981F0E0E550FF4F9083898121
:1005E0008F5F89838981883018F359CF80912C01DE
:1005F000890F80932C01809188008150809388001E
:1006000080919000882309F04ACF939A5D9903C0A6
:10061000A8955D9BFDCF80918800882349F4509870
:10062000809185008CB93BCF8EE080932E0137CF2F
:10063000E0918800F0E0EE50FF4F808150988CB937
:1006400067CF1092100110920F0120E030E0F90105
:10065000EF5CFE4FD901A05ABF4F8D919C919183C1
:1006600080832E5F3F4F2631310589F708954091F1
:100670000F0150911001E1E3F1E020E030E0A1E052
:10068000B0E080819181892B49F4CD01022E02C016
:10069000880F991F0A94E2F7482B592B4C7E56700D
:1006A0002F5F3F4F32962B30310559F75093100191
:1006B00040930F010895209147013091480140E097
:1006C00050E060918B0070918C0080E090E02FD31F
:1006D000672F782F892F992781E06039780728F0D4
:1006E00083E0673B780708F44EC0809189008068FA
:1006F0008093890082E06731780728F16751724062
:1007000080E090E02CE630E040E050E010D3672F2E
:10071000782F892F992790918200292F30E0261772
:100720003707B8F48FEF809392008091DE00882322
:1007300019F181508093DE009233D0F491959E544C
:100740009093DF00089590918200292F30E060E0BF
:1007500070E06217730780F78FEF8093DE0080915F
:1007600092008823B1F0815080939200923330F34D
:1007700092539093DF0008959F5F9093820082E0F0
:100780008093DE00D9CF809189008F778093890094
:10079000B1CF82E080939200892F815080938200B4
:1007A000982FCACF1FBA8EBBE09AE099FECF8DB3C7
:1007B0000895FF920F931F93F82E8F5FF3DF182F8A
:1007C00000E08F2DEFDF282F30E0202B312BC901E7
:1007D0001F910F91FF900895C49A8091050180FDAB
:1007E0000AC080918D00882331F480910F0185FD2E
:1007F00002C0C3980895C39A0895C39A80910501D1
:1008000081FD0AC080910401882331F480910F0199
:1008100086FD04C0C4980895C49A0895C39A0895A3
:1008200080910B0182FD02C0E8DF0895D5DF0895B5
:1008300080910F018093F3008091E9008F71809384
:10084000F4008091EB008F718093F500089582E0B1
:100850008093130140910F015091100142FD3CC063
:1008600080E060E08093150143FD3CC080E0809310
:100870001701CA0180769070892BE9F580E080939A
:1008800019018091E900282F30E0C901867090702D
:10089000892B09F042C080E080931B0128713070E1
:1008A000232BC1F580E080931D0147FD30C080E01F
:1008B00080931F0140705670452B01F51092210165
:1008C0006623F9F48091AD00833050F583E0809386
:1008D000230110922501089587E061E080931501BE
:1008E00043FFC4CF86E061E080931701CA018076A0
:1008F0009070892B19F285E061E0C1CF88E0809388
:10090000210180E08093230110922501089585E163
:1009100061E0CECF82E061E0C6CF81E061E0BCCF94
:1009200080919E0081FFD2CF84E0809323011092BA
:1009300025010895C3990BC080918900806280933E
:100940008900C49B0BC08F7B8093890008958091A0
:1009500089008F7D80938900C499F5CF806480934E
:100960008900089580910B018093140180958093F4
:100970001601089512B816BE88EF81B98FE780B9C5
:1009800087EE9DEFA89501972FEF8F3F9207D1F744
:1009900084E180930D0180930E0108951F931ABA8C
:1009A0001BBA8CEB87BB88B39FEF98BB8CE184BBF1
:1009B0008AEB81BB92BBDEDF82E88EBD89B78460A3
:1009C00089BF37DD82E78DB91EB85EDB15BE85E0D5
:1009D00083BF12BC82E085BD12BC81E080932B01F5
:1009E00010922E011092100110920F0120E030E0C1
:1009F000F901EF5CFE4FD901A05ABF4F8D919C9138
:100A0000918380832E5F3F4F2631310589F788E03F
:100A1000D0DE90938C0080938B00789411E0A895A1
:100A20004ADE15DFB6DC86DFFBDE8091BE0082FF8A
:100A30004BC01092100110920F0120E030E0F9013C
:100A4000EF5CFE4FD901A05ABF4F8D919C919183CD
:100A500080832E5F3F4F2631310589F78091180141
:100A600081608093180103DE80910F018093F30071
:100A70008091E9008F718093F4008091EB008F7179
:100A80008093F50080910D018823A9F080910E01DB
:100A9000882389F0E6DA80912B01882391F0815038
:100AA00080932B0180910B0180931401809580939A
:100AB0001601B2DBB4CF5EDFD4DA80912B0188233C
:100AC00071F710932B01EECF809118018E7F8093E8
:100AD0001801C9CF1F920F920FB60F9211242F93B6
:100AE0003F934F938F939F9324B135B18091290108
:100AF00090912A01009761F1019790932A018093C8
:100B0000290181509440B0F4809106019091070131
:100B10002817390720F430930701209306018091AC
:100B2000490190914A018217930720F430934A01BA
:100B30002093490187B1807E87B9369A9F918F9122
:100B40004F913F912F910F900FBE0F901F901895CE
:100B500080910601909107012091490130914A014D
:100B6000820F931F96958795909348018093470134
:100B70008FEF9FEF909307018093060110924A0137
:100B80001092490182E094E090932A018093290118
:100B9000D1CF1F920F920FB60F9211242F933F9334
:100BA0004F935F936F937F938F939F93AF93BF9375
:100BB000EF93FF93809184008F5F809384008091F6
:100BC000350190913601009729F0019790933601F5
:100BD000809335018091370190913801009729F079
:100BE0000197909338018093370180918900482FB5
:100BF00050E0EBE3F1E0AAE6B0E025E030E00EC023
:100C000080819181009719F00197918380832F5FF4
:100C10003F4F3296129628303105A9F0CA01022EB4
:100C200002C0959587950A94E2F780FDE9CF8D91F2
:100C30009C911197918380832F5F3F4F329612963C
:100C40002830310559F7C4993DC08EE180938D005D
:100C5000C39930C08EE18093040180910D018823F7
:100C600019F0815080930D0180910E01882319F0B5
:100C7000815080930E0180910C01882381F1815075
:100C800080930C0180912E01882321F18150809363
:100C90002E01FF91EF91BF91AF919F918F917F9125
:100CA0006F915F914F913F912F910F900FBE0F90D9
:100CB0001F90189580910401882379F281508093C8
:100CC0000401CBCF80918D00882311F28150809355
:100CD0008D00BECFBADB8FE080932E01DACFA9DB87
:100CE00087E280930C01CECF1F920F920FB60F9226
:100CF00011242F933F934F935F936F937F938F9321
:100D00009F93AF93BF93EF93FF93C1DBFF91EF915D
:100D1000BF91AF919F918F917F916F915F914F9113
:100D20003F912F910F900FBE0F901F901895629FCB
:100D3000D001739FF001829FE00DF11D649FE00DD3
:100D4000F11D929FF00D839FF00D749FF00D659F34
:100D5000F00D9927729FB00DE11DF91F639FB00D33
:100D6000E11DF91FBD01CF0111240895F894FFCFB3
:100D70002C01F4012C012C01F401F401F4012C01EB
:0E0D8000C800C800C8001E1EFA000810271484
:00000001FF
