:1000000014C02EC02DC02CC02BC021C729C028C0B1
:1000100072C626C025C024C023C022C0DEC520C0B1
:100020001FC01EC01DC01CC01BC011241FBECFE5B9
:10003000D2E0DEBFCDBF10E0A0E6B0E0E2EFFFE02F
:1000400002C005900D92A438B107D9F711E0A4E8D9
:10005000B0E001C01D92AB32B107E1F7EDD4C7C7E4
:10006000CFCFB09B03C088E090E002C089E090E071
:10007000B19B8260B49B8460879901C0877F9A9B03
:1000800080619B9B80629D9B80649E9B8068B59BEA
:100090009160B69B92602091860030918700821714
:1000A000930769F42091A500222321F02150209389
:1000B000A50008C09093DA008093D90003C025E022
:1000C0002093A50090938700809386000895282FA1
:1000D000392FC90127E28031920710F08FE097E2B3
:1000E00068EE73E04ED76093F50064E670E049D7A0
:1000F0006093F4006AE070E044D76093F30080936B
:10010000F2000895A895E199FECF07B600FCFDCF57
:100110008EBB1FBA6DBB8FB780938A00F894E29AAA
:10012000E19A8FBFE199FECF07B600FCFDCF08959D
:100130001FBA8EBBE09AE099FECF8DB3089580EC94
:1001400087B980B78B7180BF81E28093F80089E026
:100150008093990016B8379A329A319A359A339A21
:10016000369A08959C0180919F009091A00000977D
:1001700099F48091D9009091DA0092FF03C02F5F2B
:100180003F4F04C093FF02C0215030408AE090E00E
:100190009093A00080939F00822F932F08958CE26C
:1001A00091E0A8950197E9F78091F500805D8FB9FE
:1001B0008CE291E0A8950197E9F78091F400805DC9
:1001C0008FB98CE291E0A8950197E9F78091F3004F
:1001D000805D8FB98BE291E0A89501972FEF8F3F5B
:1001E0009207D1F78091F200805D8FB908952CE2DB
:1001F00031E0A89521503040E1F79FE19FB92CE212
:1002000031E0A89521503040E1F794E29FB92CE20B
:1002100031E0A89521503040E1F78FB98CE291E0B0
:10022000A8950197E9F71FB88BE291E0A89501978F
:100230002FEF8F3F9207D1F76FB98BE291E0A8952E
:1002400001972FEF8F3F9207D1F71FB80895AEE0C7
:10025000B1E0CD010A96FD0120E03191230FE817AE
:10026000F907D9F730910D01321779F4E9ECF0E094
:100270002D912193A817B907D9F784E68093E1005F
:1002800080911A018F7B80931A01089506B607FEAC
:1002900015C01CC0A895009749F001979093A40041
:1002A0008093A30006B607FEF5CF10C088E893E15F
:1002B0009093A4008093A30080E00895A895809176
:1002C000A3009091A400009741F7F0CF88E893E154
:1002D0009093A4008093A30081E0089581B1887F6A
:1002E000803621F48AE080938B0039C081B1887F09
:1002F000803881F480918B0093B1EDE0F1E0E80F5C
:10030000F11D9083882321F0815080938B0027C0BA
:100310009EDF25C081B1887F883A49F48AE08093C6
:10032000A6001092FA008091F00083B918C081B144
:10033000887F883BA1F48091A600882351F08150EA
:100340008093A600E6EEF0E0E80FF11D808183B90E
:1003500006C08091E60083B981E08093FA0086B7F9
:10036000806886BF089586EE90E01092E600FC015A
:1003700031960B96A6EEB0E031912C91230F2C9381
:10038000E817F907C9F708958AE08093ED00809394
:10039000EE008093EF008093F00080911A0180932B
:1003A000E70080912701909128018639910548F452
:1003B0009091D7008091D8009093E8008093E90055
:1003C0001EC08091290190912A01009729F4109272
:1003D000E8001092E90013C08091D7009091D800F6
:1003E00025E08837920728F48093E8009093E9008D
:1003F00006C08EE48093E80085E08093E900809158
:1004000085008093EA0080918C008093EB008091BE
:10041000D9008093EC0008958091D90080FF06C038
:1004200090919E00916090939E0005C090919E00D7
:100430009E7F90939E0081FF06C090919E009260E7
:1004400090939E0005C090919E009D7F90939E008A
:1004500082FF0EC08091D7009091D80021E08139B1
:10046000920730F080919E00846080939E0005C0CA
:1004700080919E008B7F80939E008091D700909109
:10048000D80037E08930930730F020919E00286033
:1004900020939E0005C020919E00277F20939E0000
:1004A00020919E002F7E20939E0031E0813993079A
:1004B00030F0919904C0206220939E0003C02F7DEC
:1004C00020939E008159914023E0873E920750F48B
:1004D00080918C0081FF06C080919E00806880938F
:1004E0009E00089580919E008F7780939E000895CE
:1004F0008091D7009091D80021E08139920730F0A7
:100500002091DF0020622093DF0005C02091DF00F2
:100510002F7D2093DF0020918C0020FF06C080916A
:100520008C00877F80938C001CC020912301309128
:1005300024012115310521F020918500263430F465
:1005400080918C00877F80938C000BC035E08937C9
:10055000930738F0293428F080918C0088608093CC
:100560008C0080918C0082FF06C08091DF0080614A
:100570008093DF0005C08091DF008F7E8093DF00D5
:1005800080918C0080FF26C020918C002D7F2093CD
:100590008C008091D7009091D80041E08039940779
:1005A00098F43091DF0038603093DF0080912101B2
:1005B00090912201009709F0B3C02E7F20938C0008
:1005C000377F3093DF0008958091DF00877F80932D
:1005D000DF0008958091DF00877F8093DF008091A6
:1005E000D90083FD02C02CEB01C02FEB30911A0122
:1005F000822F832391F040918C004D7F40938C009B
:100600008091D7009091D80051E08139950728F06A
:100610003C7019F0416040938C0080918C0081FF08
:1006200022C08091D7009091D80035E08937930798
:10063000A0F03091DF0034603093DF0080911F0123
:1006400090912001009769F580918C008D7F8093B7
:100650008C003B7F3093DF0024C08091DF008B7FD4
:100660008093DF001EC08091DF008B7F8093DF00CE
:100670008091D90084FF10C030918C00337F30937B
:100680008C008091D7009091D80041E08039940788
:1006900018F4326030938C008091DF00877F809364
:1006A000DF008091D90085FF11C020918C002D7F43
:1006B00020938C008091D7009091D80051E081392F
:1006C0009507C0F0246020938C0014C080911A011B
:1006D000282381F020918C002D7F20938C00809125
:1006E000D7009091D80031E08139930718F0246049
:1006F00020938C0080918C0082FF12C08091D700E3
:100700009091D80041E08139940750F080918C009D
:1007100083FD06C080918C0081608B7F80938C006C
:10072000089580918C0081FF5EC080911D019091A1
:100730001E01009729F48091DF0081608093DF0023
:100740008091DF0080FF5CC080911B0190911C01B3
:100750000097B1F08091D7009091D80021E08039C6
:10076000920708F04DC092988091DF008D7F8093B2
:10077000DF0081E391E090931E0180931D010895B5
:100780008091DF008E7F8093DF00929A8091A70096
:10079000882359F480911A01806880931A0180910E
:1007A0008C008D7F80938C00089581508093A700EA
:1007B0002091DF0022602093DF0080911D01909145
:1007C0001E01009759F42D7F21602093DF0088E9F6
:1007D00090E090931C0180931B01089510921C01DE
:1007E00010921B01089582E08093A7008091DF00A2
:1007F00082608093DF0010921E0110921D01929A78
:10080000089580919600882329F41092D8001092C0
:10081000D7000895E8EAF0E0BF01605E7F4F80E016
:1008200090E0DC012191319140E050E0820F931F74
:10083000A41FB51FA895E617F707A1F78093E2005C
:100840009093E300A093E400B093E5002091CC00E6
:1008500030E040E050E0880F991FAA1FBB1F880FAF
:10086000991FAA1FBB1FBC01CD01660F771F881FF0
:10087000991F9BD360EF7EE78EE090E096D3309394
:10088000D8002093D700089580911A018F7B11F032
:10089000909808958091CA008F7D11F090980895E6
:1008A000909A089580918C0080FF02C091980895DD
:1008B000919A08958091D7009091D80021E08139D4
:1008C000920770F08091DF0080648F778093DF0063
:1008D0008091270190912801009779F493980895C9
:1008E0008091DF0080688F7B8093DF0080912901F9
:1008F00090912A01009709F4939A089510921A0191
:1009000010929E0084E690E09093FC008093FB00A0
:100910009093FE008093FD002AEF30E030930001B9
:100920002093FF002CE330E030930201209301017B
:100930002CE231E0309304012093030128EA32E0F5
:1009400030930601209305019093080180930701DD
:1009500082EC91E090930A018093090108957091CF
:100960001A01EBEFF0E080E090E041E050E02191EF
:1009700031912115310541F49A01082E02C0220F50
:10098000331F0A94E2F7722B01968830910579F7AC
:1009900070931A01089560910B0170910C01809180
:1009A000970090919800680F791F7093980060935A
:1009B000970080919300815080939300882389F55C
:1009C000672F772780E090E02FE320939300109229
:1009D0009800109297002091CD0030E040E050E068
:1009E000B1D2689414F89695879577956795169483
:1009F000D1F76A3171058105910528F06A5170407F
:100A00008040904003C060E070E0CB016E3771051C
:100A10008105910520F06DE770E080E090E0609343
:100A200085000895803C08F080545D9903C0A89526
:100A30005D9BFDCF8CB908959F92AF92BF92CF92EC
:100A4000DF92EF92FF920F931F93CF93DF931ABA27
:100A50008FEF8BBB17BA88BB90E994BB85BB9FE037
:100A600091BB82BB8FE780B96ADB80B7877F80BF8D
:100A700018B8429A89B7806289BF82EC8EBD89B767
:100A8000846089BF84E082B984E486BFEADA87ECB7
:100A900090E0A89501972FEF8F3F9207D1F78FEF46
:100AA0009FEF9093DC008093DB00DBDA81E08093A2
:100AB000840078948091DF00807C8093DF001EDFCB
:100AC0008AE090E09093A00080939F00E9ECF0E032
:100AD000CF010A961192E817F907E1F781E08093B8
:100AE000D4008FE080939D0010928C0084E6809368
:100AF000E10085E08093A5000F2EF8EFDF2EF02DAA
:100B00000FEF1FEF0F2EFFE7CF2EF02DBB246894C1
:100B1000B2F80F2EF4E4AF2EF02D0F2EF4E69F2E38
:100B2000F02D0F2EF7ECEF2EFF24F02DC9ECD0E0C6
:100B30008091E0008F5F8093E000A895809119017B
:100B4000882319F028DF109219018091FA00882378
:100B500011F01ADC08DC06B607FCC0DB8091E1006E
:100B6000882309F510B812B816BED1B881E390E019
:100B7000A89501972FEF8F3F9207D1F71093DC00D4
:100B80000093DB00C0B8B2B8A6BE9092E10069DA6B
:100B9000C701A89501972FEF8F3F9207D1F71093C8
:100BA000DC000093DB005DDA2CDE888182FDA6DEAE
:100BB00081DE888181FD07C02FDC9ADCD0DEB1DDCB
:100BC00071DE62DEB5CF82B3876082BB8091DF00C9
:100BD000807C8093DF0092DEABCF1F920F920FB626
:100BE0000F9211242F933F934F935F936F938F93A3
:100BF0009F93AF93BF9389B7806289BF84B195B14A
:100C000091FF0AC02EEF35E0A901481B590B509304
:100C10008E0040938D0009C020E032E0A901481BFE
:100C2000590B50938E0040938D006091F800613213
:100C300020F010928E0010928D00662309F18091B1
:100C40008D0090918E00A0E0B0E020918F00309157
:100C500090004091910050919200820F931FA41F29
:100C6000B51F80938F0090939000A0939100B09354
:100C7000920061506093F8003798379A369A2DC0E9
:100C800081E0809319013798379A80918F00909175
:100C90009000A0919100B0919200689414F8B695DC
:100CA000A795979587951694D1F790930C0180930B
:100CB0000B0110928F0010929000109291001092F0
:100CC0009200369A87B1807E87B997B1809199005A
:100CD000892B87B983E28093F800BF91AF919F91F0
:100CE0008F916F915F914F913F912F910F900FBE18
:100CF0000F901F9018951F920F920FB60F9211240C
:100D0000CF92DF92EF92FF920F931F932F933F9317
:100D10004F935F936F937F938F939F93AF93BF9303
:100D2000CF93DF93EF93FF9380919600882321F078
:100D300081508093960004C01092D8001092D70082
:100D40008091E100882321F081508093E10005C06B
:100D500080911A01806480931A0180919E00C82EB0
:100D6000DD240091DF0010E0EBE1F1E0A2E6B0E06D
:100D700020E030E080E090E06BEF70E00F2EF3E7D2
:100D8000EF2EF0E0FF2EF02D01C09C01A601082EF1
:100D900002C0559547950A94E2F740FF10C0AC0198
:100DA000440F551F460F571FEA01488159814115CD
:100DB000510591F041505040598348830DC0880F30
:100DC000991FAB01480F591F8E0D9F1DEC018881A3
:100DD0009981EA0199838883C801022E02C0959502
:100DE00087950A94E2F780FF08C08081918100977F
:100DF00049F001979183808305C08D919C91119753
:100E000091838083C90101963296129688309105AC
:100E100008F4BBCF90939C0080939B00FF91EF91CF
:100E2000DF91CF91BF91AF919F918F917F916F9102
:100E30005F914F913F912F911F910F91FF90EF90F4
:100E4000DF90CF900F900FBE0F901F9018951F92BC
:100E50000F920FB60F9211242F933F934F935F93EE
:100E60006F937F938F939F93EF93FF9389B78F7DBA
:100E700089BF26B537B58091A1009091A2002817AF
:100E8000390780F020919600213061F4E0919D00B7
:100E9000F0E0EE0FFF1FE855FF4F8FEF9FEF9183BC
:100EA000808333C020919600222361F4E0919D005D
:100EB000F0E0EE0FFF1FE855FF4F8FEF9FEF91839C
:100EC000808323C020919D0030E046B557B5BA011C
:100ED000681B790BCB01F901EE0FFF1FE855FF4F9F
:100EE0007183608371E08C32970748F4F901EE0F4B
:100EF000FF1FE855FF4F8FEF9FEF9183808386B5EB
:100F000097B59093A2008093A10080919D008823C3
:100F100021F0815080939D0003C08FE080939D005D
:100F200082E080939600FF91EF919F918F917F9146
:100F30006F915F914F913F912F910F900FBE0F9046
:100F40001F901895629FD001739FF001829FE00D62
:100F5000F11D649FE00DF11D929FF00D839FF00D38
:100F6000749FF00D659FF00D9927729FB00DE11DE4
:100F7000F91F639FB00DE11DF91FBD01CF011124C1
:100F80000895AA1BBB1B51E107C0AA1FBB1FA617D0
:100F9000B70710F0A61BB70B881F991F5A95A9F722
:100FA00080959095BC01CD010895A1E21A2EAA1B4F
:100FB000BB1BFD010DC0AA1FBB1FEE1FFF1FA21709
:100FC000B307E407F50720F0A21BB30BE40BF50B06
:100FD000661F771F881F991F1A9469F7609570958F
:100FE000809590959B01AC01BD01CF010895F894C7
:020FF000FFCF31
:100FF2008813980031013D00CB017C152D01DC00E6
:101002003D006464006400FA003C002C01A8026404
:0410120000C2010017
:00000001FF
