:100000001CC036C035C034C033C032C031C030C06F
:100010008FC52EC02DC044C62BC02AC029C028C001
:1000200027C026C025C024C023C03EC347C349C340
:100030004BC354C356C358C35AC311241FBECFE584
:10004000D2E0DEBFCDBF10E0A0E6B0E0ECE1FDE025
:1000500002C005900D92AE38B107D9F711E0AEE8B5
:10006000B0E001C01D92AA31B107E1F789D454C6AE
:10007000C7CFE6E3F0E0808190E09695879596956E
:10008000879596958795809590959C012170307005
:10009000808184FF2260989B2460999B28609A9BB2
:1000A00020619B9B31609C9B20649D9B20689E9B54
:1000B000206280918E0090918F002817390769F493
:1000C00080919B00882321F0815080939B0008C081
:1000D0003093BF002093BE0003C085E080939B0057
:1000E00030938F0020938E000895EF92FF920F932C
:1000F0001F93FC0160E177E2FBD5262F372F0F2EEF
:10010000F1EDEF2EF0E0FF2EF02DD7016D938D0174
:1001100080E197E2AC01249FC001259F900D349FA0
:10012000900D1124E81BF90BCF0168EE73E0E0D5C8
:10013000862F972FD8016C9328EE33E0AC01429FB5
:10014000C001439F900D529F900D1124E81BF90BA5
:10015000CF0164E670E0CCD5862F972FD701129699
:100160006C9324E630E0AC01429FC001439F900DA8
:10017000529F900D1124E81BF90BCF016AE070E04B
:10018000B7D5D70113966C931397862F972F9C01A1
:10019000220F331F880F991F880F991F880F991FEF
:1001A000280F391FE21BF30B1496EC931F910F914C
:1001B000FF90EF900895982FA895E3EAF0E08081F2
:1001C0008F5F8083ECE3F0E0808181FDFDCF9EBBFB
:1001D0001FBA6DBBF894ECE3F0E08081846080830B
:1001E000808182608083808181FDFDCF08950F939F
:1001F0001F93182F072FDFDF812F8F5F602FDBDF2B
:100200001F910F910895A8958EBB1FBAF894ECE347
:10021000F0E0808181608083808180FDFDCF7894D3
:100220008DB30895EF92FF921F93182F8F5FEBDF2E
:10023000F82EEE24812FE7DF90E0E82AF92A8E2DB0
:100240009F2D1F91FF90EF9008958091D900EFECC2
:10025000F0E081938091BE00808308959091BE006C
:100260002091BF0096FF17C08091C10086FD13C08A
:100270001092AA001092A9008091D900873048F40A
:100280008F5F8093D900823031F483E08093D9006E
:1002900002C01092D9009093C1002093C20008952B
:1002A000E8E3F0E08081826080838091D800882339
:1002B00021F081508093D80003C086E08093D8005D
:1002C0008091D800482F50E0FA01E252FF4F808120
:1002D000282F30E090E0E8E3F0E080818B7F80839E
:1002E00020FF03C080818460808380818E7F808333
:1002F00080818E7F808380818E7F808380818160FA
:1003000080839F5F983019F036952795E6CF81E07E
:1003100090E0FC0102C0EE0FFF1F4A95E2F790E06B
:10032000A8E3B0E08C9184608C93E0FF03C08C91D3
:100330008B7F8C938C918E7F8C938C918E7F8C9302
:100340008C918E7F8C938C9181608C939F5F983081
:1003500019F0F695E795E6CFE8E3F0E080818D7F30
:10036000808308958CB1EBE2F0E08081827280831B
:10037000A2E3B0E08C9184608C93808185FD04C001
:10038000A895808185FFFCCFEAE2F0E08081816062
:1003900080838AE090E090939900809398009091F8
:1003A000D0009093A00082E080939E009CB90895B5
:1003B000ABE2B0E082E08C938CE18AB9E0E4F0E05B
:1003C00086E0808310828FEC89B9E2E3F0E08081DF
:1003D000846080838C9185FD06C0EBE2F0E0A895F7
:1003E000808185FFFCCFEAE2F0E080818068808335
:1003F00087E38CB908958BB188230CF09CC08BB136
:100400009AB190B52CB190919E00E3ECF0E0E90F29
:10041000F11D20838C7111F0A5DF0895992361F1FE
:10042000915090939E005D9906C0EBE2F0E0A89594
:10043000808185FFFCCFEAE2F0E080818E7F8083BF
:10044000EBE2F0E080818E7F8083992341F48091FC
:10045000A0008CB980916700809391000895EEEC24
:10046000F0E0E90FF11D80818CB980819091A000AE
:10047000890F8093A0000895E2E3F0E080818B7FF4
:10048000808330919100432F50E0FA01E95FFE4FE5
:100490002083332309F44FC080916700381739F463
:1004A0001092C000832F81508093910008953130C5
:1004B00069F58091C000281721F58091C6009091C0
:1004C000C700892B31F084EF91E09093C7008093AF
:1004D000C600809167008230A0F042E0A7E0B1E062
:1004E0006DEA70E0842F90E0FD01E80FF91F208194
:1004F000FB01E80FF91F20834F5F8091670084178D
:1005000088F7832F81508093910008958091670030
:1005100090E001978417950774F08091C000820FD6
:100520008093C000832F81508093910080919A0026
:100530008F5F80939A00089582E074DE2091DC0042
:100540003091DD008217930731F06091DC007091EB
:10055000DD0082E04CDE08959091B7009E3120F0DE
:100560009E511092AC0006C08EE1891B982F81E04D
:100570008093AC00E5EEF0E09083118286EB90E092
:10058000DC012C91DF0112962C9311961C92DC0158
:1005900011972C913496208311820496FC0180815E
:1005A000882319F01092940004C081E08093940095
:1005B0008FE04BEE50E0DA018C9311961C92A2EB87
:1005C000B0E06C91FD0131972081962F80E030E002
:1005D000822B932BFA0193838283FD0132966081F3
:1005E000FD0131962081962F80E030E0822B932B05
:1005F000FA0195838483FD013796608116962C91CC
:10060000962F80E030E0822B932BDA0117969C9393
:100610008E9316978091DC009091DD0096958795DA
:10062000969587959695879519969C938E9318978E
:1006300008950F931F93DF93CF9300D0CDB7DEB70C
:10064000982F282F30E0F901EB57FF4F80818093DE
:10065000DE00963030F4F901E158FF4F808180933D
:10066000DF00892F8150823010F41092E00099232E
:1006700041F48091AC00882321F080E48093E00075
:1006800009C0933039F480919400882319F089E3EC
:100690008093E0009091D900E92FF0E0E830F10577
:1006A00048F5EB5EFF4F09948091AC00882319F068
:1006B00083E08A8321C082E08A831EC083E08A832C
:1006C0001BC083E08A8318C080919400882319F0AE
:1006D00083E08A8311C082E08A830EC082E08A832D
:1006E0000BC082E08A8308C081E08A8305C081E074
:1006F0008A8302C082E08A83E92FF0E0EE0FFF1FB9
:10070000EB51FF4F80819181F0DC8A81898389815F
:10071000853008F045C0B091D900AB2FA15041ED14
:1007200050E06AE670E02EED30E004E710E08981E9
:10073000833011F5A23010F0B43079F499818981B9
:10074000FA01E80FF11D8081F801E80FF11D8081A9
:10075000F901E90FF11D80831DC099818981FA019A
:10076000E80FF11D8081FB01E80FF11D8081F90187
:10077000E90FF11D80830EC099818981FA01E80F8C
:10078000F11D8081FB01E80FF11D8081F901E90F66
:10079000F11D808389818F5F89838981853038F25B
:1007A0000F900F90CF91DF911F910F910895EBEB78
:1007B000F0E09191E0818091950080FF03C0392F96
:1007C000306402C0392F3F7B2E2F2F7B4091BE001B
:1007D0005091BF0044230CF420648091C800909194
:1007E000C90091FF12C08091C8009091C90080702B
:1007F0009970892B51F480919C0090919D008B3FC2
:10080000910510F0316001C03E7F8091C800909149
:10081000C900882354F480919C0090919D008B3FE7
:10082000910510F0216001C02E7F8091C800909149
:10083000C90084FF0AC080919C0090919D008B3F6D
:10084000910510F0226001C02D7F8091C800909129
:10085000C90085FF0AC080919C0090919D008B3F4C
:10086000910510F0206101C02F7ECA018074917043
:100870008054914031F48FEFE3EEF0E08193808378
:100880000895E3EEF0E03193208308958091BE0057
:1008900084FF06C088EE93E09093C7008093C60063
:1008A0000895E0EBF0E0808190E09093C9008093A0
:1008B000C8008091C8009091C900982F8827909314
:1008C000C9008093C800319780812091C800309181
:1008D000C90090E0822B932B9093C9008093C800AD
:1008E0008091C6009091C700892B31F480919500CA
:1008F00081608093950005C0809195008E7F8093E4
:1009000095008091BE009091BF0090FF0CC0809137
:10091000C8009091C9009093A2008093A10080919B
:1009200095008093D7008091C8009091C900892BD1
:1009300021F41092A2001092A100809195008823CA
:1009400011F41092D7002091C8003091C900809115
:10095000A1009091A2008217930730F0909195002A
:100960008091D700891730F4E5E3F0E0808180685A
:1009700080830895E5E3F0E080818F778083089598
:100980002F923F924F925F926F927F928F929F929F
:10099000AF92BF92CF92DF92EF92FF920F931F938D
:1009A000CF93DF931ABA9FEF9BBB87E087BB98BBBF
:1009B00080E884BB8FE785BB8EE081BB92BB81E082
:1009C0008EBDE9E5F0E0808184608083F1DC88E41D
:1009D0009AE5A3E0B0E08093CA009093CB00A09387
:1009E000CC00B093CD0082E01DDC9093DD008093BD
:1009F000DC003FDB8091BE009091BF009093C2006D
:100A00008093C1007894E7EBF0E08AE08083DF0117
:100A1000119789E08C93329788E0808384EF91E08E
:100A200090939D0080939C009093C7008093C60094
:100A30001092D6009093AA008093A900CEEDD0E04A
:100A40000FEF4E010894811C911CAA24BB246894CA
:100A5000A1F8AC0EBD1E0F2EF3E0CF2EDD24F02D3D
:100A6000CC0EDD1EEE24FF246894E2F8EC0EFD1E91
:100A700010E40F2EF7E72F2EF02D0F2EF7E33F2E69
:100A8000F02D0F2EF5E04F2E5524F02D4C0E5D1E4F
:100A90000F2EF6E06F2E7724F02D6C0E7D1EF6DE05
:100AA0004BDDDCDBE6DAD1DB57DD8091C6009091CF
:100AB000C700892B79F418832DE7F4012083F50111
:100AC0002082F6013082F7011083F2011083F301D6
:100AD00010822BC08091C8009091C90093FF02C082
:100AE0001092D9008091BE009091BF0080749170E7
:100AF0008054914051F40883F4010083F501008390
:100B0000F6010083F70100830FC08091A900909146
:100B1000AA00892B49F48091D9008BDD84EF91E004
:100B20009093AA008093A90042DEBBDEA895B7CFC0
:100B30001F920F920FB60F9211242F933F934F9352
:100B40005F936F937F938F939F93AF93BF93EF9335
:100B5000FF938091A9009091AA00892B49F0809180
:100B6000A9009091AA0001979093AA008093A900F0
:100B70008091C6009091C700892B49F08091C600F2
:100B80009091C70001979093C7008093C600809111
:100B90009C0090919D00892B51F080919C00909138
:100BA0009D00019790939D0080939C0006C084EF68
:100BB00091E090939D0080939C0080E090E89DBD23
:100BC0008CBD8091CA009091CB00A091CC00B091D7
:100BD000CD000097A105B105A1F08091CA009091C8
:100BE000CB00A091CC00B091CD000197A109B10933
:100BF0008093CA009093CB00A093CC00B093CD001B
:100C000021C088E49AE5A3E0B0E08093CA00909305
:100C1000CB00A093CC00B093CD008091DC009091EC
:100C2000DD008050904250F48091DC009091DD0016
:100C300001969093DD008093DC0004C01092DD00EB
:100C40001092DC002DDB8091980090919900892B07
:100C500051F080919800909199000197909399009C
:100C6000809398000CC0E2E3F0E08081877F80836E
:100C700079DB8AE090E09093990080939800FF914F
:100C8000EF91BF91AF919F918F917F916F915F9104
:100C90004F913F912F910F900FBE0F901F9018957D
:100CA0001F920F920FB60F9211242F933F934F93E1
:100CB0005F936F937F938F939F93AF93BF93EF93C4
:100CC000FF9399DBE2E3F0E0808188608083FF910D
:100CD000EF91BF91AF919F918F917F916F915F91B4
:100CE0004F913F912F910F900FBE0F901F9018952D
:100CF000AA1BBB1B51E107C0AA1FBB1FA617B70742
:100D000010F0A61BB70B881F991F5A95A9F780955D
:0C0D10009095BC01CD010895F894FFCF30
:100D1C00F401485A030002100A003F065B4F666D4F
:100D2C007D077F6FBF86DBCFE6EDFD87FFEF0863A6
:0E0D3C0073736300003F3F71393E30717600E3
:00000001FF
