:100000001CC036C035C034C033C032C031C030C06F
:100010007EC42EC02DC028C52BC02AC029C028C030
:1000200027C026C025C024C023C0A3C2A9C2A8C21D
:10003000A3C2AAC2A9C2A6C2A5C211241FBECFE5EF
:10004000D2E0DEBFCDBF10E0A0E6B0E0ECEDFAE01C
:1000500002C005900D92AE38B107D9F711E0AEE8B5
:10006000B0E001C01D92AA31B107E1F7A8D334C5B1
:10007000C7CF81E090E0B39B02C080E090E0B49BEA
:100080008260989B8460999B88609A9B80619B9B0F
:1000900091609C9B80649D9B80689E9B8062209168
:1000A0008E0030918F008217930759F420919B00A6
:1000B000222311F0215006C09093BF008093BE0010
:1000C00003C025E020939B0090938F0080938E00C7
:1000D00008959C01E0E1F7E2BF01EAD46093D1000A
:1000E0006E9FC0016F9F900D7E9F900D1124281B65
:1000F000390BE8EEF3E0C901BF01DAD46093D20016
:100100006E9FC0016F9F900D7E9F900D1124281B44
:10011000390BE4E6F0E0C901BF01CAD46093D30013
:100120006E9FC0016F9F900D7E9F900D1124281B24
:10013000390BC9016AE070E0BBD46093D400CB01F5
:10014000AB01440F551F63E0880F991F6A95E1F7D3
:10015000480F591F241B350B2093D5000895A895EF
:100160009091A3009F5F9093A300E199FECF8EBB77
:100170001FBA6DBBF894E29AE19AE199FECF089517
:100180001F93DF93CF930F92CDB7DEB7182F7983EC
:10019000E6DF812F8F5F7981672FE1DF0F90CF91AD
:1001A000DF911F910895A8958EBB1FBAF894E09A2D
:1001B000E099FECF78948DB30895EF92FF921F934C
:1001C000CF93DF93182F8F5FEEDF982F80E0EC0145
:1001D000812FE9DF282F30E02C2B3D2BC901DF9147
:1001E000CF911F91FF90EF9008958091D900809357
:1001F000CF008091BE008093D00008958091BE0012
:100200002091BF0086FF17C09091C10096FD13C0DA
:100210001092AA001092A9009091D900973048F44A
:100220009F5F9093D900923031F493E09093D9007E
:1002300002C01092D9008093C1002093C20008959B
:10024000C19A8091D800882311F0815001C086E0C6
:100250008093D800E091D800F0E0E252FF4F808117
:1002600090E028E0C29880FDC29AC098C098C098DB
:10027000C09A215019F096958795F4CF81E090E0CF
:100280000090D80002C0880F991F0A94E2F728E076
:10029000C29A80FDC298C098C098C098C09A215058
:1002A00019F096958795F4CFC19808958CB18BB1CC
:1002B00082728BB9929A01C0A8955D9BFDCF509A2E
:1002C0008091D0008093A00092E090939E008CB922
:1002D000089582E08BB98CE18AB986E080BD10BCBC
:1002E00087E689B9929A01C0A8955D9BFDCF579A80
:1002F00087E38CB908955F9B81C09BB18AB180B5BB
:100300005CB180919E00E82FF0E0ED53FF4F5083E9
:100310009C7111F0CBDF0895882309F181508093FF
:100320009E0001C0A8955D9BFDCF50985898E09124
:100330009E00EE2341F48091A0008CB9809167006B
:10034000809391000895F0E0E253FF4F80818CB9D3
:100350009091A0008081890F8093A00008959298C9
:1003600040919100842F90E0FC01E95FFE4F5083A3
:10037000442309F443C020916700421731F41092DE
:10038000C0004150409391000895413021F5809183
:10039000C0005817E9F48091C6009091C7000097FB
:1003A00031F084EF91E09093C7008093C60022E083
:1003B0000BC0822F90E0FC01E95FFE4F3081835536
:1003C0009F4FFC0130832F5F80916700821788F771
:1003D0001092910008952091670030E082179307F2
:1003E0006CF48091C000850F8093C0004150409311
:1003F000910080919A008F5F80939A00089582E027
:10040000DCDE2091DC003091DD008217930731F0B3
:100410006091DC007091DD0082E0B2DE0895909181
:10042000B7009E3128F0892F8E511092AC0005C084
:100430008EE1891B91E09093AC008093E5001092CF
:10044000E6008091B600E7EEF0E08093E7001182CD
:100450008091B5008093E90013828091BA008823CF
:1004600019F01092940004C081E0809394008FE012
:100470008093EB001092EC009091B2008091B1005B
:10048000392F20E090E0822B932B9093EE00809305
:10049000ED009091B4008091B300392F20E090E0FE
:1004A000822B932B9093F0008093EF009091B900F2
:1004B0008091B800392F20E090E0822B932B90930D
:1004C000F2008093F1008091DC009091DD00969520
:1004D00087959093F4008093F3000895DF93CF9372
:1004E000CDB7DEB760970FB6F894DEBF0FBECDBFB5
:1004F000DE011996E5E8F0E098E001900D92915048
:10050000E1F7DE011396EFE7F0E096E001900D923F
:100510009150E1F7282F30E0FE01E20FF31F9185A3
:100520009093DE00863018F493819093DF00982F2B
:100530009150923018F41092E00011C0882331F4E9
:100540008091AC00882359F080E407C0833039F4EF
:1005500080919400882319F089E38093E0008091D2
:10056000D900E82FF0E0E830F10570F4EB5EFF4FC2
:1005700009949091AC0002C090919400992321F0CD
:1005800093E003C091E001C092E09A83E82FF0E08D
:10059000EE0FFF1FEB51FF4F808191819ADD8A8121
:1005A00089839091D900292F215023C089818330DC
:1005B00079F4223010F0943059F4E981F0E0A98107
:1005C000B0E0AF52BF4FAC91B0E0AC58BF4F0AC0E3
:1005D000E981F0E0A981B0E0AF52BF4FAC91B0E04B
:1005E000A659BF4F8C91E252FF4F808389818F5F64
:1005F000898389818530D0F260960FB6F894DEBF8A
:100600000FBECDBFCF91DF9108955091BB004091B7
:10061000BC008091950080FF02C0506401C05F7BE8
:100620004F7B2091BE003091BF0027FD4064809138
:10063000C8009091C90091FF12C08091C8009091AC
:10064000C90080709970009751F480919C0090913E
:100650009D008B3F910510F0516001C05E7F80913D
:10066000C8009091C90087FF0AC080919C009091BA
:100670009D008B3F910510F0416001C04E7F80913D
:10068000C8009091C90084FF0AC080919C0090919D
:100690009D008B3F910510F0426001C04D7F80911D
:1006A000C8009091C90085FF0AC080919C0090917C
:1006B0009D008B3F910510F0406101C04F7E20747A
:1006C000317081E02034380731F48FEF8093E300FC
:1006D0008093E40008955093E3004093E40008956C
:1006E0008091BE0084FF06C088EE93E09093C7001F
:1006F0008093C60008958091B00090E09093C90067
:100700008093C8008091C8009091C900982F8827D5
:100710009093C9008093C8002091C8003091C9000F
:100720008091AF0090E0822B932B9093C90080932F
:10073000C8008091C6009091C700009721F4809175
:100740009500816003C0809195008E7F8093950015
:100750008091BE009091BF0090FF0CC08091C800B6
:100760009091C9009093A2008093A1008091950080
:100770008093D7008091C8009091C900009721F420
:100780001092A2001092A10080919500882311F48C
:100790001092D7002091C8003091C9008091A1002B
:1007A0009091A2008217930730F09091950080916C
:1007B000D700891710F4AF9A0895AF980895DF9283
:1007C000EF92FF920F931F93CF93DF931ABA8FEF9D
:1007D0008BBB97E097BB88BB90E894BB9FE795BB2A
:1007E0009EE091BB82BB81E08EBD80E090E89DBD24
:1007F0008CBD89B7846089BF6CDD80E299E6ADE08D
:10080000B0E08093CA009093CB00A093CC00B0934B
:10081000CD0082E0D2DC9093DD008093DC0029DC07
:100820008091BE009091BF009093C2008093C10060
:1008300078948AE08093B70089E08093B60088E0DE
:100840008093B50084EF91E090939D0080939C008D
:1008500028EE33E03093C7002093C6001092D600F4
:100860009093AA008093A900C4EFD1E01FEF00E4A9
:100870005DE7D52E47E7E42E37E3F32E31DFBFDD0A
:10088000BDDCF7DBB2DCCBDD8091C6009091C70008
:10089000009779F40093DE00D092DF00E092E00050
:1008A000F092E1000093E2000093E3001092E40074
:1008B0002BC08091C8009091C90093FF02C0109294
:1008C000D9008091BE009091BF008074917021E0AA
:1008D0008034920759F41093DE001093DF001093D8
:1008E000E0001093E1001093E2000DC08091A90098
:1008F0009091AA00009739F48091D900EFDDD09350
:10090000AA00C093A90081DEF6DEA895B7CF1F929A
:100910000F920FB60F9211242F933F934F935F9333
:100920006F937F938F939F93AF93BF93EF93FF93B7
:1009300080E090EC9DBD8CBD8091A9009091AA00B3
:10094000009749F08091A9009091AA000197909397
:10095000AA008093A9008091C6009091C7000097DB
:1009600049F08091C6009091C70001979093C7000D
:100970008093C60080919C0090919D00009731F07B
:1009800080919C0090919D00019702C084EF91E0BE
:1009900090939D0080939C008091CA009091CB0021
:1009A000A091CC00B091CD000097A105B105A1F0B8
:1009B0008091CA009091CB00A091CC00B091CD0065
:1009C0000197A109B1098093CA009093CB00A0932D
:1009D000CC00B093CD0022C080E299E6ADE0B0E05B
:1009E0008093CA009093CB00A093CC00B093CD002D
:1009F0008091DC009091DD0020E28030920750F47D
:100A00008091DC009091DD0001969093DD00809351
:100A1000DC0004C01092DD001092DC0011DC80913B
:100A2000980090919900009731F0809198009091F2
:100A30009900019704C0939839DC88E290E0909384
:100A4000990080939800FF91EF91BF91AF919F9192
:100A50008F917F916F915F914F913F912F910F9067
:100A60000FBE0F901F9018951F920F920FB60F9206
:100A700011242F933F934F935F936F937F938F93A3
:100A80009F93AF93BF93EF93FF9335DC939AFF91BE
:100A9000EF91BF91AF919F918F917F916F915F91F6
:100AA0004F913F912F910F900FBE0F901F9018956F
:100AB000AA1BBB1B51E107C0AA1FBB1FA617B70784
:100AC00010F0A61BB70B881F991F5A95A9F78095A0
:0C0AD0009095BC01CD010895F894FFCF73
:100ADC00F40120690D00021028003F065B4F666D83
:100AEC007D077F6FBF86DBCFE6EDFD87FFEF0863E9
:0E0AFC0073736300003F3F71393E3071760026
:00000001FF
