:1000000014C02EC02DC02CC02BC029CD29C028C0A3
:100010009DCD26C025C0E5CD23C022C005CE20C081
:100020001FC01EC01DC01CC01BC011241FBECFE5B9
:10003000D2E0DEBFCDBF11E0A0E6B0E0ECE6FDE12E
:1000400002C005900D92A033B107D9F722E0A0E3DA
:10005000B1E001C01D92A331B207E1F782DB84CE8B
:10006000CFCF86B380958E70B0998160B59B80614B
:10007000B69B8062B79B80649091310189130BC05D
:1000800090914C01992321F0915090934C0106C01E
:1000900080938A0103C095E090934C0180933101D5
:1000A000089582E08BB9589A8CE18AB986E080BDC8
:1000B00010BC87E689B9929884E180938F010895F6
:1000C000CF93DF9300D000D0CDB7DEB75F9BB1C038
:1000D0008BB18A838AB18B8380B58C838CB1898301
:1000E0008A818C7109F0A5C08B8181FF19C082E0E3
:1000F00080933301E0913301F0E08981E351FE4FB9
:10010000808380E180934F01898180938B011092DD
:10011000710180913301815080933301589889C0D7
:1001200080914F01803109F055C0E0913301F0E03A
:100130008981E351FE4F80838091330181113EC05C
:10014000998180918B01981318C084E180938F016D
:1001500081E08A838A81863080F4EA81F0E0AA8196
:10016000B0E0A351BE4F8C91EF57FE4F80838A8140
:100170008F5F8A838A81863080F380914F0181501E
:1001800080934F01929A5D9903C0A8955D9BFDCF26
:100190005098E0914F01F0E0EA56FE4F80818CB913
:1001A000E0914F01F0E0EA56FE4F808180937101AB
:1001B00080914F01815080934F013BC08981909184
:1001C0008B01890F80938B01809133018150809343
:1001D00033012FC080914F01882331F15D9903C015
:1001E000A8955D9BFDCF509880914F01813021F4FF
:1001F000809171018CB912C0E0914F01F0E0EA5694
:10020000FE4F80818CB9E0914F01F0E0EA56FE4F3D
:10021000808190917101890F8093710180914F01CC
:10022000815080934F0105C0589A929880E1809345
:100230004F010F900F900F900F90DF91CF91089585
:100240008BEC87B98FE38093A8011092430116B815
:10025000379A329A319A309A369A08951FBA8EBBDD
:10026000E09AE099FECF8DB308958091E40190E08B
:1002700040917601489F9001499F300D1124220F33
:10028000232F221F330B3195820F931F90937F01F1
:1002900080937E0108958091EB019091EC01209173
:1002A0008701222311F12150209387019C01002412
:1002B000220F331F001C220F331F001C232F302D51
:1002C0008091AA019091AB01A091AC01B091AD01D8
:1002D000820F931FA11DB11D8093AA019093AB01C2
:1002E000A093AC01B093AD017BC08091AA01909125
:1002F000AB01A091AC01B091AD01689413F8B69533
:10030000A795979587951694D1F78093AA01909316
:10031000AB01A093AC01B093AD01AC018FE0809331
:100320008701809130018C31B8F0282F30E02B51BB
:10033000310922953295307F3227207F3227ADEC6C
:10034000BCECF6DC9695879596958795969587955E
:100350009C01240F351F16C02BE130E0281B31090A
:1003600022953295307F3227207F3227ADECBCECCE
:10037000DFDC9695879596958795969587959A0152
:10038000281B390B2E31310528F1C9014E974BE955
:10039000489F9001499F300D112421563E4F3695BC
:1003A000279536952795ABE7B4E1C2DC9C013695DD
:1003B000279540917701429FC001439F900D1124E2
:1003C0000024880F991F001C880F991F001C892F7B
:1003D000902D02C080E090E090934E0180934D01FB
:1003E00080914D0190914E01853F914020F01092F7
:1003F0004E0110924D010895462FE82FF0E0EE0FC8
:10040000FF1FEB52FE4F218130E02B323105C0F04F
:10041000220F331F2D543109ABEABAEA89DC9C0163
:1004200036952795822FE42FF0E0EE58FE4F90810D
:10043000492F50E033274217530718F4891B0895BA
:1004400080E008958091DC0190E08E399105C0F440
:1004500023EA289FA001299F500D112424E634E6A9
:10046000241B350B3695279536952795ABE7B4E1D8
:100470005FDC9695879520917201820F911D15C0C2
:1004800043EA489F9001499F300D11242456344679
:100490003695279536952795ABE7B4E149DC9695D7
:1004A000879520917201820F911D8A5080933801A7
:1004B00008956091DF017091E00180E090E020916B
:1004C000DA0130E040E050E011DCA0917501B0E0CD
:1004D000A456BF4F39DCBB27A92F982F872F803117
:1004E0009105A105B10588F04097A109B1098D32A8
:1004F00021E09207A105B10520F08CE291E0A0E097
:10050000B0E08732910550F402C080E090E0FC0139
:10051000EC53FF4F80818093300108958797969523
:1005200087958732910538F4FC01E551FF4F8081B2
:100530008093300108958797969587958E31910520
:1005400038F4FC01EE5EFE4F808180933001089507
:10055000109230010895A895E199FECF07B600FCEE
:10056000FDCF8EBB1FBA6DBB8FB780933201F8945D
:10057000E29AE19A809132018FBFE199FECF07B6EE
:1005800000FCFDCF0895CF93DF93C0918201C63068
:1005900008F08CC080913501873309F087C08091C5
:1005A00083018F758430C1F58C2F8150833090F496
:1005B0008C2F90E0DC01AE58BE4F2C912F5F2C9316
:1005C000FC01E454FF4F3081321708F060C0FD0198
:1005D00030835DC0C53079F48091880190918901A4
:1005E0008639910528F08091830185FD03C003C001
:1005F000C7E001C0C6E08C2F90E0DC01AE58BE4FD2
:100600002C9121502C93FC01EC54FF4F3081231787
:10061000F0F5FD0130833BC0809183018F758830F8
:10062000B1F58C2F8150833088F48C2F90E0DC0161
:10063000AE58BE4F2C9121502C93FC01EC54FF4F2F
:100640003081231720F5FD01308321C0C53079F4B6
:1006500080918801909189018639910528F08091D7
:10066000830185FD03C003C0C7E001C0C6E08C2F35
:1006700090E0DC01AE58BE4F2C912F5F2C93FC0113
:10068000E454FF4F3081321710F4FD013083DC2F2A
:10069000DF5F8D2FE3DDEC2FF0E0EE58FE4F608141
:1006A000681711F08D2F57DF10923501DF91CF9130
:1006B0000895EF92FF920F931F93CF93DF930F2E26
:1006C000FCEBEF2EF0E0FF2EF02D02E711E0C0E092
:1006D000D0E08C2F8F5FC2DDF70191917F019817D9
:1006E00030F0FE01EC54FF4F9081891720F4FE0199
:1006F000E455FF4F8081F80181938F012196C83026
:10070000D10539F7DF91CF911F910F91FF90EF90B5
:1007100008950F931F9380914201811105C010929B
:100720008901109288012EC0E1E5F1E061E771E0F6
:1007300000E010E0980181919191080F191F211D8F
:10074000311DE617F707B9F7A9019801689413F866
:1007500056954795379527951694D1F72B3783EF04
:1007600038074105510528F010928901109288013F
:1007700009C060E474E083E490E0B8DA3093890162
:10078000209388011F910F91089580E090E0E1E0AF
:10079000F0E02091450130914601AF01082E02C0E2
:1007A000440F551F0A94E2F724233523232BB9F075
:1007B000DC01AA0FBB1FAB54BE4F2D913C91232BE4
:1007C00059F1DC01AA0FBB1FAB54BE4F2D913C91D8
:1007D00011972150310911963C932E931DC09C0115
:1007E000220F331FD901AB54BE4F4D915C91D901FB
:1007F000A058BF4F2D913C914217530768F4DC017C
:10080000AA0FBB1FAB54BE4F2D913C9111972F5F88
:100810003F4F11963C932E9301968031910509F03C
:10082000B8CF089580E090E0E1E0F0E020918C0105
:1008300030918D01AF01082E02C0440F551F0A945C
:10084000E2F724233523232BB9F0DC01AA0FBB1FC9
:10085000AD50BE4F2D913C91232BE1F0DC01AA0F4E
:10086000BB1FAD50BE4F2D913C91119721503109C6
:1008700011963C932E930EC09C01220F331FD90179
:10088000A05ABF4F4D915C91D901AD50BE4F11960A
:100890005C934E9301968031910541F6089580E076
:1008A00090E09C01220F331FF901E05AFF4F408175
:1008B0005181F901ED50FE4F518340830196803103
:1008C000910579F70895809138018B3050F480912B
:1008D00045019091460198609093460180934501AF
:1008E00014C08C3090F08091450190914601977F23
:1008F00090934601809345018091900190919101E0
:10090000977F90939101809390018091300185357C
:1009100030F4809190019091910194FF0AC08091F0
:100920004501909146019061909346018093450165
:1009300009C080914501909146019F7E90934601A8
:10094000809345012091790130E0220F331F80917F
:100950004D0190914E0182179307E0F0809145017F
:100960009091460190689093460180934501809153
:100970004501909146018F7D9093460180934501FA
:1009800080919001909191018F7D9093910180933E
:1009900090012BC02A5031098217930798F080915B
:1009A00045019091460180629093460180934501F4
:1009B00080914501909146019F77909346018093E5
:1009C000450113C080914501909146018F7D9F772D
:1009D00090934601809345018091900190919101FF
:1009E0008F7D9093910180939001809188019091E7
:1009F0008901853E2CE0920798F080914501909105
:100A000046018160909346018093450180914501A4
:100A1000909146018D7F90934601809345013AC0A5
:100A200020914501309146012E7F3093460120935D
:100A300045019C01215931402139394050F48091C0
:100A40004501909146018260909346018093450153
:100A500021C082329B40A8F480917E0190917F0159
:100A60008536910570F08091340180FD0AC0809137
:100A70004501909146018260909346018093450123
:100A800009C080914501909146018D7F9093460168
:100A90008093450180914501909146018F7B909311
:100AA00046018093450180918801909189018232AD
:100AB0003BE0930788F020917E0130917F012A3F2F
:100AC000310550F420914501309146012460309366
:100AD00046012093450109C020914501309146010E
:100AE0002B7F309346012093450182529B40833CEB
:100AF0009140E0F480917E0190917F018A5F91099D
:100B0000C39750F080914501909146018860909381
:100B100046018093450113C08091450190914601A3
:100B2000877F909346018093450109C080914501DC
:100B300090914601877F9093460180934501809173
:100B40008A0182FF13C08091450190914601916016
:100B50009093460180934501809145019091460113
:100B60009D7F909346018093450129C08091450166
:100B7000909146019E7F909346018093450180911C
:100B800038018C3850F08091450190914601926077
:100B9000909346018093450112C080914501909148
:100BA00046019D7F9093460180934501809190017D
:100BB000909191019D7F909391018093900120915C
:100BC0008A0123FF0AC080914501909146019460FB
:100BD00090934601809345011DC08091FD01909145
:100BE000FE01892B71F480917B01853050F4809156
:100BF0004501909146019460909346018093450190
:100C000009C080914501909146019B7F90934601D8
:100C1000809345018091880190918901813F9A409C
:100C200070F080914B01863050F480914501909195
:100C300046019062909346018093450109C08091DE
:100C40004501909146019F7D909346018093450117
:100C500020FF0AC0809145019091460190649093D5
:100C60004601809345010895809145019091460188
:100C70009F7B9093460180934501089580E090E02A
:100C800061E070E0FC01EE0FFF1FEB54FE4F20818E
:100C90003181232B89F42091900130919101AB0196
:100CA000082E02C0440F551F0A94E2F7242B352B5F
:100CB000309391012093900101968031910511F7B5
:100CC0008091830188232CF04FE95DE18FE99DE15C
:100CD00004C04FE95CE083E99CE0209190013091F1
:100CE000910128233923232B11F0C49801C0C49A01
:100CF000809190019091910184239523892B49F44F
:100D000080917E0190917F018A3F910510F0949827
:100D10000895949A089580E090E09C01220F331F7B
:100D2000F901E058FF4F40815181F901EB54FE4F2A
:100D300051834083109291011092900110924601CC
:100D40001092450101968031910539F708958091FF
:100D5000830188232CF04FE95CE02FEB3FEF04C0C8
:100D600043E95CE02FEB3FEA809188019091890193
:100D7000853C69E0960750F060918C0170918D017F
:100D8000606270938D0160938C0109C060918C0149
:100D900070918D016F7D70938D0160938C016091D6
:100DA000340160FF06C080913401877F8093340155
:100DB00024C06091FB017091FC01672B51F460919C
:100DC00038016E3730F480913401877F809334018D
:100DD00014C06091010270910202672B31F480917E
:100DE0003401877F8093340108C0813D974028F00B
:100DF000809134018860809334018091340182FFB6
:100E000013C080918C0190918D01806190938D0130
:100E100080938C0180918C0190918D0180689093DA
:100E20008D0180938C0109C080918C0190918D017E
:100E30008F7690938D0180938C018091340180FF97
:100E400034C020913401822F8F7E809334018091B1
:100E500088019091890186399105E8F480918C018F
:100E600090918D01886090938D0180938C01809189
:100E7000F9019091FA01892B09F00BC12E7E209384
:100E8000340180918C0190918D01877F90938D0129
:100E900080938C01FEC080918C0190918D01877FA1
:100EA00090938D0180938C01F4C080918C0190917E
:100EB0008D01877F90938D0180938C018091340107
:100EC00081FF25C08091880190918901813921E0BD
:100ED000920750F020918C0130918D012460309365
:100EE0008D0120938C0109C020918C0130918D01DE
:100EF0002B7F30938D0120938C0183329B4008F42B
:100F00007BC0809134018D738093340175C08091D2
:100F10008C0190918D018B7F90938D0180938C013A
:100F20008091830180FF37C0809190019091910161
:100F300090FD31C060913401637F609334018091F2
:100F400090019091910182239323892B21F5809127
:100F500088019091890186399105E8F480918C018E
:100F600090918D01926090938D0180938C01862FDA
:100F700080628093340180913801833260F08091E7
:100F80008C0190918D01946090938D0180938C01E0
:100F900060636093340180919001909191012823C6
:100FA0003923232B01F58091050290910602892BAC
:100FB00071F480918C0190918D01946090938D01DA
:100FC00080938C0180913401806180933401809101
:100FD000070290910802892B31F4809134018F7CB3
:100FE00082608093340180918C0190918D01877F84
:100FF00090938D0180938C018091830181FD04C0C9
:1010000080918A0181FF19C0209134012D7C2093A9
:10101000340180918C0190918D01907F90938D018E
:1010200080938C0180918801909189018739910585
:10103000D8F024602093340117C0809190019091E2
:10104000910148235923452B79F0209134012D7EBD
:10105000209334018091880190918901873991050D
:1010600018F02460209334018091340182FF11C074
:1010700080918801909189018739910550F0809184
:10108000340183FD06C0809134018B7F81608093A1
:1010900034012091340124FF0CC021FD0AC080914D
:1010A000070290910802892B21F42F7E2260209361
:1010B000340120913401822F877039F480918801A6
:1010C0009091890181399140E0F02F7E2093340185
:1010D00080918C0190918D01997F90938D018093E7
:1010E0008C0180917200909173009093060280931E
:1010F000050280917400909175009093080280938E
:10110000070208958091340181FF7BC08091F50131
:101110009091F601892B49F480918C0190918D0179
:10112000816090938D0180938C0180918C0180FF70
:1011300079C08091F3019091F401892B99F0AB98DB
:1011400080918C0190918D018D7F90938D01809382
:101150008C0180916200909163009093F6018093DE
:10116000F501089580918C0190918D018E7F90936F
:101170008D0180938C01AB9A8091500181110FC039
:10118000809190019091910180689093910180935A
:101190009001809134018D7F8093340108958150B6
:1011A0008093500180918C0190918D018260909389
:1011B0008D0180938C018091F5019091F601892B2E
:1011C000D9F480918C0190918D018D7F90938D0148
:1011D00080938C0180918C0190918D01816090931E
:1011E0008D0180938C0180916000909161009093BB
:1011F000F4018093F30108951092F4011092F30129
:10120000089582E08093500180918C0190918D012E
:10121000826090938D0180938C011092F601109260
:10122000F501AB9A089580918801909189018039E8
:10123000914010F180918C0190918D018064909388
:101240008D0180938C018091FF0190910002892B88
:1012500011F4AC9A089580917E0190917F018536BA
:10126000910510F0AC9A08958091FF0190910002D1
:10127000892B61F0AC98089580918C0190918D013B
:101280008F7B90938D0180938C01AC9A089580910F
:1012900090019091910181709470892B81F08091DF
:1012A0008801909189018739910548F085B3897F3C
:1012B00085BB809134018160809334010895209131
:1012C0003401822F857081F48091680090916900CB
:1012D0009093FC018093FB0180916E0090916F00D0
:1012E0009093020280930102A9992CC080918801F9
:1012F000909189018739910550F080914501909135
:1013000046018061909346018093450109C0809118
:101310004501909146018F7E90934601809345014F
:101320008091F9019091FA01892B21F485B38660AF
:1013300085BB0895809190019091910184FF0DC02B
:10134000AA98089580914501909146018F7E9093CF
:1013500046018093450120FDA9980895809183015D
:1013600088231CF08FE99DE902C083E99CE0A899DD
:101370000BC02091410120622093410120917A010C
:101380002F7720937A010EC0209141012F7D209369
:1013900041012091AE0122232CF420917A01206892
:1013A00020937A01A89909C020918C0130918D0178
:1013B000306830938D0120938C0120919001309101
:1013C000910128233923232B91F420917E01309120
:1013D0007F01203F310538F4409188015091890107
:1013E00048325A4020F040918A0144FF11C02091B8
:1013F00041012F7D209341012091AE012F77209351
:10140000AE0120917A012F7720937A01A89A3AC0F1
:1014100040913401457031F02091AE012F77209337
:10142000AE0130C0409188015091890142325B4049
:1014300078F12A3F310520F420918301222344F5DD
:1014400020913801263420F420918301222304F5D1
:10145000A99B1EC0AA9B1CC02091830125FD0DC025
:101460002091110230911202232B39F0A89820917B
:10147000AE0120682093AE0105C02091AE01206826
:101480002093AE0120913401257011F0A89A08959F
:10149000209190013091910182239323892B11F0A7
:1014A000A89A08958091830183FD04C080918A01E8
:1014B00086FF02C0A89A089590917A01992334F486
:1014C0009091830192FD01C085FDA89808958091B7
:1014D000900190919101992334F4809141018061B0
:1014E0008093410105C0809141018F7E809341012D
:1014F000809190019091910188279970892B31F00A
:1015000080917A01816080937A0111C0809190016D
:101510009091910191FF06C080917A018E7F809316
:101520007A0105C080917A018E7F80937A01809143
:1015300090019091910192FF06C080917A018260A2
:1015400080937A0105C080917A018D7F80937A0122
:10155000809190019091910195FF06C080917A0150
:10156000846080937A0105C080917A018B7F80939B
:101570007A01809190019091910183709927892B34
:1015800031F080917A01886080937A0105C0809162
:101590007A01877F80937A018091900190919101E7
:1015A0008C709927892B31F080914101886080935C
:1015B000410105C080914101877F80934101809165
:1015C0003001853530F080917A01806180937A0115
:1015D00005C080917A018F7E80937A01809190017D
:1015E0009091910196FF06C080917A01806280936C
:1015F0007A0105C080917A018F7D80937A01809174
:101600003401982F957039F0809141018E7F82606E
:10161000809341010DC090914101292F2D7F82734C
:1016200021F021602093410103C09C7F90934101F0
:1016300080917A01882314F4959801C0959A80913D
:10164000340184FF04C085B38F7585BB089585FF81
:1016500003C0AD98AF9A089585B3806A85BB08959D
:1016600080918801909189018039914020F080918A
:1016700038018B3510F4AE9A08958F3508F0AE9886
:1016800008958091A901873359F4809183018C7466
:1016900071F08CE291E090933C0180933B0117C084
:1016A0008CE291E090933C0180933B0110C08091CB
:1016B0003B0190913C01009739F0019790933C01D8
:1016C00080933B01892B41F41092A90108958091E8
:1016D0003B0190913C01F1CF08958091340184FD4C
:1016E0000AC080919001909191018F7B909391011C
:1016F0008093900108958091050290910602892BB4
:1017000031F08091070290910802892B51F4809169
:101710009001909191018F7B909391018093900122
:10172000089580910502909106028D9730F0809186
:101730000702909108028D9750F48091900190914A
:10174000910180649093910180939001089580911C
:101750009001909191018F7B9093910180939001E2
:10176000089580E187BB88B38FEF88BB84BB95B3B6
:1017700085BB8EEB81BB8BEF82BB1ABA1BBAA895D7
:101780005FD5339A89B7806289BF81EC8EBD89B7F6
:10179000846089BF81E085BD85E084BD98B7906491
:1017A00098BF80934C0185D75CD48BE291E0A895DB
:1017B0000197E8F78FEF9FEF90937D0180937C0175
:1017C00050D46FD4579A80918A0180938E01789477
:1017D0008CE28093A9018FEF809382019CDA1092B2
:1017E0008D0110928C0189E18093400110923401A7
:1017F00056D8109283018FE0809344010F2EF8E7B2
:10180000AF2EF1E0BF2EF02D0F2EF2E84F2EF1E0BB
:101810005F2EF02DC3E8D1E00F2EF7E32F2EF02D31
:1018200033243A940F2EF5EACF2EF1E0DF2EF02D7F
:101830000F2EF4EAEF2EF1E0FF2EF02D03EA11E077
:101840000F2EF2EA8F2EF1E09F2EF02D0F2EF1EAEF
:101850006F2EF1E07F2EF02DA89580918801909158
:1018600089018039914088F4EEE7F0E08081918130
:10187000E1E1F2E09183808380918C0190918D0170
:101880009F7790938D0180938C01F50180818093E7
:10189000B3011092B40180918A0184FF0EC0F2015D
:1018A0008081813019F08081823039F4888180759F
:1018B000803519F42092A90104C08091A9018733D1
:1018C00009F461D600D8DAD902DE07DF80918A01F7
:1018D00084FD0CC03CDA16DCA6DC40DDD8DCC0DEC2
:1018E000809141018B7F8093410129C08091A901A2
:1018F000873351F48091900190919101806490938D
:1019000091018093900109C0809190019091910183
:101910008F7B90939101809390011092340180917C
:101920007A018F7780937A01809141018F7D846065
:1019300080934101C49A35BA82B3806B82BB88819F
:1019400084FDE9D98091A7018823D9F0E2D68DD40E
:1019500080917E0190917F01883C910510F09BD48D
:1019600004C010924E0110924D01F6E0F0934B012D
:1019700061E084E041D580937B0164D59AD51092D3
:10198000A70180914101F601808380917A01F701DE
:10199000808380913001F80180838091880190914B
:1019A0008901F4019083F301808320913801209311
:1019B000A00120917B0120939F0120914B01209356
:1019C0009E0186399105B0F48091790190E0880FED
:1019D000991F90934801809347018091470190910E
:1019E000480190939D018091470190914801809317
:1019F0009C0108C080914D0190914E0190939D01F2
:101A000080939C0180917E0190917F0190939B0136
:101A100080939A018091900190919101892F99274B
:101A2000909348018093470180913001853548F0BB
:101A30008091470190914801806190934801809383
:101A400047018091470190914801809399018091CD
:101A50009001909191018093980103D3FDCE1F9244
:101A60000F920FB60F9211242F933F934F935F93D2
:101A70006F937F938F939F93EF93FF9326B537B523
:101A80008091490190914A012817390780F02091EF
:101A90004201213061F4E0914401F0E0EE0FFF1FBC
:101AA000EF5AFE4F8FEF9FEF9183808332C02091DA
:101AB000420121110CC0E0914401F0E0EE0FFF1F44
:101AC000EF5AFE4F8FEF9FEF9183808322C02091CA
:101AD000440130E046B557B5BA01681B790B64364E
:101AE000710540F0F901EE0FFF1FEF5AFE4F7183B1
:101AF000608309C0F901EE0FFF1FEF5AFE4F8FEF11
:101B00009FEF9183808386B597B590934A01809328
:101B1000490180914401882321F081508093440140
:101B200003C08FE08093440182E080934201FF91E3
:101B3000EF919F918F917F916F915F914F913F9125
:101B40002F910F900FBE0F901F9018951F920F921C
:101B50000FB60F9211242F933F934F935F936F9380
:101B60007F938F939F93AF93BF93EF93FF93809156
:101B70004001882331F080914001815080934001E1
:101B800009C003D64FD67DDD89E18093400187E30C
:101B90008093350180914201882321F08150809308
:101BA000420104C0109289011092880180918F0136
:101BB000882321F0815080938F0102C072D2579AFE
:101BC000FF91EF91BF91AF919F918F917F916F9115
:101BD0005F914F913F912F910F900FBE0F901F90EB
:101BE00018951F920F920FB60F9211242F933F93C7
:101BF0004F935F936F937F938F939F93AF93BF9315
:101C0000EF93FF935DD2FF91EF91BF91AF919F91C1
:101C10008F917F916F915F914F913F912F910F9095
:101C20000FBE0F901F9018951F920F920FB60F9234
:101C300011242F933F934F938F939F93EF93FF9391
:101C400084B195B12091A8012223D1F02150209395
:101C5000A8012034C0F5209143012B3031F48130AC
:101C600022E0920710F080E090E020913601309160
:101C70003701820F931F909337018093360123C061
:101C800040914301842F90E0FC01EE0FFF1FEB52C7
:101C9000FE4F20913601309137013183208310921D
:101CA00037011092360121E42093A8014B3029F42A
:101CB0002091A70121602093A701FC01E056FF4F6E
:101CC00080818093430187B1807E90914301892B6D
:101CD00087B9369AFF91EF919F918F914F913F91E4
:101CE0002F910F900FBE0F901F901895A1E21A2E02
:101CF000AA1BBB1BFD010DC0AA1FBB1FEE1FFF1FB0
:101D0000A217B307E407F50720F0A21BB30BE40BFF
:101D1000F50B661F771F881F991F1A9469F7609546
:101D20007095809590959B01AC01BD01CF01089500
:101D3000A29FB001B39FC001A39F01D0B29F700DBD
:101D4000811D1124911D0895B7FF04C003D0821B8B
:101D5000930B0895EDDFA59F900DB49F900DA49F68
:0C1D6000800D911D11240895F894FFCF10
:101D6C00140046000F00460046001E000F00B80B82
:101D7C00DC054B001900B80B4600460046000F006E
:101D8C000A0028000F000F00320019000A002C0175
:101D9C000A000A000A000A00E2040A000A001900FC
:101DAC000B0B0B0203040506070707070A012C643B
:101DBC0033400291010114021E320269500A64C8B8
:101DCC0046C8C891636261605F5E5D5C5B5A585740
:101DDC005655535251504F4E4D4C4C4B4A49494815
:101DEC004746464544444342424141403F3E3D3CC8
:101DFC003B3A39383737363635353434333332327B
:101E0C0031302F2E2E2E2D2D2D2C2B2A2929282802
:101E1C00272727262524232221201F1E1D1C1B1AA1
:101E2C00191817161515141413131212111110106A
:00000001FF
